{
  "_format": "hh-sol-artifact-1",
  "contractName": "ProductWarranty",
  "sourceName": "contracts/ProductWarranty.sol",
  "abi": [
    {
      "inputs": [],
      "stateMutability": "nonpayable",
      "type": "constructor"
    },
    {
      "anonymous": false,
      "inputs": [
        {
          "indexed": true,
          "internalType": "address",
          "name": "owner",
          "type": "address"
        },
        {
          "indexed": true,
          "internalType": "address",
          "name": "approved",
          "type": "address"
        },
        {
          "indexed": true,
          "internalType": "uint256",
          "name": "tokenId",
          "type": "uint256"
        }
      ],
      "name": "Approval",
      "type": "event"
    },
    {
      "anonymous": false,
      "inputs": [
        {
          "indexed": true,
          "internalType": "address",
          "name": "owner",
          "type": "address"
        },
        {
          "indexed": true,
          "internalType": "address",
          "name": "operator",
          "type": "address"
        },
        {
          "indexed": false,
          "internalType": "bool",
          "name": "approved",
          "type": "bool"
        }
      ],
      "name": "ApprovalForAll",
      "type": "event"
    },
    {
      "anonymous": false,
      "inputs": [
        {
          "indexed": true,
          "internalType": "address",
          "name": "previousOwner",
          "type": "address"
        },
        {
          "indexed": true,
          "internalType": "address",
          "name": "newOwner",
          "type": "address"
        }
      ],
      "name": "OwnershipTransferred",
      "type": "event"
    },
    {
      "anonymous": false,
      "inputs": [
        {
          "indexed": true,
          "internalType": "address",
          "name": "from",
          "type": "address"
        },
        {
          "indexed": true,
          "internalType": "address",
          "name": "to",
          "type": "address"
        },
        {
          "indexed": true,
          "internalType": "uint256",
          "name": "tokenId",
          "type": "uint256"
        }
      ],
      "name": "Transfer",
      "type": "event"
    },
    {
      "inputs": [
        {
          "internalType": "address",
          "name": "to",
          "type": "address"
        },
        {
          "internalType": "uint256",
          "name": "tokenId",
          "type": "uint256"
        }
      ],
      "name": "approve",
      "outputs": [],
      "stateMutability": "nonpayable",
      "type": "function"
    },
    {
      "inputs": [
        {
          "internalType": "address",
          "name": "owner",
          "type": "address"
        }
      ],
      "name": "balanceOf",
      "outputs": [
        {
          "internalType": "uint256",
          "name": "",
          "type": "uint256"
        }
      ],
      "stateMutability": "view",
      "type": "function"
    },
    {
      "inputs": [
        {
          "internalType": "uint256",
          "name": "tokenId",
          "type": "uint256"
        }
      ],
      "name": "decayWarranty",
      "outputs": [],
      "stateMutability": "nonpayable",
      "type": "function"
    },
    {
      "inputs": [
        {
          "internalType": "uint256",
          "name": "tokenId",
          "type": "uint256"
        }
      ],
      "name": "getApproved",
      "outputs": [
        {
          "internalType": "address",
          "name": "",
          "type": "address"
        }
      ],
      "stateMutability": "view",
      "type": "function"
    },
    {
      "inputs": [
        {
          "internalType": "address",
          "name": "owner",
          "type": "address"
        },
        {
          "internalType": "address",
          "name": "operator",
          "type": "address"
        }
      ],
      "name": "isApprovedForAll",
      "outputs": [
        {
          "internalType": "bool",
          "name": "",
          "type": "bool"
        }
      ],
      "stateMutability": "view",
      "type": "function"
    },
    {
      "inputs": [],
      "name": "name",
      "outputs": [
        {
          "internalType": "string",
          "name": "",
          "type": "string"
        }
      ],
      "stateMutability": "view",
      "type": "function"
    },
    {
      "inputs": [],
      "name": "owner",
      "outputs": [
        {
          "internalType": "address",
          "name": "",
          "type": "address"
        }
      ],
      "stateMutability": "view",
      "type": "function"
    },
    {
      "inputs": [
        {
          "internalType": "uint256",
          "name": "tokenId",
          "type": "uint256"
        }
      ],
      "name": "ownerOf",
      "outputs": [
        {
          "internalType": "address",
          "name": "",
          "type": "address"
        }
      ],
      "stateMutability": "view",
      "type": "function"
    },
    {
      "inputs": [],
      "name": "renounceOwnership",
      "outputs": [],
      "stateMutability": "nonpayable",
      "type": "function"
    },
    {
      "inputs": [
        {
          "internalType": "address",
          "name": "to",
          "type": "address"
        },
        {
          "internalType": "string",
          "name": "uri",
          "type": "string"
        }
      ],
      "name": "safeMint",
      "outputs": [],
      "stateMutability": "nonpayable",
      "type": "function"
    },
    {
      "inputs": [
        {
          "internalType": "address",
          "name": "from",
          "type": "address"
        },
        {
          "internalType": "address",
          "name": "to",
          "type": "address"
        },
        {
          "internalType": "uint256",
          "name": "tokenId",
          "type": "uint256"
        }
      ],
      "name": "safeTransferFrom",
      "outputs": [],
      "stateMutability": "nonpayable",
      "type": "function"
    },
    {
      "inputs": [
        {
          "internalType": "address",
          "name": "from",
          "type": "address"
        },
        {
          "internalType": "address",
          "name": "to",
          "type": "address"
        },
        {
          "internalType": "uint256",
          "name": "tokenId",
          "type": "uint256"
        },
        {
          "internalType": "bytes",
          "name": "data",
          "type": "bytes"
        }
      ],
      "name": "safeTransferFrom",
      "outputs": [],
      "stateMutability": "nonpayable",
      "type": "function"
    },
    {
      "inputs": [
        {
          "internalType": "address",
          "name": "operator",
          "type": "address"
        },
        {
          "internalType": "bool",
          "name": "approved",
          "type": "bool"
        }
      ],
      "name": "setApprovalForAll",
      "outputs": [],
      "stateMutability": "nonpayable",
      "type": "function"
    },
    {
      "inputs": [
        {
          "internalType": "bytes4",
          "name": "interfaceId",
          "type": "bytes4"
        }
      ],
      "name": "supportsInterface",
      "outputs": [
        {
          "internalType": "bool",
          "name": "",
          "type": "bool"
        }
      ],
      "stateMutability": "view",
      "type": "function"
    },
    {
      "inputs": [],
      "name": "symbol",
      "outputs": [
        {
          "internalType": "string",
          "name": "",
          "type": "string"
        }
      ],
      "stateMutability": "view",
      "type": "function"
    },
    {
      "inputs": [
        {
          "internalType": "uint256",
          "name": "tokenId",
          "type": "uint256"
        }
      ],
      "name": "tokenURI",
      "outputs": [
        {
          "internalType": "string",
          "name": "",
          "type": "string"
        }
      ],
      "stateMutability": "view",
      "type": "function"
    },
    {
      "inputs": [
        {
          "internalType": "address",
          "name": "from",
          "type": "address"
        },
        {
          "internalType": "address",
          "name": "to",
          "type": "address"
        },
        {
          "internalType": "uint256",
          "name": "tokenId",
          "type": "uint256"
        }
      ],
      "name": "transferFrom",
      "outputs": [],
      "stateMutability": "nonpayable",
      "type": "function"
    },
    {
      "inputs": [
        {
          "internalType": "address",
          "name": "newOwner",
          "type": "address"
        }
      ],
      "name": "transferOwnership",
      "outputs": [],
      "stateMutability": "nonpayable",
      "type": "function"
    },
    {
      "inputs": [
        {
          "internalType": "address",
          "name": "to",
          "type": "address"
        },
        {
          "internalType": "uint256",
          "name": "tokenId",
          "type": "uint256"
        }
      ],
      "name": "transferWarranty",
      "outputs": [],
      "stateMutability": "nonpayable",
      "type": "function"
    },
    {
      "inputs": [
        {
          "internalType": "uint256",
          "name": "tokenId",
          "type": "uint256"
        }
      ],
      "name": "viewOwner",
      "outputs": [
        {
          "internalType": "address",
          "name": "",
          "type": "address"
        }
      ],
      "stateMutability": "view",
      "type": "function"
    }
  ],
  "bytecode": "0x60806040523480156200001157600080fd5b506040518060400160405280600f81526020017f50726f6475637457617272616e747900000000000000000000000000000000008152506040518060400160405280600381526020017f5052440000000000000000000000000000000000000000000000000000000000815250816000908051906020019062000096929190620001a6565b508060019080519060200190620000af929190620001a6565b505050620000d2620000c6620000d860201b60201c565b620000e060201b60201c565b620002bb565b600033905090565b6000600760009054906101000a900473ffffffffffffffffffffffffffffffffffffffff16905081600760006101000a81548173ffffffffffffffffffffffffffffffffffffffff021916908373ffffffffffffffffffffffffffffffffffffffff1602179055508173ffffffffffffffffffffffffffffffffffffffff168173ffffffffffffffffffffffffffffffffffffffff167f8be0079c531659141344cd1fd0a4f28419497f9722a3daafe3b4186f6b6457e060405160405180910390a35050565b828054620001b49062000285565b90600052602060002090601f016020900481019282620001d8576000855562000224565b82601f10620001f357805160ff191683800117855562000224565b8280016001018555821562000224579182015b828111156200022357825182559160200191906001019062000206565b5b50905062000233919062000237565b5090565b5b808211156200025257600081600090555060010162000238565b5090565b7f4e487b7100000000000000000000000000000000000000000000000000000000600052602260045260246000fd5b600060028204905060018216806200029e57607f821691505b60208210811415620002b557620002b462000256565b5b50919050565b612d6c80620002cb6000396000f3fe608060405234801561001057600080fd5b506004361061012c5760003560e01c80638da5cb5b116100ad578063c87b56dd11610071578063c87b56dd1461032d578063d204c45e1461035d578063e985e9c514610379578063f2fde38b146103a9578063fbb90944146103c55761012c565b80638da5cb5b1461028957806392eb104c146102a757806395d89b41146102d7578063a22cb465146102f5578063b88d4fde146103115761012c565b806342842e0e116100f457806342842e0e146101e75780634bf5be03146102035780636352211e1461021f57806370a082311461024f578063715018a61461027f5761012c565b806301ffc9a71461013157806306fdde0314610161578063081812fc1461017f578063095ea7b3146101af57806323b872dd146101cb575b600080fd5b61014b60048036038101906101469190611c3e565b6103e1565b6040516101589190611c86565b60405180910390f35b6101696104c3565b6040516101769190611d3a565b60405180910390f35b61019960048036038101906101949190611d92565b610555565b6040516101a69190611e00565b60405180910390f35b6101c960048036038101906101c49190611e47565b61059b565b005b6101e560048036038101906101e09190611e87565b6106b3565b005b61020160048036038101906101fc9190611e87565b610713565b005b61021d60048036038101906102189190611e47565b610733565b005b61023960048036038101906102349190611d92565b61074a565b6040516102469190611e00565b60405180910390f35b61026960048036038101906102649190611eda565b6107fc565b6040516102769190611f16565b60405180910390f35b6102876108b4565b005b6102916108c8565b60405161029e9190611e00565b60405180910390f35b6102c160048036038101906102bc9190611d92565b6108f2565b6040516102ce9190611e00565b60405180910390f35b6102df610904565b6040516102ec9190611d3a565b60405180910390f35b61030f600480360381019061030a9190611f5d565b610996565b005b61032b600480360381019061032691906120d2565b6109ac565b005b61034760048036038101906103429190611d92565b610a0e565b6040516103549190611d3a565b60405180910390f35b610377600480360381019061037291906121f6565b610a20565b005b610393600480360381019061038e9190612252565b610a59565b6040516103a09190611c86565b60405180910390f35b6103c360048036038101906103be9190611eda565b610aed565b005b6103df60048036038101906103da9190611d92565b610b71565b005b60007f80ac58cd000000000000000000000000000000000000000000000000000000007bffffffffffffffffffffffffffffffffffffffffffffffffffffffff1916827bffffffffffffffffffffffffffffffffffffffffffffffffffffffff191614806104ac57507f5b5e139f000000000000000000000000000000000000000000000000000000007bffffffffffffffffffffffffffffffffffffffffffffffffffffffff1916827bffffffffffffffffffffffffffffffffffffffffffffffffffffffff1916145b806104bc57506104bb82610b7c565b5b9050919050565b6060600080546104d2906122c1565b80601f01602080910402602001604051908101604052809291908181526020018280546104fe906122c1565b801561054b5780601f106105205761010080835404028352916020019161054b565b820191906000526020600020905b81548152906001019060200180831161052e57829003601f168201915b5050505050905090565b600061056082610be6565b6004600083815260200190815260200160002060009054906101000a900473ffffffffffffffffffffffffffffffffffffffff169050919050565b60006105a68261074a565b90508073ffffffffffffffffffffffffffffffffffffffff168373ffffffffffffffffffffffffffffffffffffffff161415610617576040517f08c379a000000000000000000000000000000000000000000000000000000000815260040161060e90612365565b60405180910390fd5b8073ffffffffffffffffffffffffffffffffffffffff16610636610c31565b73ffffffffffffffffffffffffffffffffffffffff16148061066557506106648161065f610c31565b610a59565b5b6106a4576040517f08c379a000000000000000000000000000000000000000000000000000000000815260040161069b906123f7565b60405180910390fd5b6106ae8383610c39565b505050565b6106c46106be610c31565b82610cf2565b610703576040517f08c379a00000000000000000000000000000000000000000000000000000000081526004016106fa90612489565b60405180910390fd5b61070e838383610d87565b505050565b61072e838383604051806020016040528060008152506109ac565b505050565b61073b610fee565b610746338383610d87565b5050565b6000806002600084815260200190815260200160002060009054906101000a900473ffffffffffffffffffffffffffffffffffffffff169050600073ffffffffffffffffffffffffffffffffffffffff168173ffffffffffffffffffffffffffffffffffffffff1614156107f3576040517f08c379a00000000000000000000000000000000000000000000000000000000081526004016107ea906124f5565b60405180910390fd5b80915050919050565b60008073ffffffffffffffffffffffffffffffffffffffff168273ffffffffffffffffffffffffffffffffffffffff16141561086d576040517f08c379a000000000000000000000000000000000000000000000000000000000815260040161086490612587565b60405180910390fd5b600360008373ffffffffffffffffffffffffffffffffffffffff1673ffffffffffffffffffffffffffffffffffffffff168152602001908152602001600020549050919050565b6108bc610fee565b6108c6600061106c565b565b6000600760009054906101000a900473ffffffffffffffffffffffffffffffffffffffff16905090565b60006108fd8261074a565b9050919050565b606060018054610913906122c1565b80601f016020809104026020016040519081016040528092919081815260200182805461093f906122c1565b801561098c5780601f106109615761010080835404028352916020019161098c565b820191906000526020600020905b81548152906001019060200180831161096f57829003601f168201915b5050505050905090565b6109a86109a1610c31565b8383611132565b5050565b6109bd6109b7610c31565b83610cf2565b6109fc576040517f08c379a00000000000000000000000000000000000000000000000000000000081526004016109f390612489565b60405180910390fd5b610a088484848461129f565b50505050565b6060610a19826112fb565b9050919050565b610a28610fee565b6000610a34600861140e565b9050610a40600861141c565b610a4a8382611432565b610a548183611450565b505050565b6000600560008473ffffffffffffffffffffffffffffffffffffffff1673ffffffffffffffffffffffffffffffffffffffff16815260200190815260200160002060008373ffffffffffffffffffffffffffffffffffffffff1673ffffffffffffffffffffffffffffffffffffffff16815260200190815260200160002060009054906101000a900460ff16905092915050565b610af5610fee565b600073ffffffffffffffffffffffffffffffffffffffff168173ffffffffffffffffffffffffffffffffffffffff161415610b65576040517f08c379a0000000000000000000000000000000000000000000000000000000008152600401610b5c90612619565b60405180910390fd5b610b6e8161106c565b50565b610b79610fee565b50565b60007f01ffc9a7000000000000000000000000000000000000000000000000000000007bffffffffffffffffffffffffffffffffffffffffffffffffffffffff1916827bffffffffffffffffffffffffffffffffffffffffffffffffffffffff1916149050919050565b610bef816114c4565b610c2e576040517f08c379a0000000000000000000000000000000000000000000000000000000008152600401610c25906124f5565b60405180910390fd5b50565b600033905090565b816004600083815260200190815260200160002060006101000a81548173ffffffffffffffffffffffffffffffffffffffff021916908373ffffffffffffffffffffffffffffffffffffffff160217905550808273ffffffffffffffffffffffffffffffffffffffff16610cac8361074a565b73ffffffffffffffffffffffffffffffffffffffff167f8c5be1e5ebec7d5bd14f71427d1e84f3dd0314c0f7b2291e5b200ac8c7c3b92560405160405180910390a45050565b600080610cfe8361074a565b90508073ffffffffffffffffffffffffffffffffffffffff168473ffffffffffffffffffffffffffffffffffffffff161480610d405750610d3f8185610a59565b5b80610d7e57508373ffffffffffffffffffffffffffffffffffffffff16610d6684610555565b73ffffffffffffffffffffffffffffffffffffffff16145b91505092915050565b8273ffffffffffffffffffffffffffffffffffffffff16610da78261074a565b73ffffffffffffffffffffffffffffffffffffffff1614610dfd576040517f08c379a0000000000000000000000000000000000000000000000000000000008152600401610df4906126ab565b60405180910390fd5b600073ffffffffffffffffffffffffffffffffffffffff168273ffffffffffffffffffffffffffffffffffffffff161415610e6d576040517f08c379a0000000000000000000000000000000000000000000000000000000008152600401610e649061273d565b60405180910390fd5b610e78838383611530565b610e83600082610c39565b6001600360008573ffffffffffffffffffffffffffffffffffffffff1673ffffffffffffffffffffffffffffffffffffffff1681526020019081526020016000206000828254610ed3919061278c565b925050819055506001600360008473ffffffffffffffffffffffffffffffffffffffff1673ffffffffffffffffffffffffffffffffffffffff1681526020019081526020016000206000828254610f2a91906127c0565b92505081905550816002600083815260200190815260200160002060006101000a81548173ffffffffffffffffffffffffffffffffffffffff021916908373ffffffffffffffffffffffffffffffffffffffff160217905550808273ffffffffffffffffffffffffffffffffffffffff168473ffffffffffffffffffffffffffffffffffffffff167fddf252ad1be2c89b69c2b068fc378daa952ba7f163c4a11628f55a4df523b3ef60405160405180910390a4610fe9838383611535565b505050565b610ff6610c31565b73ffffffffffffffffffffffffffffffffffffffff166110146108c8565b73ffffffffffffffffffffffffffffffffffffffff161461106a576040517f08c379a000000000000000000000000000000000000000000000000000000000815260040161106190612862565b60405180910390fd5b565b6000600760009054906101000a900473ffffffffffffffffffffffffffffffffffffffff16905081600760006101000a81548173ffffffffffffffffffffffffffffffffffffffff021916908373ffffffffffffffffffffffffffffffffffffffff1602179055508173ffffffffffffffffffffffffffffffffffffffff168173ffffffffffffffffffffffffffffffffffffffff167f8be0079c531659141344cd1fd0a4f28419497f9722a3daafe3b4186f6b6457e060405160405180910390a35050565b8173ffffffffffffffffffffffffffffffffffffffff168373ffffffffffffffffffffffffffffffffffffffff1614156111a1576040517f08c379a0000000000000000000000000000000000000000000000000000000008152600401611198906128ce565b60405180910390fd5b80600560008573ffffffffffffffffffffffffffffffffffffffff1673ffffffffffffffffffffffffffffffffffffffff16815260200190815260200160002060008473ffffffffffffffffffffffffffffffffffffffff1673ffffffffffffffffffffffffffffffffffffffff16815260200190815260200160002060006101000a81548160ff0219169083151502179055508173ffffffffffffffffffffffffffffffffffffffff168373ffffffffffffffffffffffffffffffffffffffff167f17307eab39ab6107e8899845ad3d59bd9653f200f220920489ca2b5937696c31836040516112929190611c86565b60405180910390a3505050565b6112aa848484610d87565b6112b68484848461153a565b6112f5576040517f08c379a00000000000000000000000000000000000000000000000000000000081526004016112ec90612960565b60405180910390fd5b50505050565b606061130682610be6565b6000600660008481526020019081526020016000208054611326906122c1565b80601f0160208091040260200160405190810160405280929190818152602001828054611352906122c1565b801561139f5780601f106113745761010080835404028352916020019161139f565b820191906000526020600020905b81548152906001019060200180831161138257829003601f168201915b5050505050905060006113b06116d1565b90506000815114156113c6578192505050611409565b6000825111156113fb5780826040516020016113e39291906129bc565b60405160208183030381529060405292505050611409565b6114048461170e565b925050505b919050565b600081600001549050919050565b6001816000016000828254019250508190555050565b61144c828260405180602001604052806000815250611776565b5050565b611459826114c4565b611498576040517f08c379a000000000000000000000000000000000000000000000000000000000815260040161148f90612a52565b60405180910390fd5b806006600084815260200190815260200160002090805190602001906114bf929190611b2f565b505050565b60008073ffffffffffffffffffffffffffffffffffffffff166002600084815260200190815260200160002060009054906101000a900473ffffffffffffffffffffffffffffffffffffffff1673ffffffffffffffffffffffffffffffffffffffff1614159050919050565b505050565b505050565b600061155b8473ffffffffffffffffffffffffffffffffffffffff166117d1565b156116c4578373ffffffffffffffffffffffffffffffffffffffff1663150b7a02611584610c31565b8786866040518563ffffffff1660e01b81526004016115a69493929190612ac7565b602060405180830381600087803b1580156115c057600080fd5b505af19250505080156115f157506040513d601f19601f820116820180604052508101906115ee9190612b28565b60015b611674573d8060008114611621576040519150601f19603f3d011682016040523d82523d6000602084013e611626565b606091505b5060008151141561166c576040517f08c379a000000000000000000000000000000000000000000000000000000000815260040161166390612960565b60405180910390fd5b805181602001fd5b63150b7a0260e01b7bffffffffffffffffffffffffffffffffffffffffffffffffffffffff1916817bffffffffffffffffffffffffffffffffffffffffffffffffffffffff1916149150506116c9565b600190505b949350505050565b60606040518060400160405280600781526020017f697066733a2f2f00000000000000000000000000000000000000000000000000815250905090565b606061171982610be6565b60006117236116d1565b90506000815111611743576040518060200160405280600081525061176e565b8061174d846117f4565b60405160200161175e9291906129bc565b6040516020818303038152906040525b915050919050565b6117808383611955565b61178d600084848461153a565b6117cc576040517f08c379a00000000000000000000000000000000000000000000000000000000081526004016117c390612960565b60405180910390fd5b505050565b6000808273ffffffffffffffffffffffffffffffffffffffff163b119050919050565b6060600082141561183c576040518060400160405280600181526020017f30000000000000000000000000000000000000000000000000000000000000008152509050611950565b600082905060005b6000821461186e57808061185790612b55565b915050600a826118679190612bcd565b9150611844565b60008167ffffffffffffffff81111561188a57611889611fa7565b5b6040519080825280601f01601f1916602001820160405280156118bc5781602001600182028036833780820191505090505b5090505b60008514611949576001826118d5919061278c565b9150600a856118e49190612bfe565b60306118f091906127c0565b60f81b81838151811061190657611905612c2f565b5b60200101907effffffffffffffffffffffffffffffffffffffffffffffffffffffffffffff1916908160001a905350600a856119429190612bcd565b94506118c0565b8093505050505b919050565b600073ffffffffffffffffffffffffffffffffffffffff168273ffffffffffffffffffffffffffffffffffffffff1614156119c5576040517f08c379a00000000000000000000000000000000000000000000000000000000081526004016119bc90612caa565b60405180910390fd5b6119ce816114c4565b15611a0e576040517f08c379a0000000000000000000000000000000000000000000000000000000008152600401611a0590612d16565b60405180910390fd5b611a1a60008383611530565b6001600360008473ffffffffffffffffffffffffffffffffffffffff1673ffffffffffffffffffffffffffffffffffffffff1681526020019081526020016000206000828254611a6a91906127c0565b92505081905550816002600083815260200190815260200160002060006101000a81548173ffffffffffffffffffffffffffffffffffffffff021916908373ffffffffffffffffffffffffffffffffffffffff160217905550808273ffffffffffffffffffffffffffffffffffffffff16600073ffffffffffffffffffffffffffffffffffffffff167fddf252ad1be2c89b69c2b068fc378daa952ba7f163c4a11628f55a4df523b3ef60405160405180910390a4611b2b60008383611535565b5050565b828054611b3b906122c1565b90600052602060002090601f016020900481019282611b5d5760008555611ba4565b82601f10611b7657805160ff1916838001178555611ba4565b82800160010185558215611ba4579182015b82811115611ba3578251825591602001919060010190611b88565b5b509050611bb19190611bb5565b5090565b5b80821115611bce576000816000905550600101611bb6565b5090565b6000604051905090565b600080fd5b600080fd5b60007fffffffff0000000000000000000000000000000000000000000000000000000082169050919050565b611c1b81611be6565b8114611c2657600080fd5b50565b600081359050611c3881611c12565b92915050565b600060208284031215611c5457611c53611bdc565b5b6000611c6284828501611c29565b91505092915050565b60008115159050919050565b611c8081611c6b565b82525050565b6000602082019050611c9b6000830184611c77565b92915050565b600081519050919050565b600082825260208201905092915050565b60005b83811015611cdb578082015181840152602081019050611cc0565b83811115611cea576000848401525b50505050565b6000601f19601f8301169050919050565b6000611d0c82611ca1565b611d168185611cac565b9350611d26818560208601611cbd565b611d2f81611cf0565b840191505092915050565b60006020820190508181036000830152611d548184611d01565b905092915050565b6000819050919050565b611d6f81611d5c565b8114611d7a57600080fd5b50565b600081359050611d8c81611d66565b92915050565b600060208284031215611da857611da7611bdc565b5b6000611db684828501611d7d565b91505092915050565b600073ffffffffffffffffffffffffffffffffffffffff82169050919050565b6000611dea82611dbf565b9050919050565b611dfa81611ddf565b82525050565b6000602082019050611e156000830184611df1565b92915050565b611e2481611ddf565b8114611e2f57600080fd5b50565b600081359050611e4181611e1b565b92915050565b60008060408385031215611e5e57611e5d611bdc565b5b6000611e6c85828601611e32565b9250506020611e7d85828601611d7d565b9150509250929050565b600080600060608486031215611ea057611e9f611bdc565b5b6000611eae86828701611e32565b9350506020611ebf86828701611e32565b9250506040611ed086828701611d7d565b9150509250925092565b600060208284031215611ef057611eef611bdc565b5b6000611efe84828501611e32565b91505092915050565b611f1081611d5c565b82525050565b6000602082019050611f2b6000830184611f07565b92915050565b611f3a81611c6b565b8114611f4557600080fd5b50565b600081359050611f5781611f31565b92915050565b60008060408385031215611f7457611f73611bdc565b5b6000611f8285828601611e32565b9250506020611f9385828601611f48565b9150509250929050565b600080fd5b600080fd5b7f4e487b7100000000000000000000000000000000000000000000000000000000600052604160045260246000fd5b611fdf82611cf0565b810181811067ffffffffffffffff82111715611ffe57611ffd611fa7565b5b80604052505050565b6000612011611bd2565b905061201d8282611fd6565b919050565b600067ffffffffffffffff82111561203d5761203c611fa7565b5b61204682611cf0565b9050602081019050919050565b82818337600083830152505050565b600061207561207084612022565b612007565b90508281526020810184848401111561209157612090611fa2565b5b61209c848285612053565b509392505050565b600082601f8301126120b9576120b8611f9d565b5b81356120c9848260208601612062565b91505092915050565b600080600080608085870312156120ec576120eb611bdc565b5b60006120fa87828801611e32565b945050602061210b87828801611e32565b935050604061211c87828801611d7d565b925050606085013567ffffffffffffffff81111561213d5761213c611be1565b5b612149878288016120a4565b91505092959194509250565b600067ffffffffffffffff8211156121705761216f611fa7565b5b61217982611cf0565b9050602081019050919050565b600061219961219484612155565b612007565b9050828152602081018484840111156121b5576121b4611fa2565b5b6121c0848285612053565b509392505050565b600082601f8301126121dd576121dc611f9d565b5b81356121ed848260208601612186565b91505092915050565b6000806040838503121561220d5761220c611bdc565b5b600061221b85828601611e32565b925050602083013567ffffffffffffffff81111561223c5761223b611be1565b5b612248858286016121c8565b9150509250929050565b6000806040838503121561226957612268611bdc565b5b600061227785828601611e32565b925050602061228885828601611e32565b9150509250929050565b7f4e487b7100000000000000000000000000000000000000000000000000000000600052602260045260246000fd5b600060028204905060018216806122d957607f821691505b602082108114156122ed576122ec612292565b5b50919050565b7f4552433732313a20617070726f76616c20746f2063757272656e74206f776e6560008201527f7200000000000000000000000000000000000000000000000000000000000000602082015250565b600061234f602183611cac565b915061235a826122f3565b604082019050919050565b6000602082019050818103600083015261237e81612342565b9050919050565b7f4552433732313a20617070726f76652063616c6c6572206973206e6f7420746f60008201527f6b656e206f776e6572206e6f7220617070726f76656420666f7220616c6c0000602082015250565b60006123e1603e83611cac565b91506123ec82612385565b604082019050919050565b60006020820190508181036000830152612410816123d4565b9050919050565b7f4552433732313a2063616c6c6572206973206e6f7420746f6b656e206f776e6560008201527f72206e6f7220617070726f766564000000000000000000000000000000000000602082015250565b6000612473602e83611cac565b915061247e82612417565b604082019050919050565b600060208201905081810360008301526124a281612466565b9050919050565b7f4552433732313a20696e76616c696420746f6b656e2049440000000000000000600082015250565b60006124df601883611cac565b91506124ea826124a9565b602082019050919050565b6000602082019050818103600083015261250e816124d2565b9050919050565b7f4552433732313a2061646472657373207a65726f206973206e6f74206120766160008201527f6c6964206f776e65720000000000000000000000000000000000000000000000602082015250565b6000612571602983611cac565b915061257c82612515565b604082019050919050565b600060208201905081810360008301526125a081612564565b9050919050565b7f4f776e61626c653a206e6577206f776e657220697320746865207a65726f206160008201527f6464726573730000000000000000000000000000000000000000000000000000602082015250565b6000612603602683611cac565b915061260e826125a7565b604082019050919050565b60006020820190508181036000830152612632816125f6565b9050919050565b7f4552433732313a207472616e736665722066726f6d20696e636f72726563742060008201527f6f776e6572000000000000000000000000000000000000000000000000000000602082015250565b6000612695602583611cac565b91506126a082612639565b604082019050919050565b600060208201905081810360008301526126c481612688565b9050919050565b7f4552433732313a207472616e7366657220746f20746865207a65726f2061646460008201527f7265737300000000000000000000000000000000000000000000000000000000602082015250565b6000612727602483611cac565b9150612732826126cb565b604082019050919050565b600060208201905081810360008301526127568161271a565b9050919050565b7f4e487b7100000000000000000000000000000000000000000000000000000000600052601160045260246000fd5b600061279782611d5c565b91506127a283611d5c565b9250828210156127b5576127b461275d565b5b828203905092915050565b60006127cb82611d5c565b91506127d683611d5c565b9250827fffffffffffffffffffffffffffffffffffffffffffffffffffffffffffffffff0382111561280b5761280a61275d565b5b828201905092915050565b7f4f776e61626c653a2063616c6c6572206973206e6f7420746865206f776e6572600082015250565b600061284c602083611cac565b915061285782612816565b602082019050919050565b6000602082019050818103600083015261287b8161283f565b9050919050565b7f4552433732313a20617070726f766520746f2063616c6c657200000000000000600082015250565b60006128b8601983611cac565b91506128c382612882565b602082019050919050565b600060208201905081810360008301526128e7816128ab565b9050919050565b7f4552433732313a207472616e7366657220746f206e6f6e20455243373231526560008201527f63656976657220696d706c656d656e7465720000000000000000000000000000602082015250565b600061294a603283611cac565b9150612955826128ee565b604082019050919050565b600060208201905081810360008301526129798161293d565b9050919050565b600081905092915050565b600061299682611ca1565b6129a08185612980565b93506129b0818560208601611cbd565b80840191505092915050565b60006129c8828561298b565b91506129d4828461298b565b91508190509392505050565b7f45524337323155524953746f726167653a2055524920736574206f66206e6f6e60008201527f6578697374656e7420746f6b656e000000000000000000000000000000000000602082015250565b6000612a3c602e83611cac565b9150612a47826129e0565b604082019050919050565b60006020820190508181036000830152612a6b81612a2f565b9050919050565b600081519050919050565b600082825260208201905092915050565b6000612a9982612a72565b612aa38185612a7d565b9350612ab3818560208601611cbd565b612abc81611cf0565b840191505092915050565b6000608082019050612adc6000830187611df1565b612ae96020830186611df1565b612af66040830185611f07565b8181036060830152612b088184612a8e565b905095945050505050565b600081519050612b2281611c12565b92915050565b600060208284031215612b3e57612b3d611bdc565b5b6000612b4c84828501612b13565b91505092915050565b6000612b6082611d5c565b91507fffffffffffffffffffffffffffffffffffffffffffffffffffffffffffffffff821415612b9357612b9261275d565b5b600182019050919050565b7f4e487b7100000000000000000000000000000000000000000000000000000000600052601260045260246000fd5b6000612bd882611d5c565b9150612be383611d5c565b925082612bf357612bf2612b9e565b5b828204905092915050565b6000612c0982611d5c565b9150612c1483611d5c565b925082612c2457612c23612b9e565b5b828206905092915050565b7f4e487b7100000000000000000000000000000000000000000000000000000000600052603260045260246000fd5b7f4552433732313a206d696e7420746f20746865207a65726f2061646472657373600082015250565b6000612c94602083611cac565b9150612c9f82612c5e565b602082019050919050565b60006020820190508181036000830152612cc381612c87565b9050919050565b7f4552433732313a20746f6b656e20616c7265616479206d696e74656400000000600082015250565b6000612d00601c83611cac565b9150612d0b82612cca565b602082019050919050565b60006020820190508181036000830152612d2f81612cf3565b905091905056fea26469706673582212200593cb6dba8b0c1bc0e9e691d7246e1f31e15afc98fe04fdd08ee3b7e2e2ec7f64736f6c63430008090033",
  "linkReferences": {},
  "deployedLinkReferences": {}
}