{
  "_format": "hh-sol-artifact-1",
  "contractName": "Warranty",
  "sourceName": "contracts/Warranty.sol",
  "abi": [
    {
      "inputs": [],
      "stateMutability": "nonpayable",
      "type": "constructor"
    },
    {
      "anonymous": false,
      "inputs": [
        {
          "indexed": true,
          "internalType": "address",
          "name": "owner",
          "type": "address"
        },
        {
          "indexed": true,
          "internalType": "address",
          "name": "approved",
          "type": "address"
        },
        {
          "indexed": true,
          "internalType": "uint256",
          "name": "tokenId",
          "type": "uint256"
        }
      ],
      "name": "Approval",
      "type": "event"
    },
    {
      "anonymous": false,
      "inputs": [
        {
          "indexed": true,
          "internalType": "address",
          "name": "owner",
          "type": "address"
        },
        {
          "indexed": true,
          "internalType": "address",
          "name": "operator",
          "type": "address"
        },
        {
          "indexed": false,
          "internalType": "bool",
          "name": "approved",
          "type": "bool"
        }
      ],
      "name": "ApprovalForAll",
      "type": "event"
    },
    {
      "anonymous": false,
      "inputs": [
        {
          "indexed": true,
          "internalType": "address",
          "name": "previousOwner",
          "type": "address"
        },
        {
          "indexed": true,
          "internalType": "address",
          "name": "newOwner",
          "type": "address"
        }
      ],
      "name": "OwnershipTransferred",
      "type": "event"
    },
    {
      "anonymous": false,
      "inputs": [
        {
          "indexed": true,
          "internalType": "address",
          "name": "from",
          "type": "address"
        },
        {
          "indexed": true,
          "internalType": "address",
          "name": "to",
          "type": "address"
        },
        {
          "indexed": true,
          "internalType": "uint256",
          "name": "tokenId",
          "type": "uint256"
        }
      ],
      "name": "Transfer",
      "type": "event"
    },
    {
      "inputs": [
        {
          "internalType": "address",
          "name": "to",
          "type": "address"
        },
        {
          "internalType": "uint256",
          "name": "tokenId",
          "type": "uint256"
        }
      ],
      "name": "approve",
      "outputs": [],
      "stateMutability": "nonpayable",
      "type": "function"
    },
    {
      "inputs": [
        {
          "internalType": "address",
          "name": "owner",
          "type": "address"
        }
      ],
      "name": "balanceOf",
      "outputs": [
        {
          "internalType": "uint256",
          "name": "",
          "type": "uint256"
        }
      ],
      "stateMutability": "view",
      "type": "function"
    },
    {
      "inputs": [
        {
          "internalType": "uint256",
          "name": "tokenId",
          "type": "uint256"
        }
      ],
      "name": "burn",
      "outputs": [],
      "stateMutability": "nonpayable",
      "type": "function"
    },
    {
      "inputs": [
        {
          "internalType": "uint256",
          "name": "tokenId",
          "type": "uint256"
        }
      ],
      "name": "decayWarranty",
      "outputs": [],
      "stateMutability": "nonpayable",
      "type": "function"
    },
    {
      "inputs": [
        {
          "internalType": "uint256",
          "name": "tokenId",
          "type": "uint256"
        }
      ],
      "name": "getApproved",
      "outputs": [
        {
          "internalType": "address",
          "name": "",
          "type": "address"
        }
      ],
      "stateMutability": "view",
      "type": "function"
    },
    {
      "inputs": [
        {
          "internalType": "address",
          "name": "owner",
          "type": "address"
        },
        {
          "internalType": "address",
          "name": "operator",
          "type": "address"
        }
      ],
      "name": "isApprovedForAll",
      "outputs": [
        {
          "internalType": "bool",
          "name": "",
          "type": "bool"
        }
      ],
      "stateMutability": "view",
      "type": "function"
    },
    {
      "inputs": [
        {
          "internalType": "uint256",
          "name": "tokenId",
          "type": "uint256"
        }
      ],
      "name": "isUnderWarranty",
      "outputs": [
        {
          "internalType": "bool",
          "name": "",
          "type": "bool"
        }
      ],
      "stateMutability": "view",
      "type": "function"
    },
    {
      "inputs": [],
      "name": "name",
      "outputs": [
        {
          "internalType": "string",
          "name": "",
          "type": "string"
        }
      ],
      "stateMutability": "view",
      "type": "function"
    },
    {
      "inputs": [],
      "name": "owner",
      "outputs": [
        {
          "internalType": "address",
          "name": "",
          "type": "address"
        }
      ],
      "stateMutability": "view",
      "type": "function"
    },
    {
      "inputs": [
        {
          "internalType": "uint256",
          "name": "tokenId",
          "type": "uint256"
        }
      ],
      "name": "ownerOf",
      "outputs": [
        {
          "internalType": "address",
          "name": "",
          "type": "address"
        }
      ],
      "stateMutability": "view",
      "type": "function"
    },
    {
      "inputs": [],
      "name": "renounceOwnership",
      "outputs": [],
      "stateMutability": "nonpayable",
      "type": "function"
    },
    {
      "inputs": [
        {
          "internalType": "address",
          "name": "to",
          "type": "address"
        }
      ],
      "name": "safeMint",
      "outputs": [],
      "stateMutability": "nonpayable",
      "type": "function"
    },
    {
      "inputs": [
        {
          "internalType": "address",
          "name": "to",
          "type": "address"
        },
        {
          "internalType": "string",
          "name": "uri",
          "type": "string"
        }
      ],
      "name": "safeMint",
      "outputs": [],
      "stateMutability": "nonpayable",
      "type": "function"
    },
    {
      "inputs": [
        {
          "internalType": "address",
          "name": "from",
          "type": "address"
        },
        {
          "internalType": "address",
          "name": "to",
          "type": "address"
        },
        {
          "internalType": "uint256",
          "name": "tokenId",
          "type": "uint256"
        }
      ],
      "name": "safeTransferFrom",
      "outputs": [],
      "stateMutability": "nonpayable",
      "type": "function"
    },
    {
      "inputs": [
        {
          "internalType": "address",
          "name": "from",
          "type": "address"
        },
        {
          "internalType": "address",
          "name": "to",
          "type": "address"
        },
        {
          "internalType": "uint256",
          "name": "tokenId",
          "type": "uint256"
        },
        {
          "internalType": "bytes",
          "name": "data",
          "type": "bytes"
        }
      ],
      "name": "safeTransferFrom",
      "outputs": [],
      "stateMutability": "nonpayable",
      "type": "function"
    },
    {
      "inputs": [
        {
          "internalType": "address",
          "name": "operator",
          "type": "address"
        },
        {
          "internalType": "bool",
          "name": "approved",
          "type": "bool"
        }
      ],
      "name": "setApprovalForAll",
      "outputs": [],
      "stateMutability": "nonpayable",
      "type": "function"
    },
    {
      "inputs": [
        {
          "internalType": "bytes4",
          "name": "interfaceId",
          "type": "bytes4"
        }
      ],
      "name": "supportsInterface",
      "outputs": [
        {
          "internalType": "bool",
          "name": "",
          "type": "bool"
        }
      ],
      "stateMutability": "view",
      "type": "function"
    },
    {
      "inputs": [],
      "name": "symbol",
      "outputs": [
        {
          "internalType": "string",
          "name": "",
          "type": "string"
        }
      ],
      "stateMutability": "view",
      "type": "function"
    },
    {
      "inputs": [
        {
          "internalType": "uint256",
          "name": "tokenId",
          "type": "uint256"
        }
      ],
      "name": "tokenURI",
      "outputs": [
        {
          "internalType": "string",
          "name": "",
          "type": "string"
        }
      ],
      "stateMutability": "view",
      "type": "function"
    },
    {
      "inputs": [
        {
          "internalType": "address",
          "name": "from",
          "type": "address"
        },
        {
          "internalType": "address",
          "name": "to",
          "type": "address"
        },
        {
          "internalType": "uint256",
          "name": "tokenId",
          "type": "uint256"
        }
      ],
      "name": "transferFrom",
      "outputs": [],
      "stateMutability": "nonpayable",
      "type": "function"
    },
    {
      "inputs": [
        {
          "internalType": "address",
          "name": "newOwner",
          "type": "address"
        }
      ],
      "name": "transferOwnership",
      "outputs": [],
      "stateMutability": "nonpayable",
      "type": "function"
    },
    {
      "inputs": [
        {
          "internalType": "address",
          "name": "to",
          "type": "address"
        },
        {
          "internalType": "uint256",
          "name": "tokenId",
          "type": "uint256"
        }
      ],
      "name": "transferWarranty",
      "outputs": [],
      "stateMutability": "nonpayable",
      "type": "function"
    },
    {
      "inputs": [
        {
          "internalType": "uint256",
          "name": "tokenId",
          "type": "uint256"
        }
      ],
      "name": "viewOwner",
      "outputs": [
        {
          "internalType": "address",
          "name": "",
          "type": "address"
        }
      ],
      "stateMutability": "view",
      "type": "function"
    }
  ],
  "bytecode": "0x60806040523480156200001157600080fd5b506040518060400160405280600881526020017f57617272616e74790000000000000000000000000000000000000000000000008152506040518060400160405280600381526020017f5244430000000000000000000000000000000000000000000000000000000000815250816000908051906020019062000096929190620001a6565b508060019080519060200190620000af929190620001a6565b505050620000d2620000c6620000d860201b60201c565b620000e060201b60201c565b620002bb565b600033905090565b6000600760009054906101000a900473ffffffffffffffffffffffffffffffffffffffff16905081600760006101000a81548173ffffffffffffffffffffffffffffffffffffffff021916908373ffffffffffffffffffffffffffffffffffffffff1602179055508173ffffffffffffffffffffffffffffffffffffffff168173ffffffffffffffffffffffffffffffffffffffff167f8be0079c531659141344cd1fd0a4f28419497f9722a3daafe3b4186f6b6457e060405160405180910390a35050565b828054620001b49062000285565b90600052602060002090601f016020900481019282620001d8576000855562000224565b82601f10620001f357805160ff191683800117855562000224565b8280016001018555821562000224579182015b828111156200022357825182559160200191906001019062000206565b5b50905062000233919062000237565b5090565b5b808211156200025257600081600090555060010162000238565b5090565b7f4e487b7100000000000000000000000000000000000000000000000000000000600052602260045260246000fd5b600060028204905060018216806200029e57607f821691505b60208210811415620002b557620002b462000256565b5b50919050565b61301c80620002cb6000396000f3fe608060405234801561001057600080fd5b506004361061014d5760003560e01c8063715018a6116100c3578063c87b56dd1161007c578063c87b56dd14610386578063d204c45e146103b6578063e985e9c5146103d2578063f2fde38b14610402578063f3d28f9b1461041e578063fbb909441461044e5761014d565b8063715018a6146102d85780638da5cb5b146102e257806392eb104c1461030057806395d89b4114610330578063a22cb4651461034e578063b88d4fde1461036a5761014d565b806340d097c31161011557806340d097c31461020857806342842e0e1461022457806342966c68146102405780634bf5be031461025c5780636352211e1461027857806370a08231146102a85761014d565b806301ffc9a71461015257806306fdde0314610182578063081812fc146101a0578063095ea7b3146101d057806323b872dd146101ec575b600080fd5b61016c60048036038101906101679190611eee565b61046a565b6040516101799190611f36565b60405180910390f35b61018a61054c565b6040516101979190611fea565b60405180910390f35b6101ba60048036038101906101b59190612042565b6105de565b6040516101c791906120b0565b60405180910390f35b6101ea60048036038101906101e591906120f7565b610624565b005b61020660048036038101906102019190612137565b61073c565b005b610222600480360381019061021d919061218a565b61079c565b005b61023e60048036038101906102399190612137565b6107ca565b005b61025a60048036038101906102559190612042565b6107ea565b005b610276600480360381019061027191906120f7565b610846565b005b610292600480360381019061028d9190612042565b61085d565b60405161029f91906120b0565b60405180910390f35b6102c260048036038101906102bd919061218a565b61090f565b6040516102cf91906121c6565b60405180910390f35b6102e06109c7565b005b6102ea6109db565b6040516102f791906120b0565b60405180910390f35b61031a60048036038101906103159190612042565b610a05565b60405161032791906120b0565b60405180910390f35b610338610a17565b6040516103459190611fea565b60405180910390f35b6103686004803603810190610363919061220d565b610aa9565b005b610384600480360381019061037f9190612382565b610abf565b005b6103a0600480360381019061039b9190612042565b610b21565b6040516103ad9190611fea565b60405180910390f35b6103d060048036038101906103cb91906124a6565b610b33565b005b6103ec60048036038101906103e79190612502565b610b6c565b6040516103f99190611f36565b60405180910390f35b61041c6004803603810190610417919061218a565b610c00565b005b61043860048036038101906104339190612042565b610c84565b6040516104459190611f36565b60405180910390f35b61046860048036038101906104639190612042565b610c8b565b005b60007f80ac58cd000000000000000000000000000000000000000000000000000000007bffffffffffffffffffffffffffffffffffffffffffffffffffffffff1916827bffffffffffffffffffffffffffffffffffffffffffffffffffffffff1916148061053557507f5b5e139f000000000000000000000000000000000000000000000000000000007bffffffffffffffffffffffffffffffffffffffffffffffffffffffff1916827bffffffffffffffffffffffffffffffffffffffffffffffffffffffff1916145b80610545575061054482610c96565b5b9050919050565b60606000805461055b90612571565b80601f016020809104026020016040519081016040528092919081815260200182805461058790612571565b80156105d45780601f106105a9576101008083540402835291602001916105d4565b820191906000526020600020905b8154815290600101906020018083116105b757829003601f168201915b5050505050905090565b60006105e982610d00565b6004600083815260200190815260200160002060009054906101000a900473ffffffffffffffffffffffffffffffffffffffff169050919050565b600061062f8261085d565b90508073ffffffffffffffffffffffffffffffffffffffff168373ffffffffffffffffffffffffffffffffffffffff1614156106a0576040517f08c379a000000000000000000000000000000000000000000000000000000000815260040161069790612615565b60405180910390fd5b8073ffffffffffffffffffffffffffffffffffffffff166106bf610d4b565b73ffffffffffffffffffffffffffffffffffffffff1614806106ee57506106ed816106e8610d4b565b610b6c565b5b61072d576040517f08c379a0000000000000000000000000000000000000000000000000000000008152600401610724906126a7565b60405180910390fd5b6107378383610d53565b505050565b61074d610747610d4b565b82610e0c565b61078c576040517f08c379a000000000000000000000000000000000000000000000000000000000815260040161078390612739565b60405180910390fd5b610797838383610ea1565b505050565b6107a4611108565b60006107b06008611186565b90506107bc6008611194565b6107c682826111aa565b5050565b6107e583838360405180602001604052806000815250610abf565b505050565b6107fb6107f5610d4b565b82610e0c565b61083a576040517f08c379a000000000000000000000000000000000000000000000000000000000815260040161083190612739565b60405180910390fd5b610843816111c8565b50565b61084e611108565b610859338383610ea1565b5050565b6000806002600084815260200190815260200160002060009054906101000a900473ffffffffffffffffffffffffffffffffffffffff169050600073ffffffffffffffffffffffffffffffffffffffff168173ffffffffffffffffffffffffffffffffffffffff161415610906576040517f08c379a00000000000000000000000000000000000000000000000000000000081526004016108fd906127a5565b60405180910390fd5b80915050919050565b60008073ffffffffffffffffffffffffffffffffffffffff168273ffffffffffffffffffffffffffffffffffffffff161415610980576040517f08c379a000000000000000000000000000000000000000000000000000000000815260040161097790612837565b60405180910390fd5b600360008373ffffffffffffffffffffffffffffffffffffffff1673ffffffffffffffffffffffffffffffffffffffff168152602001908152602001600020549050919050565b6109cf611108565b6109d960006111d4565b565b6000600760009054906101000a900473ffffffffffffffffffffffffffffffffffffffff16905090565b6000610a108261085d565b9050919050565b606060018054610a2690612571565b80601f0160208091040260200160405190810160405280929190818152602001828054610a5290612571565b8015610a9f5780601f10610a7457610100808354040283529160200191610a9f565b820191906000526020600020905b815481529060010190602001808311610a8257829003601f168201915b5050505050905090565b610abb610ab4610d4b565b838361129a565b5050565b610ad0610aca610d4b565b83610e0c565b610b0f576040517f08c379a0000000000000000000000000000000000000000000000000000000008152600401610b0690612739565b60405180910390fd5b610b1b84848484611407565b50505050565b6060610b2c82611463565b9050919050565b610b3b611108565b6000610b476008611186565b9050610b536008611194565b610b5d83826111aa565b610b678183611576565b505050565b6000600560008473ffffffffffffffffffffffffffffffffffffffff1673ffffffffffffffffffffffffffffffffffffffff16815260200190815260200160002060008373ffffffffffffffffffffffffffffffffffffffff1673ffffffffffffffffffffffffffffffffffffffff16815260200190815260200160002060009054906101000a900460ff16905092915050565b610c08611108565b600073ffffffffffffffffffffffffffffffffffffffff168173ffffffffffffffffffffffffffffffffffffffff161415610c78576040517f08c379a0000000000000000000000000000000000000000000000000000000008152600401610c6f906128c9565b60405180910390fd5b610c81816111d4565b50565b6000919050565b610c93611108565b50565b60007f01ffc9a7000000000000000000000000000000000000000000000000000000007bffffffffffffffffffffffffffffffffffffffffffffffffffffffff1916827bffffffffffffffffffffffffffffffffffffffffffffffffffffffff1916149050919050565b610d09816115ea565b610d48576040517f08c379a0000000000000000000000000000000000000000000000000000000008152600401610d3f906127a5565b60405180910390fd5b50565b600033905090565b816004600083815260200190815260200160002060006101000a81548173ffffffffffffffffffffffffffffffffffffffff021916908373ffffffffffffffffffffffffffffffffffffffff160217905550808273ffffffffffffffffffffffffffffffffffffffff16610dc68361085d565b73ffffffffffffffffffffffffffffffffffffffff167f8c5be1e5ebec7d5bd14f71427d1e84f3dd0314c0f7b2291e5b200ac8c7c3b92560405160405180910390a45050565b600080610e188361085d565b90508073ffffffffffffffffffffffffffffffffffffffff168473ffffffffffffffffffffffffffffffffffffffff161480610e5a5750610e598185610b6c565b5b80610e9857508373ffffffffffffffffffffffffffffffffffffffff16610e80846105de565b73ffffffffffffffffffffffffffffffffffffffff16145b91505092915050565b8273ffffffffffffffffffffffffffffffffffffffff16610ec18261085d565b73ffffffffffffffffffffffffffffffffffffffff1614610f17576040517f08c379a0000000000000000000000000000000000000000000000000000000008152600401610f0e9061295b565b60405180910390fd5b600073ffffffffffffffffffffffffffffffffffffffff168273ffffffffffffffffffffffffffffffffffffffff161415610f87576040517f08c379a0000000000000000000000000000000000000000000000000000000008152600401610f7e906129ed565b60405180910390fd5b610f92838383611656565b610f9d600082610d53565b6001600360008573ffffffffffffffffffffffffffffffffffffffff1673ffffffffffffffffffffffffffffffffffffffff1681526020019081526020016000206000828254610fed9190612a3c565b925050819055506001600360008473ffffffffffffffffffffffffffffffffffffffff1673ffffffffffffffffffffffffffffffffffffffff16815260200190815260200160002060008282546110449190612a70565b92505081905550816002600083815260200190815260200160002060006101000a81548173ffffffffffffffffffffffffffffffffffffffff021916908373ffffffffffffffffffffffffffffffffffffffff160217905550808273ffffffffffffffffffffffffffffffffffffffff168473ffffffffffffffffffffffffffffffffffffffff167fddf252ad1be2c89b69c2b068fc378daa952ba7f163c4a11628f55a4df523b3ef60405160405180910390a461110383838361165b565b505050565b611110610d4b565b73ffffffffffffffffffffffffffffffffffffffff1661112e6109db565b73ffffffffffffffffffffffffffffffffffffffff1614611184576040517f08c379a000000000000000000000000000000000000000000000000000000000815260040161117b90612b12565b60405180910390fd5b565b600081600001549050919050565b6001816000016000828254019250508190555050565b6111c4828260405180602001604052806000815250611660565b5050565b6111d1816116bb565b50565b6000600760009054906101000a900473ffffffffffffffffffffffffffffffffffffffff16905081600760006101000a81548173ffffffffffffffffffffffffffffffffffffffff021916908373ffffffffffffffffffffffffffffffffffffffff1602179055508173ffffffffffffffffffffffffffffffffffffffff168173ffffffffffffffffffffffffffffffffffffffff167f8be0079c531659141344cd1fd0a4f28419497f9722a3daafe3b4186f6b6457e060405160405180910390a35050565b8173ffffffffffffffffffffffffffffffffffffffff168373ffffffffffffffffffffffffffffffffffffffff161415611309576040517f08c379a000000000000000000000000000000000000000000000000000000000815260040161130090612b7e565b60405180910390fd5b80600560008573ffffffffffffffffffffffffffffffffffffffff1673ffffffffffffffffffffffffffffffffffffffff16815260200190815260200160002060008473ffffffffffffffffffffffffffffffffffffffff1673ffffffffffffffffffffffffffffffffffffffff16815260200190815260200160002060006101000a81548160ff0219169083151502179055508173ffffffffffffffffffffffffffffffffffffffff168373ffffffffffffffffffffffffffffffffffffffff167f17307eab39ab6107e8899845ad3d59bd9653f200f220920489ca2b5937696c31836040516113fa9190611f36565b60405180910390a3505050565b611412848484610ea1565b61141e8484848461170e565b61145d576040517f08c379a000000000000000000000000000000000000000000000000000000000815260040161145490612c10565b60405180910390fd5b50505050565b606061146e82610d00565b600060066000848152602001908152602001600020805461148e90612571565b80601f01602080910402602001604051908101604052809291908181526020018280546114ba90612571565b80156115075780601f106114dc57610100808354040283529160200191611507565b820191906000526020600020905b8154815290600101906020018083116114ea57829003601f168201915b5050505050905060006115186118a5565b905060008151141561152e578192505050611571565b60008251111561156357808260405160200161154b929190612c6c565b60405160208183030381529060405292505050611571565b61156c846118bc565b925050505b919050565b61157f826115ea565b6115be576040517f08c379a00000000000000000000000000000000000000000000000000000000081526004016115b590612d02565b60405180910390fd5b806006600084815260200190815260200160002090805190602001906115e5929190611d9f565b505050565b60008073ffffffffffffffffffffffffffffffffffffffff166002600084815260200190815260200160002060009054906101000a900473ffffffffffffffffffffffffffffffffffffffff1673ffffffffffffffffffffffffffffffffffffffff1614159050919050565b505050565b505050565b61166a8383611924565b611677600084848461170e565b6116b6576040517f08c379a00000000000000000000000000000000000000000000000000000000081526004016116ad90612c10565b60405180910390fd5b505050565b6116c481611afe565b60006006600083815260200190815260200160002080546116e490612571565b90501461170b5760066000828152602001908152602001600020600061170a9190611e25565b5b50565b600061172f8473ffffffffffffffffffffffffffffffffffffffff16611c1b565b15611898578373ffffffffffffffffffffffffffffffffffffffff1663150b7a02611758610d4b565b8786866040518563ffffffff1660e01b815260040161177a9493929190612d77565b602060405180830381600087803b15801561179457600080fd5b505af19250505080156117c557506040513d601f19601f820116820180604052508101906117c29190612dd8565b60015b611848573d80600081146117f5576040519150601f19603f3d011682016040523d82523d6000602084013e6117fa565b606091505b50600081511415611840576040517f08c379a000000000000000000000000000000000000000000000000000000000815260040161183790612c10565b60405180910390fd5b805181602001fd5b63150b7a0260e01b7bffffffffffffffffffffffffffffffffffffffffffffffffffffffff1916817bffffffffffffffffffffffffffffffffffffffffffffffffffffffff19161491505061189d565b600190505b949350505050565b606060405180602001604052806000815250905090565b60606118c782610d00565b60006118d16118a5565b905060008151116118f1576040518060200160405280600081525061191c565b806118fb84611c3e565b60405160200161190c929190612c6c565b6040516020818303038152906040525b915050919050565b600073ffffffffffffffffffffffffffffffffffffffff168273ffffffffffffffffffffffffffffffffffffffff161415611994576040517f08c379a000000000000000000000000000000000000000000000000000000000815260040161198b90612e51565b60405180910390fd5b61199d816115ea565b156119dd576040517f08c379a00000000000000000000000000000000000000000000000000000000081526004016119d490612ebd565b60405180910390fd5b6119e960008383611656565b6001600360008473ffffffffffffffffffffffffffffffffffffffff1673ffffffffffffffffffffffffffffffffffffffff1681526020019081526020016000206000828254611a399190612a70565b92505081905550816002600083815260200190815260200160002060006101000a81548173ffffffffffffffffffffffffffffffffffffffff021916908373ffffffffffffffffffffffffffffffffffffffff160217905550808273ffffffffffffffffffffffffffffffffffffffff16600073ffffffffffffffffffffffffffffffffffffffff167fddf252ad1be2c89b69c2b068fc378daa952ba7f163c4a11628f55a4df523b3ef60405160405180910390a4611afa6000838361165b565b5050565b6000611b098261085d565b9050611b1781600084611656565b611b22600083610d53565b6001600360008373ffffffffffffffffffffffffffffffffffffffff1673ffffffffffffffffffffffffffffffffffffffff1681526020019081526020016000206000828254611b729190612a3c565b925050819055506002600083815260200190815260200160002060006101000a81549073ffffffffffffffffffffffffffffffffffffffff021916905581600073ffffffffffffffffffffffffffffffffffffffff168273ffffffffffffffffffffffffffffffffffffffff167fddf252ad1be2c89b69c2b068fc378daa952ba7f163c4a11628f55a4df523b3ef60405160405180910390a4611c178160008461165b565b5050565b6000808273ffffffffffffffffffffffffffffffffffffffff163b119050919050565b60606000821415611c86576040518060400160405280600181526020017f30000000000000000000000000000000000000000000000000000000000000008152509050611d9a565b600082905060005b60008214611cb8578080611ca190612edd565b915050600a82611cb19190612f55565b9150611c8e565b60008167ffffffffffffffff811115611cd457611cd3612257565b5b6040519080825280601f01601f191660200182016040528015611d065781602001600182028036833780820191505090505b5090505b60008514611d9357600182611d1f9190612a3c565b9150600a85611d2e9190612f86565b6030611d3a9190612a70565b60f81b818381518110611d5057611d4f612fb7565b5b60200101907effffffffffffffffffffffffffffffffffffffffffffffffffffffffffffff1916908160001a905350600a85611d8c9190612f55565b9450611d0a565b8093505050505b919050565b828054611dab90612571565b90600052602060002090601f016020900481019282611dcd5760008555611e14565b82601f10611de657805160ff1916838001178555611e14565b82800160010185558215611e14579182015b82811115611e13578251825591602001919060010190611df8565b5b509050611e219190611e65565b5090565b508054611e3190612571565b6000825580601f10611e435750611e62565b601f016020900490600052602060002090810190611e619190611e65565b5b50565b5b80821115611e7e576000816000905550600101611e66565b5090565b6000604051905090565b600080fd5b600080fd5b60007fffffffff0000000000000000000000000000000000000000000000000000000082169050919050565b611ecb81611e96565b8114611ed657600080fd5b50565b600081359050611ee881611ec2565b92915050565b600060208284031215611f0457611f03611e8c565b5b6000611f1284828501611ed9565b91505092915050565b60008115159050919050565b611f3081611f1b565b82525050565b6000602082019050611f4b6000830184611f27565b92915050565b600081519050919050565b600082825260208201905092915050565b60005b83811015611f8b578082015181840152602081019050611f70565b83811115611f9a576000848401525b50505050565b6000601f19601f8301169050919050565b6000611fbc82611f51565b611fc68185611f5c565b9350611fd6818560208601611f6d565b611fdf81611fa0565b840191505092915050565b600060208201905081810360008301526120048184611fb1565b905092915050565b6000819050919050565b61201f8161200c565b811461202a57600080fd5b50565b60008135905061203c81612016565b92915050565b60006020828403121561205857612057611e8c565b5b60006120668482850161202d565b91505092915050565b600073ffffffffffffffffffffffffffffffffffffffff82169050919050565b600061209a8261206f565b9050919050565b6120aa8161208f565b82525050565b60006020820190506120c560008301846120a1565b92915050565b6120d48161208f565b81146120df57600080fd5b50565b6000813590506120f1816120cb565b92915050565b6000806040838503121561210e5761210d611e8c565b5b600061211c858286016120e2565b925050602061212d8582860161202d565b9150509250929050565b6000806000606084860312156121505761214f611e8c565b5b600061215e868287016120e2565b935050602061216f868287016120e2565b92505060406121808682870161202d565b9150509250925092565b6000602082840312156121a05761219f611e8c565b5b60006121ae848285016120e2565b91505092915050565b6121c08161200c565b82525050565b60006020820190506121db60008301846121b7565b92915050565b6121ea81611f1b565b81146121f557600080fd5b50565b600081359050612207816121e1565b92915050565b6000806040838503121561222457612223611e8c565b5b6000612232858286016120e2565b9250506020612243858286016121f8565b9150509250929050565b600080fd5b600080fd5b7f4e487b7100000000000000000000000000000000000000000000000000000000600052604160045260246000fd5b61228f82611fa0565b810181811067ffffffffffffffff821117156122ae576122ad612257565b5b80604052505050565b60006122c1611e82565b90506122cd8282612286565b919050565b600067ffffffffffffffff8211156122ed576122ec612257565b5b6122f682611fa0565b9050602081019050919050565b82818337600083830152505050565b6000612325612320846122d2565b6122b7565b90508281526020810184848401111561234157612340612252565b5b61234c848285612303565b509392505050565b600082601f8301126123695761236861224d565b5b8135612379848260208601612312565b91505092915050565b6000806000806080858703121561239c5761239b611e8c565b5b60006123aa878288016120e2565b94505060206123bb878288016120e2565b93505060406123cc8782880161202d565b925050606085013567ffffffffffffffff8111156123ed576123ec611e91565b5b6123f987828801612354565b91505092959194509250565b600067ffffffffffffffff8211156124205761241f612257565b5b61242982611fa0565b9050602081019050919050565b600061244961244484612405565b6122b7565b90508281526020810184848401111561246557612464612252565b5b612470848285612303565b509392505050565b600082601f83011261248d5761248c61224d565b5b813561249d848260208601612436565b91505092915050565b600080604083850312156124bd576124bc611e8c565b5b60006124cb858286016120e2565b925050602083013567ffffffffffffffff8111156124ec576124eb611e91565b5b6124f885828601612478565b9150509250929050565b6000806040838503121561251957612518611e8c565b5b6000612527858286016120e2565b9250506020612538858286016120e2565b9150509250929050565b7f4e487b7100000000000000000000000000000000000000000000000000000000600052602260045260246000fd5b6000600282049050600182168061258957607f821691505b6020821081141561259d5761259c612542565b5b50919050565b7f4552433732313a20617070726f76616c20746f2063757272656e74206f776e6560008201527f7200000000000000000000000000000000000000000000000000000000000000602082015250565b60006125ff602183611f5c565b915061260a826125a3565b604082019050919050565b6000602082019050818103600083015261262e816125f2565b9050919050565b7f4552433732313a20617070726f76652063616c6c6572206973206e6f7420746f60008201527f6b656e206f776e6572206e6f7220617070726f76656420666f7220616c6c0000602082015250565b6000612691603e83611f5c565b915061269c82612635565b604082019050919050565b600060208201905081810360008301526126c081612684565b9050919050565b7f4552433732313a2063616c6c6572206973206e6f7420746f6b656e206f776e6560008201527f72206e6f7220617070726f766564000000000000000000000000000000000000602082015250565b6000612723602e83611f5c565b915061272e826126c7565b604082019050919050565b6000602082019050818103600083015261275281612716565b9050919050565b7f4552433732313a20696e76616c696420746f6b656e2049440000000000000000600082015250565b600061278f601883611f5c565b915061279a82612759565b602082019050919050565b600060208201905081810360008301526127be81612782565b9050919050565b7f4552433732313a2061646472657373207a65726f206973206e6f74206120766160008201527f6c6964206f776e65720000000000000000000000000000000000000000000000602082015250565b6000612821602983611f5c565b915061282c826127c5565b604082019050919050565b6000602082019050818103600083015261285081612814565b9050919050565b7f4f776e61626c653a206e6577206f776e657220697320746865207a65726f206160008201527f6464726573730000000000000000000000000000000000000000000000000000602082015250565b60006128b3602683611f5c565b91506128be82612857565b604082019050919050565b600060208201905081810360008301526128e2816128a6565b9050919050565b7f4552433732313a207472616e736665722066726f6d20696e636f72726563742060008201527f6f776e6572000000000000000000000000000000000000000000000000000000602082015250565b6000612945602583611f5c565b9150612950826128e9565b604082019050919050565b6000602082019050818103600083015261297481612938565b9050919050565b7f4552433732313a207472616e7366657220746f20746865207a65726f2061646460008201527f7265737300000000000000000000000000000000000000000000000000000000602082015250565b60006129d7602483611f5c565b91506129e28261297b565b604082019050919050565b60006020820190508181036000830152612a06816129ca565b9050919050565b7f4e487b7100000000000000000000000000000000000000000000000000000000600052601160045260246000fd5b6000612a478261200c565b9150612a528361200c565b925082821015612a6557612a64612a0d565b5b828203905092915050565b6000612a7b8261200c565b9150612a868361200c565b9250827fffffffffffffffffffffffffffffffffffffffffffffffffffffffffffffffff03821115612abb57612aba612a0d565b5b828201905092915050565b7f4f776e61626c653a2063616c6c6572206973206e6f7420746865206f776e6572600082015250565b6000612afc602083611f5c565b9150612b0782612ac6565b602082019050919050565b60006020820190508181036000830152612b2b81612aef565b9050919050565b7f4552433732313a20617070726f766520746f2063616c6c657200000000000000600082015250565b6000612b68601983611f5c565b9150612b7382612b32565b602082019050919050565b60006020820190508181036000830152612b9781612b5b565b9050919050565b7f4552433732313a207472616e7366657220746f206e6f6e20455243373231526560008201527f63656976657220696d706c656d656e7465720000000000000000000000000000602082015250565b6000612bfa603283611f5c565b9150612c0582612b9e565b604082019050919050565b60006020820190508181036000830152612c2981612bed565b9050919050565b600081905092915050565b6000612c4682611f51565b612c508185612c30565b9350612c60818560208601611f6d565b80840191505092915050565b6000612c788285612c3b565b9150612c848284612c3b565b91508190509392505050565b7f45524337323155524953746f726167653a2055524920736574206f66206e6f6e60008201527f6578697374656e7420746f6b656e000000000000000000000000000000000000602082015250565b6000612cec602e83611f5c565b9150612cf782612c90565b604082019050919050565b60006020820190508181036000830152612d1b81612cdf565b9050919050565b600081519050919050565b600082825260208201905092915050565b6000612d4982612d22565b612d538185612d2d565b9350612d63818560208601611f6d565b612d6c81611fa0565b840191505092915050565b6000608082019050612d8c60008301876120a1565b612d9960208301866120a1565b612da660408301856121b7565b8181036060830152612db88184612d3e565b905095945050505050565b600081519050612dd281611ec2565b92915050565b600060208284031215612dee57612ded611e8c565b5b6000612dfc84828501612dc3565b91505092915050565b7f4552433732313a206d696e7420746f20746865207a65726f2061646472657373600082015250565b6000612e3b602083611f5c565b9150612e4682612e05565b602082019050919050565b60006020820190508181036000830152612e6a81612e2e565b9050919050565b7f4552433732313a20746f6b656e20616c7265616479206d696e74656400000000600082015250565b6000612ea7601c83611f5c565b9150612eb282612e71565b602082019050919050565b60006020820190508181036000830152612ed681612e9a565b9050919050565b6000612ee88261200c565b91507fffffffffffffffffffffffffffffffffffffffffffffffffffffffffffffffff821415612f1b57612f1a612a0d565b5b600182019050919050565b7f4e487b7100000000000000000000000000000000000000000000000000000000600052601260045260246000fd5b6000612f608261200c565b9150612f6b8361200c565b925082612f7b57612f7a612f26565b5b828204905092915050565b6000612f918261200c565b9150612f9c8361200c565b925082612fac57612fab612f26565b5b828206905092915050565b7f4e487b7100000000000000000000000000000000000000000000000000000000600052603260045260246000fdfea2646970667358221220eac612041f548025f12b124c077321a3e5d0114d7e617f990b6ed2209b30620364736f6c63430008090033",
  "linkReferences": {},
  "deployedLinkReferences": {}
}