{
  "_format": "hh-sol-artifact-1",
  "contractName": "Warranty",
  "sourceName": "contracts/Warranty.sol",
  "abi": [
    {
      "inputs": [],
      "stateMutability": "nonpayable",
      "type": "constructor"
    },
    {
      "anonymous": false,
      "inputs": [
        {
          "indexed": true,
          "internalType": "address",
          "name": "owner",
          "type": "address"
        },
        {
          "indexed": true,
          "internalType": "address",
          "name": "approved",
          "type": "address"
        },
        {
          "indexed": true,
          "internalType": "uint256",
          "name": "tokenId",
          "type": "uint256"
        }
      ],
      "name": "Approval",
      "type": "event"
    },
    {
      "anonymous": false,
      "inputs": [
        {
          "indexed": true,
          "internalType": "address",
          "name": "owner",
          "type": "address"
        },
        {
          "indexed": true,
          "internalType": "address",
          "name": "operator",
          "type": "address"
        },
        {
          "indexed": false,
          "internalType": "bool",
          "name": "approved",
          "type": "bool"
        }
      ],
      "name": "ApprovalForAll",
      "type": "event"
    },
    {
      "anonymous": false,
      "inputs": [
        {
          "indexed": true,
          "internalType": "address",
          "name": "previousOwner",
          "type": "address"
        },
        {
          "indexed": true,
          "internalType": "address",
          "name": "newOwner",
          "type": "address"
        }
      ],
      "name": "OwnershipTransferred",
      "type": "event"
    },
    {
      "anonymous": false,
      "inputs": [
        {
          "indexed": true,
          "internalType": "address",
          "name": "from",
          "type": "address"
        },
        {
          "indexed": true,
          "internalType": "address",
          "name": "to",
          "type": "address"
        },
        {
          "indexed": true,
          "internalType": "uint256",
          "name": "tokenId",
          "type": "uint256"
        }
      ],
      "name": "Transfer",
      "type": "event"
    },
    {
      "inputs": [
        {
          "internalType": "address",
          "name": "to",
          "type": "address"
        },
        {
          "internalType": "uint256",
          "name": "tokenId",
          "type": "uint256"
        }
      ],
      "name": "approve",
      "outputs": [],
      "stateMutability": "nonpayable",
      "type": "function"
    },
    {
      "inputs": [
        {
          "internalType": "address",
          "name": "owner",
          "type": "address"
        }
      ],
      "name": "balanceOf",
      "outputs": [
        {
          "internalType": "uint256",
          "name": "",
          "type": "uint256"
        }
      ],
      "stateMutability": "view",
      "type": "function"
    },
    {
      "inputs": [
        {
          "internalType": "uint256",
          "name": "tokenId",
          "type": "uint256"
        }
      ],
      "name": "burn",
      "outputs": [],
      "stateMutability": "nonpayable",
      "type": "function"
    },
    {
      "inputs": [
        {
          "internalType": "uint256",
          "name": "tokenId",
          "type": "uint256"
        }
      ],
      "name": "decayWarranty",
      "outputs": [],
      "stateMutability": "nonpayable",
      "type": "function"
    },
    {
      "inputs": [
        {
          "internalType": "uint256",
          "name": "tokenId",
          "type": "uint256"
        }
      ],
      "name": "getApproved",
      "outputs": [
        {
          "internalType": "address",
          "name": "",
          "type": "address"
        }
      ],
      "stateMutability": "view",
      "type": "function"
    },
    {
      "inputs": [
        {
          "internalType": "address",
          "name": "owner",
          "type": "address"
        },
        {
          "internalType": "address",
          "name": "operator",
          "type": "address"
        }
      ],
      "name": "isApprovedForAll",
      "outputs": [
        {
          "internalType": "bool",
          "name": "",
          "type": "bool"
        }
      ],
      "stateMutability": "view",
      "type": "function"
    },
    {
      "inputs": [],
      "name": "name",
      "outputs": [
        {
          "internalType": "string",
          "name": "",
          "type": "string"
        }
      ],
      "stateMutability": "view",
      "type": "function"
    },
    {
      "inputs": [],
      "name": "owner",
      "outputs": [
        {
          "internalType": "address",
          "name": "",
          "type": "address"
        }
      ],
      "stateMutability": "view",
      "type": "function"
    },
    {
      "inputs": [
        {
          "internalType": "uint256",
          "name": "tokenId",
          "type": "uint256"
        }
      ],
      "name": "ownerOf",
      "outputs": [
        {
          "internalType": "address",
          "name": "",
          "type": "address"
        }
      ],
      "stateMutability": "view",
      "type": "function"
    },
    {
      "inputs": [],
      "name": "renounceOwnership",
      "outputs": [],
      "stateMutability": "nonpayable",
      "type": "function"
    },
    {
      "inputs": [
        {
          "internalType": "address",
          "name": "to",
          "type": "address"
        }
      ],
      "name": "safeMint",
      "outputs": [],
      "stateMutability": "nonpayable",
      "type": "function"
    },
    {
      "inputs": [
        {
          "internalType": "address",
          "name": "to",
          "type": "address"
        },
        {
          "internalType": "string",
          "name": "uri",
          "type": "string"
        }
      ],
      "name": "safeMint",
      "outputs": [],
      "stateMutability": "nonpayable",
      "type": "function"
    },
    {
      "inputs": [
        {
          "internalType": "address",
          "name": "from",
          "type": "address"
        },
        {
          "internalType": "address",
          "name": "to",
          "type": "address"
        },
        {
          "internalType": "uint256",
          "name": "tokenId",
          "type": "uint256"
        }
      ],
      "name": "safeTransferFrom",
      "outputs": [],
      "stateMutability": "nonpayable",
      "type": "function"
    },
    {
      "inputs": [
        {
          "internalType": "address",
          "name": "from",
          "type": "address"
        },
        {
          "internalType": "address",
          "name": "to",
          "type": "address"
        },
        {
          "internalType": "uint256",
          "name": "tokenId",
          "type": "uint256"
        },
        {
          "internalType": "bytes",
          "name": "data",
          "type": "bytes"
        }
      ],
      "name": "safeTransferFrom",
      "outputs": [],
      "stateMutability": "nonpayable",
      "type": "function"
    },
    {
      "inputs": [
        {
          "internalType": "address",
          "name": "operator",
          "type": "address"
        },
        {
          "internalType": "bool",
          "name": "approved",
          "type": "bool"
        }
      ],
      "name": "setApprovalForAll",
      "outputs": [],
      "stateMutability": "nonpayable",
      "type": "function"
    },
    {
      "inputs": [
        {
          "internalType": "bytes4",
          "name": "interfaceId",
          "type": "bytes4"
        }
      ],
      "name": "supportsInterface",
      "outputs": [
        {
          "internalType": "bool",
          "name": "",
          "type": "bool"
        }
      ],
      "stateMutability": "view",
      "type": "function"
    },
    {
      "inputs": [],
      "name": "symbol",
      "outputs": [
        {
          "internalType": "string",
          "name": "",
          "type": "string"
        }
      ],
      "stateMutability": "view",
      "type": "function"
    },
    {
      "inputs": [
        {
          "internalType": "uint256",
          "name": "tokenId",
          "type": "uint256"
        }
      ],
      "name": "tokenURI",
      "outputs": [
        {
          "internalType": "string",
          "name": "",
          "type": "string"
        }
      ],
      "stateMutability": "view",
      "type": "function"
    },
    {
      "inputs": [
        {
          "internalType": "address",
          "name": "from",
          "type": "address"
        },
        {
          "internalType": "address",
          "name": "to",
          "type": "address"
        },
        {
          "internalType": "uint256",
          "name": "tokenId",
          "type": "uint256"
        }
      ],
      "name": "transferFrom",
      "outputs": [],
      "stateMutability": "nonpayable",
      "type": "function"
    },
    {
      "inputs": [
        {
          "internalType": "address",
          "name": "newOwner",
          "type": "address"
        }
      ],
      "name": "transferOwnership",
      "outputs": [],
      "stateMutability": "nonpayable",
      "type": "function"
    },
    {
      "inputs": [
        {
          "internalType": "address",
          "name": "to",
          "type": "address"
        },
        {
          "internalType": "uint256",
          "name": "tokenId",
          "type": "uint256"
        }
      ],
      "name": "transferWarranty",
      "outputs": [],
      "stateMutability": "nonpayable",
      "type": "function"
    },
    {
      "inputs": [
        {
          "internalType": "uint256",
          "name": "tokenId",
          "type": "uint256"
        }
      ],
      "name": "viewOwner",
      "outputs": [
        {
          "internalType": "address",
          "name": "",
          "type": "address"
        }
      ],
      "stateMutability": "view",
      "type": "function"
    }
  ],
  "bytecode": "0x60806040523480156200001157600080fd5b506040518060400160405280600881526020017f57617272616e74790000000000000000000000000000000000000000000000008152506040518060400160405280600381526020017f5244430000000000000000000000000000000000000000000000000000000000815250816000908051906020019062000096929190620001a6565b508060019080519060200190620000af929190620001a6565b505050620000d2620000c6620000d860201b60201c565b620000e060201b60201c565b620002bb565b600033905090565b6000600760009054906101000a900473ffffffffffffffffffffffffffffffffffffffff16905081600760006101000a81548173ffffffffffffffffffffffffffffffffffffffff021916908373ffffffffffffffffffffffffffffffffffffffff1602179055508173ffffffffffffffffffffffffffffffffffffffff168173ffffffffffffffffffffffffffffffffffffffff167f8be0079c531659141344cd1fd0a4f28419497f9722a3daafe3b4186f6b6457e060405160405180910390a35050565b828054620001b49062000285565b90600052602060002090601f016020900481019282620001d8576000855562000224565b82601f10620001f357805160ff191683800117855562000224565b8280016001018555821562000224579182015b828111156200022357825182559160200191906001019062000206565b5b50905062000233919062000237565b5090565b5b808211156200025257600081600090555060010162000238565b5090565b7f4e487b7100000000000000000000000000000000000000000000000000000000600052602260045260246000fd5b600060028204905060018216806200029e57607f821691505b60208210811415620002b557620002b462000256565b5b50919050565b612fe380620002cb6000396000f3fe608060405234801561001057600080fd5b50600436106101425760003560e01c8063715018a6116100b8578063b88d4fde1161007c578063b88d4fde1461035f578063c87b56dd1461037b578063d204c45e146103ab578063e985e9c5146103c7578063f2fde38b146103f7578063fbb909441461041357610142565b8063715018a6146102cd5780638da5cb5b146102d757806392eb104c146102f557806395d89b4114610325578063a22cb4651461034357610142565b806340d097c31161010a57806340d097c3146101fd57806342842e0e1461021957806342966c68146102355780634bf5be03146102515780636352211e1461026d57806370a082311461029d57610142565b806301ffc9a71461014757806306fdde0314610177578063081812fc14610195578063095ea7b3146101c557806323b872dd146101e1575b600080fd5b610161600480360381019061015c9190611eb5565b61042f565b60405161016e9190611efd565b60405180910390f35b61017f610511565b60405161018c9190611fb1565b60405180910390f35b6101af60048036038101906101aa9190612009565b6105a3565b6040516101bc9190612077565b60405180910390f35b6101df60048036038101906101da91906120be565b6105e9565b005b6101fb60048036038101906101f691906120fe565b610701565b005b61021760048036038101906102129190612151565b610761565b005b610233600480360381019061022e91906120fe565b61078f565b005b61024f600480360381019061024a9190612009565b6107af565b005b61026b600480360381019061026691906120be565b61080b565b005b61028760048036038101906102829190612009565b610822565b6040516102949190612077565b60405180910390f35b6102b760048036038101906102b29190612151565b6108d4565b6040516102c4919061218d565b60405180910390f35b6102d561098c565b005b6102df6109a0565b6040516102ec9190612077565b60405180910390f35b61030f600480360381019061030a9190612009565b6109ca565b60405161031c9190612077565b60405180910390f35b61032d6109dc565b60405161033a9190611fb1565b60405180910390f35b61035d600480360381019061035891906121d4565b610a6e565b005b61037960048036038101906103749190612349565b610a84565b005b61039560048036038101906103909190612009565b610ae6565b6040516103a29190611fb1565b60405180910390f35b6103c560048036038101906103c0919061246d565b610af8565b005b6103e160048036038101906103dc91906124c9565b610b31565b6040516103ee9190611efd565b60405180910390f35b610411600480360381019061040c9190612151565b610bc5565b005b61042d60048036038101906104289190612009565b610c49565b005b60007f80ac58cd000000000000000000000000000000000000000000000000000000007bffffffffffffffffffffffffffffffffffffffffffffffffffffffff1916827bffffffffffffffffffffffffffffffffffffffffffffffffffffffff191614806104fa57507f5b5e139f000000000000000000000000000000000000000000000000000000007bffffffffffffffffffffffffffffffffffffffffffffffffffffffff1916827bffffffffffffffffffffffffffffffffffffffffffffffffffffffff1916145b8061050a575061050982610c5d565b5b9050919050565b60606000805461052090612538565b80601f016020809104026020016040519081016040528092919081815260200182805461054c90612538565b80156105995780601f1061056e57610100808354040283529160200191610599565b820191906000526020600020905b81548152906001019060200180831161057c57829003601f168201915b5050505050905090565b60006105ae82610cc7565b6004600083815260200190815260200160002060009054906101000a900473ffffffffffffffffffffffffffffffffffffffff169050919050565b60006105f482610822565b90508073ffffffffffffffffffffffffffffffffffffffff168373ffffffffffffffffffffffffffffffffffffffff161415610665576040517f08c379a000000000000000000000000000000000000000000000000000000000815260040161065c906125dc565b60405180910390fd5b8073ffffffffffffffffffffffffffffffffffffffff16610684610d12565b73ffffffffffffffffffffffffffffffffffffffff1614806106b357506106b2816106ad610d12565b610b31565b5b6106f2576040517f08c379a00000000000000000000000000000000000000000000000000000000081526004016106e99061266e565b60405180910390fd5b6106fc8383610d1a565b505050565b61071261070c610d12565b82610dd3565b610751576040517f08c379a000000000000000000000000000000000000000000000000000000000815260040161074890612700565b60405180910390fd5b61075c838383610e68565b505050565b6107696110cf565b6000610775600861114d565b9050610781600861115b565b61078b8282611171565b5050565b6107aa83838360405180602001604052806000815250610a84565b505050565b6107c06107ba610d12565b82610dd3565b6107ff576040517f08c379a00000000000000000000000000000000000000000000000000000000081526004016107f690612700565b60405180910390fd5b6108088161118f565b50565b6108136110cf565b61081e338383610e68565b5050565b6000806002600084815260200190815260200160002060009054906101000a900473ffffffffffffffffffffffffffffffffffffffff169050600073ffffffffffffffffffffffffffffffffffffffff168173ffffffffffffffffffffffffffffffffffffffff1614156108cb576040517f08c379a00000000000000000000000000000000000000000000000000000000081526004016108c29061276c565b60405180910390fd5b80915050919050565b60008073ffffffffffffffffffffffffffffffffffffffff168273ffffffffffffffffffffffffffffffffffffffff161415610945576040517f08c379a000000000000000000000000000000000000000000000000000000000815260040161093c906127fe565b60405180910390fd5b600360008373ffffffffffffffffffffffffffffffffffffffff1673ffffffffffffffffffffffffffffffffffffffff168152602001908152602001600020549050919050565b6109946110cf565b61099e600061119b565b565b6000600760009054906101000a900473ffffffffffffffffffffffffffffffffffffffff16905090565b60006109d582610822565b9050919050565b6060600180546109eb90612538565b80601f0160208091040260200160405190810160405280929190818152602001828054610a1790612538565b8015610a645780601f10610a3957610100808354040283529160200191610a64565b820191906000526020600020905b815481529060010190602001808311610a4757829003601f168201915b5050505050905090565b610a80610a79610d12565b8383611261565b5050565b610a95610a8f610d12565b83610dd3565b610ad4576040517f08c379a0000000000000000000000000000000000000000000000000000000008152600401610acb90612700565b60405180910390fd5b610ae0848484846113ce565b50505050565b6060610af18261142a565b9050919050565b610b006110cf565b6000610b0c600861114d565b9050610b18600861115b565b610b228382611171565b610b2c818361153d565b505050565b6000600560008473ffffffffffffffffffffffffffffffffffffffff1673ffffffffffffffffffffffffffffffffffffffff16815260200190815260200160002060008373ffffffffffffffffffffffffffffffffffffffff1673ffffffffffffffffffffffffffffffffffffffff16815260200190815260200160002060009054906101000a900460ff16905092915050565b610bcd6110cf565b600073ffffffffffffffffffffffffffffffffffffffff168173ffffffffffffffffffffffffffffffffffffffff161415610c3d576040517f08c379a0000000000000000000000000000000000000000000000000000000008152600401610c3490612890565b60405180910390fd5b610c468161119b565b50565b610c516110cf565b610c5a8161118f565b50565b60007f01ffc9a7000000000000000000000000000000000000000000000000000000007bffffffffffffffffffffffffffffffffffffffffffffffffffffffff1916827bffffffffffffffffffffffffffffffffffffffffffffffffffffffff1916149050919050565b610cd0816115b1565b610d0f576040517f08c379a0000000000000000000000000000000000000000000000000000000008152600401610d069061276c565b60405180910390fd5b50565b600033905090565b816004600083815260200190815260200160002060006101000a81548173ffffffffffffffffffffffffffffffffffffffff021916908373ffffffffffffffffffffffffffffffffffffffff160217905550808273ffffffffffffffffffffffffffffffffffffffff16610d8d83610822565b73ffffffffffffffffffffffffffffffffffffffff167f8c5be1e5ebec7d5bd14f71427d1e84f3dd0314c0f7b2291e5b200ac8c7c3b92560405160405180910390a45050565b600080610ddf83610822565b90508073ffffffffffffffffffffffffffffffffffffffff168473ffffffffffffffffffffffffffffffffffffffff161480610e215750610e208185610b31565b5b80610e5f57508373ffffffffffffffffffffffffffffffffffffffff16610e47846105a3565b73ffffffffffffffffffffffffffffffffffffffff16145b91505092915050565b8273ffffffffffffffffffffffffffffffffffffffff16610e8882610822565b73ffffffffffffffffffffffffffffffffffffffff1614610ede576040517f08c379a0000000000000000000000000000000000000000000000000000000008152600401610ed590612922565b60405180910390fd5b600073ffffffffffffffffffffffffffffffffffffffff168273ffffffffffffffffffffffffffffffffffffffff161415610f4e576040517f08c379a0000000000000000000000000000000000000000000000000000000008152600401610f45906129b4565b60405180910390fd5b610f5983838361161d565b610f64600082610d1a565b6001600360008573ffffffffffffffffffffffffffffffffffffffff1673ffffffffffffffffffffffffffffffffffffffff1681526020019081526020016000206000828254610fb49190612a03565b925050819055506001600360008473ffffffffffffffffffffffffffffffffffffffff1673ffffffffffffffffffffffffffffffffffffffff168152602001908152602001600020600082825461100b9190612a37565b92505081905550816002600083815260200190815260200160002060006101000a81548173ffffffffffffffffffffffffffffffffffffffff021916908373ffffffffffffffffffffffffffffffffffffffff160217905550808273ffffffffffffffffffffffffffffffffffffffff168473ffffffffffffffffffffffffffffffffffffffff167fddf252ad1be2c89b69c2b068fc378daa952ba7f163c4a11628f55a4df523b3ef60405160405180910390a46110ca838383611622565b505050565b6110d7610d12565b73ffffffffffffffffffffffffffffffffffffffff166110f56109a0565b73ffffffffffffffffffffffffffffffffffffffff161461114b576040517f08c379a000000000000000000000000000000000000000000000000000000000815260040161114290612ad9565b60405180910390fd5b565b600081600001549050919050565b6001816000016000828254019250508190555050565b61118b828260405180602001604052806000815250611627565b5050565b61119881611682565b50565b6000600760009054906101000a900473ffffffffffffffffffffffffffffffffffffffff16905081600760006101000a81548173ffffffffffffffffffffffffffffffffffffffff021916908373ffffffffffffffffffffffffffffffffffffffff1602179055508173ffffffffffffffffffffffffffffffffffffffff168173ffffffffffffffffffffffffffffffffffffffff167f8be0079c531659141344cd1fd0a4f28419497f9722a3daafe3b4186f6b6457e060405160405180910390a35050565b8173ffffffffffffffffffffffffffffffffffffffff168373ffffffffffffffffffffffffffffffffffffffff1614156112d0576040517f08c379a00000000000000000000000000000000000000000000000000000000081526004016112c790612b45565b60405180910390fd5b80600560008573ffffffffffffffffffffffffffffffffffffffff1673ffffffffffffffffffffffffffffffffffffffff16815260200190815260200160002060008473ffffffffffffffffffffffffffffffffffffffff1673ffffffffffffffffffffffffffffffffffffffff16815260200190815260200160002060006101000a81548160ff0219169083151502179055508173ffffffffffffffffffffffffffffffffffffffff168373ffffffffffffffffffffffffffffffffffffffff167f17307eab39ab6107e8899845ad3d59bd9653f200f220920489ca2b5937696c31836040516113c19190611efd565b60405180910390a3505050565b6113d9848484610e68565b6113e5848484846116d5565b611424576040517f08c379a000000000000000000000000000000000000000000000000000000000815260040161141b90612bd7565b60405180910390fd5b50505050565b606061143582610cc7565b600060066000848152602001908152602001600020805461145590612538565b80601f016020809104026020016040519081016040528092919081815260200182805461148190612538565b80156114ce5780601f106114a3576101008083540402835291602001916114ce565b820191906000526020600020905b8154815290600101906020018083116114b157829003601f168201915b5050505050905060006114df61186c565b90506000815114156114f5578192505050611538565b60008251111561152a578082604051602001611512929190612c33565b60405160208183030381529060405292505050611538565b61153384611883565b925050505b919050565b611546826115b1565b611585576040517f08c379a000000000000000000000000000000000000000000000000000000000815260040161157c90612cc9565b60405180910390fd5b806006600084815260200190815260200160002090805190602001906115ac929190611d66565b505050565b60008073ffffffffffffffffffffffffffffffffffffffff166002600084815260200190815260200160002060009054906101000a900473ffffffffffffffffffffffffffffffffffffffff1673ffffffffffffffffffffffffffffffffffffffff1614159050919050565b505050565b505050565b61163183836118eb565b61163e60008484846116d5565b61167d576040517f08c379a000000000000000000000000000000000000000000000000000000000815260040161167490612bd7565b60405180910390fd5b505050565b61168b81611ac5565b60006006600083815260200190815260200160002080546116ab90612538565b9050146116d2576006600082815260200190815260200160002060006116d19190611dec565b5b50565b60006116f68473ffffffffffffffffffffffffffffffffffffffff16611be2565b1561185f578373ffffffffffffffffffffffffffffffffffffffff1663150b7a0261171f610d12565b8786866040518563ffffffff1660e01b81526004016117419493929190612d3e565b602060405180830381600087803b15801561175b57600080fd5b505af192505050801561178c57506040513d601f19601f820116820180604052508101906117899190612d9f565b60015b61180f573d80600081146117bc576040519150601f19603f3d011682016040523d82523d6000602084013e6117c1565b606091505b50600081511415611807576040517f08c379a00000000000000000000000000000000000000000000000000000000081526004016117fe90612bd7565b60405180910390fd5b805181602001fd5b63150b7a0260e01b7bffffffffffffffffffffffffffffffffffffffffffffffffffffffff1916817bffffffffffffffffffffffffffffffffffffffffffffffffffffffff191614915050611864565b600190505b949350505050565b606060405180602001604052806000815250905090565b606061188e82610cc7565b600061189861186c565b905060008151116118b857604051806020016040528060008152506118e3565b806118c284611c05565b6040516020016118d3929190612c33565b6040516020818303038152906040525b915050919050565b600073ffffffffffffffffffffffffffffffffffffffff168273ffffffffffffffffffffffffffffffffffffffff16141561195b576040517f08c379a000000000000000000000000000000000000000000000000000000000815260040161195290612e18565b60405180910390fd5b611964816115b1565b156119a4576040517f08c379a000000000000000000000000000000000000000000000000000000000815260040161199b90612e84565b60405180910390fd5b6119b06000838361161d565b6001600360008473ffffffffffffffffffffffffffffffffffffffff1673ffffffffffffffffffffffffffffffffffffffff1681526020019081526020016000206000828254611a009190612a37565b92505081905550816002600083815260200190815260200160002060006101000a81548173ffffffffffffffffffffffffffffffffffffffff021916908373ffffffffffffffffffffffffffffffffffffffff160217905550808273ffffffffffffffffffffffffffffffffffffffff16600073ffffffffffffffffffffffffffffffffffffffff167fddf252ad1be2c89b69c2b068fc378daa952ba7f163c4a11628f55a4df523b3ef60405160405180910390a4611ac160008383611622565b5050565b6000611ad082610822565b9050611ade8160008461161d565b611ae9600083610d1a565b6001600360008373ffffffffffffffffffffffffffffffffffffffff1673ffffffffffffffffffffffffffffffffffffffff1681526020019081526020016000206000828254611b399190612a03565b925050819055506002600083815260200190815260200160002060006101000a81549073ffffffffffffffffffffffffffffffffffffffff021916905581600073ffffffffffffffffffffffffffffffffffffffff168273ffffffffffffffffffffffffffffffffffffffff167fddf252ad1be2c89b69c2b068fc378daa952ba7f163c4a11628f55a4df523b3ef60405160405180910390a4611bde81600084611622565b5050565b6000808273ffffffffffffffffffffffffffffffffffffffff163b119050919050565b60606000821415611c4d576040518060400160405280600181526020017f30000000000000000000000000000000000000000000000000000000000000008152509050611d61565b600082905060005b60008214611c7f578080611c6890612ea4565b915050600a82611c789190612f1c565b9150611c55565b60008167ffffffffffffffff811115611c9b57611c9a61221e565b5b6040519080825280601f01601f191660200182016040528015611ccd5781602001600182028036833780820191505090505b5090505b60008514611d5a57600182611ce69190612a03565b9150600a85611cf59190612f4d565b6030611d019190612a37565b60f81b818381518110611d1757611d16612f7e565b5b60200101907effffffffffffffffffffffffffffffffffffffffffffffffffffffffffffff1916908160001a905350600a85611d539190612f1c565b9450611cd1565b8093505050505b919050565b828054611d7290612538565b90600052602060002090601f016020900481019282611d945760008555611ddb565b82601f10611dad57805160ff1916838001178555611ddb565b82800160010185558215611ddb579182015b82811115611dda578251825591602001919060010190611dbf565b5b509050611de89190611e2c565b5090565b508054611df890612538565b6000825580601f10611e0a5750611e29565b601f016020900490600052602060002090810190611e289190611e2c565b5b50565b5b80821115611e45576000816000905550600101611e2d565b5090565b6000604051905090565b600080fd5b600080fd5b60007fffffffff0000000000000000000000000000000000000000000000000000000082169050919050565b611e9281611e5d565b8114611e9d57600080fd5b50565b600081359050611eaf81611e89565b92915050565b600060208284031215611ecb57611eca611e53565b5b6000611ed984828501611ea0565b91505092915050565b60008115159050919050565b611ef781611ee2565b82525050565b6000602082019050611f126000830184611eee565b92915050565b600081519050919050565b600082825260208201905092915050565b60005b83811015611f52578082015181840152602081019050611f37565b83811115611f61576000848401525b50505050565b6000601f19601f8301169050919050565b6000611f8382611f18565b611f8d8185611f23565b9350611f9d818560208601611f34565b611fa681611f67565b840191505092915050565b60006020820190508181036000830152611fcb8184611f78565b905092915050565b6000819050919050565b611fe681611fd3565b8114611ff157600080fd5b50565b60008135905061200381611fdd565b92915050565b60006020828403121561201f5761201e611e53565b5b600061202d84828501611ff4565b91505092915050565b600073ffffffffffffffffffffffffffffffffffffffff82169050919050565b600061206182612036565b9050919050565b61207181612056565b82525050565b600060208201905061208c6000830184612068565b92915050565b61209b81612056565b81146120a657600080fd5b50565b6000813590506120b881612092565b92915050565b600080604083850312156120d5576120d4611e53565b5b60006120e3858286016120a9565b92505060206120f485828601611ff4565b9150509250929050565b60008060006060848603121561211757612116611e53565b5b6000612125868287016120a9565b9350506020612136868287016120a9565b925050604061214786828701611ff4565b9150509250925092565b60006020828403121561216757612166611e53565b5b6000612175848285016120a9565b91505092915050565b61218781611fd3565b82525050565b60006020820190506121a2600083018461217e565b92915050565b6121b181611ee2565b81146121bc57600080fd5b50565b6000813590506121ce816121a8565b92915050565b600080604083850312156121eb576121ea611e53565b5b60006121f9858286016120a9565b925050602061220a858286016121bf565b9150509250929050565b600080fd5b600080fd5b7f4e487b7100000000000000000000000000000000000000000000000000000000600052604160045260246000fd5b61225682611f67565b810181811067ffffffffffffffff821117156122755761227461221e565b5b80604052505050565b6000612288611e49565b9050612294828261224d565b919050565b600067ffffffffffffffff8211156122b4576122b361221e565b5b6122bd82611f67565b9050602081019050919050565b82818337600083830152505050565b60006122ec6122e784612299565b61227e565b90508281526020810184848401111561230857612307612219565b5b6123138482856122ca565b509392505050565b600082601f8301126123305761232f612214565b5b81356123408482602086016122d9565b91505092915050565b6000806000806080858703121561236357612362611e53565b5b6000612371878288016120a9565b9450506020612382878288016120a9565b935050604061239387828801611ff4565b925050606085013567ffffffffffffffff8111156123b4576123b3611e58565b5b6123c08782880161231b565b91505092959194509250565b600067ffffffffffffffff8211156123e7576123e661221e565b5b6123f082611f67565b9050602081019050919050565b600061241061240b846123cc565b61227e565b90508281526020810184848401111561242c5761242b612219565b5b6124378482856122ca565b509392505050565b600082601f83011261245457612453612214565b5b81356124648482602086016123fd565b91505092915050565b6000806040838503121561248457612483611e53565b5b6000612492858286016120a9565b925050602083013567ffffffffffffffff8111156124b3576124b2611e58565b5b6124bf8582860161243f565b9150509250929050565b600080604083850312156124e0576124df611e53565b5b60006124ee858286016120a9565b92505060206124ff858286016120a9565b9150509250929050565b7f4e487b7100000000000000000000000000000000000000000000000000000000600052602260045260246000fd5b6000600282049050600182168061255057607f821691505b6020821081141561256457612563612509565b5b50919050565b7f4552433732313a20617070726f76616c20746f2063757272656e74206f776e6560008201527f7200000000000000000000000000000000000000000000000000000000000000602082015250565b60006125c6602183611f23565b91506125d18261256a565b604082019050919050565b600060208201905081810360008301526125f5816125b9565b9050919050565b7f4552433732313a20617070726f76652063616c6c6572206973206e6f7420746f60008201527f6b656e206f776e6572206e6f7220617070726f76656420666f7220616c6c0000602082015250565b6000612658603e83611f23565b9150612663826125fc565b604082019050919050565b600060208201905081810360008301526126878161264b565b9050919050565b7f4552433732313a2063616c6c6572206973206e6f7420746f6b656e206f776e6560008201527f72206e6f7220617070726f766564000000000000000000000000000000000000602082015250565b60006126ea602e83611f23565b91506126f58261268e565b604082019050919050565b60006020820190508181036000830152612719816126dd565b9050919050565b7f4552433732313a20696e76616c696420746f6b656e2049440000000000000000600082015250565b6000612756601883611f23565b915061276182612720565b602082019050919050565b6000602082019050818103600083015261278581612749565b9050919050565b7f4552433732313a2061646472657373207a65726f206973206e6f74206120766160008201527f6c6964206f776e65720000000000000000000000000000000000000000000000602082015250565b60006127e8602983611f23565b91506127f38261278c565b604082019050919050565b60006020820190508181036000830152612817816127db565b9050919050565b7f4f776e61626c653a206e6577206f776e657220697320746865207a65726f206160008201527f6464726573730000000000000000000000000000000000000000000000000000602082015250565b600061287a602683611f23565b91506128858261281e565b604082019050919050565b600060208201905081810360008301526128a98161286d565b9050919050565b7f4552433732313a207472616e736665722066726f6d20696e636f72726563742060008201527f6f776e6572000000000000000000000000000000000000000000000000000000602082015250565b600061290c602583611f23565b9150612917826128b0565b604082019050919050565b6000602082019050818103600083015261293b816128ff565b9050919050565b7f4552433732313a207472616e7366657220746f20746865207a65726f2061646460008201527f7265737300000000000000000000000000000000000000000000000000000000602082015250565b600061299e602483611f23565b91506129a982612942565b604082019050919050565b600060208201905081810360008301526129cd81612991565b9050919050565b7f4e487b7100000000000000000000000000000000000000000000000000000000600052601160045260246000fd5b6000612a0e82611fd3565b9150612a1983611fd3565b925082821015612a2c57612a2b6129d4565b5b828203905092915050565b6000612a4282611fd3565b9150612a4d83611fd3565b9250827fffffffffffffffffffffffffffffffffffffffffffffffffffffffffffffffff03821115612a8257612a816129d4565b5b828201905092915050565b7f4f776e61626c653a2063616c6c6572206973206e6f7420746865206f776e6572600082015250565b6000612ac3602083611f23565b9150612ace82612a8d565b602082019050919050565b60006020820190508181036000830152612af281612ab6565b9050919050565b7f4552433732313a20617070726f766520746f2063616c6c657200000000000000600082015250565b6000612b2f601983611f23565b9150612b3a82612af9565b602082019050919050565b60006020820190508181036000830152612b5e81612b22565b9050919050565b7f4552433732313a207472616e7366657220746f206e6f6e20455243373231526560008201527f63656976657220696d706c656d656e7465720000000000000000000000000000602082015250565b6000612bc1603283611f23565b9150612bcc82612b65565b604082019050919050565b60006020820190508181036000830152612bf081612bb4565b9050919050565b600081905092915050565b6000612c0d82611f18565b612c178185612bf7565b9350612c27818560208601611f34565b80840191505092915050565b6000612c3f8285612c02565b9150612c4b8284612c02565b91508190509392505050565b7f45524337323155524953746f726167653a2055524920736574206f66206e6f6e60008201527f6578697374656e7420746f6b656e000000000000000000000000000000000000602082015250565b6000612cb3602e83611f23565b9150612cbe82612c57565b604082019050919050565b60006020820190508181036000830152612ce281612ca6565b9050919050565b600081519050919050565b600082825260208201905092915050565b6000612d1082612ce9565b612d1a8185612cf4565b9350612d2a818560208601611f34565b612d3381611f67565b840191505092915050565b6000608082019050612d536000830187612068565b612d606020830186612068565b612d6d604083018561217e565b8181036060830152612d7f8184612d05565b905095945050505050565b600081519050612d9981611e89565b92915050565b600060208284031215612db557612db4611e53565b5b6000612dc384828501612d8a565b91505092915050565b7f4552433732313a206d696e7420746f20746865207a65726f2061646472657373600082015250565b6000612e02602083611f23565b9150612e0d82612dcc565b602082019050919050565b60006020820190508181036000830152612e3181612df5565b9050919050565b7f4552433732313a20746f6b656e20616c7265616479206d696e74656400000000600082015250565b6000612e6e601c83611f23565b9150612e7982612e38565b602082019050919050565b60006020820190508181036000830152612e9d81612e61565b9050919050565b6000612eaf82611fd3565b91507fffffffffffffffffffffffffffffffffffffffffffffffffffffffffffffffff821415612ee257612ee16129d4565b5b600182019050919050565b7f4e487b7100000000000000000000000000000000000000000000000000000000600052601260045260246000fd5b6000612f2782611fd3565b9150612f3283611fd3565b925082612f4257612f41612eed565b5b828204905092915050565b6000612f5882611fd3565b9150612f6383611fd3565b925082612f7357612f72612eed565b5b828206905092915050565b7f4e487b7100000000000000000000000000000000000000000000000000000000600052603260045260246000fdfea264697066735822122034e2ec8b836ded8f0af322d6f9ed2b2842b5e207790de9973bb1ab908c4ab56164736f6c63430008090033",
  "linkReferences": {},
  "deployedLinkReferences": {}
}