{
  "_format": "hh-sol-artifact-1",
  "contractName": "NFTWarranty",
  "sourceName": "contracts/NFTWarranty.sol",
  "abi": [
    {
      "inputs": [],
      "stateMutability": "nonpayable",
      "type": "constructor"
    },
    {
      "anonymous": false,
      "inputs": [
        {
          "indexed": true,
          "internalType": "address",
          "name": "owner",
          "type": "address"
        },
        {
          "indexed": true,
          "internalType": "address",
          "name": "approved",
          "type": "address"
        },
        {
          "indexed": true,
          "internalType": "uint256",
          "name": "tokenId",
          "type": "uint256"
        }
      ],
      "name": "Approval",
      "type": "event"
    },
    {
      "anonymous": false,
      "inputs": [
        {
          "indexed": true,
          "internalType": "address",
          "name": "owner",
          "type": "address"
        },
        {
          "indexed": true,
          "internalType": "address",
          "name": "operator",
          "type": "address"
        },
        {
          "indexed": false,
          "internalType": "bool",
          "name": "approved",
          "type": "bool"
        }
      ],
      "name": "ApprovalForAll",
      "type": "event"
    },
    {
      "anonymous": false,
      "inputs": [
        {
          "indexed": true,
          "internalType": "address",
          "name": "previousOwner",
          "type": "address"
        },
        {
          "indexed": true,
          "internalType": "address",
          "name": "newOwner",
          "type": "address"
        }
      ],
      "name": "OwnershipTransferred",
      "type": "event"
    },
    {
      "anonymous": false,
      "inputs": [
        {
          "indexed": true,
          "internalType": "uint256",
          "name": "tokenID",
          "type": "uint256"
        },
        {
          "indexed": false,
          "internalType": "address",
          "name": "owner",
          "type": "address"
        },
        {
          "indexed": false,
          "internalType": "address",
          "name": "seller",
          "type": "address"
        },
        {
          "indexed": false,
          "internalType": "uint256",
          "name": "expiry",
          "type": "uint256"
        },
        {
          "indexed": false,
          "internalType": "string",
          "name": "serialID",
          "type": "string"
        }
      ],
      "name": "Success",
      "type": "event"
    },
    {
      "anonymous": false,
      "inputs": [
        {
          "indexed": true,
          "internalType": "address",
          "name": "from",
          "type": "address"
        },
        {
          "indexed": true,
          "internalType": "address",
          "name": "to",
          "type": "address"
        },
        {
          "indexed": true,
          "internalType": "uint256",
          "name": "tokenId",
          "type": "uint256"
        }
      ],
      "name": "Transfer",
      "type": "event"
    },
    {
      "inputs": [
        {
          "internalType": "address",
          "name": "to",
          "type": "address"
        },
        {
          "internalType": "uint256",
          "name": "tokenId",
          "type": "uint256"
        }
      ],
      "name": "approve",
      "outputs": [],
      "stateMutability": "nonpayable",
      "type": "function"
    },
    {
      "inputs": [
        {
          "internalType": "address",
          "name": "owner",
          "type": "address"
        }
      ],
      "name": "balanceOf",
      "outputs": [
        {
          "internalType": "uint256",
          "name": "",
          "type": "uint256"
        }
      ],
      "stateMutability": "view",
      "type": "function"
    },
    {
      "inputs": [
        {
          "internalType": "uint256",
          "name": "tokenID",
          "type": "uint256"
        }
      ],
      "name": "burnNFTByID",
      "outputs": [],
      "stateMutability": "payable",
      "type": "function"
    },
    {
      "inputs": [
        {
          "internalType": "uint256",
          "name": "tokenId",
          "type": "uint256"
        }
      ],
      "name": "getApproved",
      "outputs": [
        {
          "internalType": "address",
          "name": "",
          "type": "address"
        }
      ],
      "stateMutability": "view",
      "type": "function"
    },
    {
      "inputs": [],
      "name": "getCurrentTokenID",
      "outputs": [
        {
          "internalType": "uint256",
          "name": "",
          "type": "uint256"
        }
      ],
      "stateMutability": "view",
      "type": "function"
    },
    {
      "inputs": [
        {
          "internalType": "uint256",
          "name": "tokenID",
          "type": "uint256"
        }
      ],
      "name": "getListedByTokenID",
      "outputs": [
        {
          "components": [
            {
              "internalType": "uint256",
              "name": "tokenID",
              "type": "uint256"
            },
            {
              "internalType": "address payable",
              "name": "owner",
              "type": "address"
            },
            {
              "internalType": "address payable",
              "name": "seller",
              "type": "address"
            },
            {
              "internalType": "uint256",
              "name": "expiry",
              "type": "uint256"
            },
            {
              "internalType": "string",
              "name": "serialID",
              "type": "string"
            }
          ],
          "internalType": "struct NFTWarranty.PublishedToken",
          "name": "",
          "type": "tuple"
        }
      ],
      "stateMutability": "view",
      "type": "function"
    },
    {
      "inputs": [],
      "name": "getPublishedByUser",
      "outputs": [
        {
          "components": [
            {
              "internalType": "uint256",
              "name": "tokenID",
              "type": "uint256"
            },
            {
              "internalType": "address payable",
              "name": "owner",
              "type": "address"
            },
            {
              "internalType": "address payable",
              "name": "seller",
              "type": "address"
            },
            {
              "internalType": "uint256",
              "name": "expiry",
              "type": "uint256"
            },
            {
              "internalType": "string",
              "name": "serialID",
              "type": "string"
            }
          ],
          "internalType": "struct NFTWarranty.PublishedToken[]",
          "name": "",
          "type": "tuple[]"
        }
      ],
      "stateMutability": "view",
      "type": "function"
    },
    {
      "inputs": [],
      "name": "getTokenByCurrentID",
      "outputs": [
        {
          "components": [
            {
              "internalType": "uint256",
              "name": "tokenID",
              "type": "uint256"
            },
            {
              "internalType": "address payable",
              "name": "owner",
              "type": "address"
            },
            {
              "internalType": "address payable",
              "name": "seller",
              "type": "address"
            },
            {
              "internalType": "uint256",
              "name": "expiry",
              "type": "uint256"
            },
            {
              "internalType": "string",
              "name": "serialID",
              "type": "string"
            }
          ],
          "internalType": "struct NFTWarranty.PublishedToken",
          "name": "",
          "type": "tuple"
        }
      ],
      "stateMutability": "view",
      "type": "function"
    },
    {
      "inputs": [
        {
          "internalType": "address",
          "name": "owner",
          "type": "address"
        },
        {
          "internalType": "address",
          "name": "operator",
          "type": "address"
        }
      ],
      "name": "isApprovedForAll",
      "outputs": [
        {
          "internalType": "bool",
          "name": "",
          "type": "bool"
        }
      ],
      "stateMutability": "view",
      "type": "function"
    },
    {
      "inputs": [
        {
          "internalType": "string",
          "name": "tokenURI",
          "type": "string"
        },
        {
          "internalType": "string",
          "name": "serialID",
          "type": "string"
        }
      ],
      "name": "mint",
      "outputs": [
        {
          "internalType": "uint256",
          "name": "",
          "type": "uint256"
        }
      ],
      "stateMutability": "payable",
      "type": "function"
    },
    {
      "inputs": [],
      "name": "name",
      "outputs": [
        {
          "internalType": "string",
          "name": "",
          "type": "string"
        }
      ],
      "stateMutability": "view",
      "type": "function"
    },
    {
      "inputs": [],
      "name": "owner",
      "outputs": [
        {
          "internalType": "address",
          "name": "",
          "type": "address"
        }
      ],
      "stateMutability": "view",
      "type": "function"
    },
    {
      "inputs": [
        {
          "internalType": "uint256",
          "name": "tokenId",
          "type": "uint256"
        }
      ],
      "name": "ownerOf",
      "outputs": [
        {
          "internalType": "address",
          "name": "",
          "type": "address"
        }
      ],
      "stateMutability": "view",
      "type": "function"
    },
    {
      "inputs": [],
      "name": "renounceOwnership",
      "outputs": [],
      "stateMutability": "nonpayable",
      "type": "function"
    },
    {
      "inputs": [
        {
          "internalType": "address",
          "name": "from",
          "type": "address"
        },
        {
          "internalType": "address",
          "name": "to",
          "type": "address"
        },
        {
          "internalType": "uint256",
          "name": "tokenId",
          "type": "uint256"
        }
      ],
      "name": "safeTransferFrom",
      "outputs": [],
      "stateMutability": "nonpayable",
      "type": "function"
    },
    {
      "inputs": [
        {
          "internalType": "address",
          "name": "from",
          "type": "address"
        },
        {
          "internalType": "address",
          "name": "to",
          "type": "address"
        },
        {
          "internalType": "uint256",
          "name": "tokenId",
          "type": "uint256"
        },
        {
          "internalType": "bytes",
          "name": "data",
          "type": "bytes"
        }
      ],
      "name": "safeTransferFrom",
      "outputs": [],
      "stateMutability": "nonpayable",
      "type": "function"
    },
    {
      "inputs": [
        {
          "internalType": "address",
          "name": "operator",
          "type": "address"
        },
        {
          "internalType": "bool",
          "name": "approved",
          "type": "bool"
        }
      ],
      "name": "setApprovalForAll",
      "outputs": [],
      "stateMutability": "nonpayable",
      "type": "function"
    },
    {
      "inputs": [
        {
          "internalType": "bytes4",
          "name": "interfaceId",
          "type": "bytes4"
        }
      ],
      "name": "supportsInterface",
      "outputs": [
        {
          "internalType": "bool",
          "name": "",
          "type": "bool"
        }
      ],
      "stateMutability": "view",
      "type": "function"
    },
    {
      "inputs": [],
      "name": "symbol",
      "outputs": [
        {
          "internalType": "string",
          "name": "",
          "type": "string"
        }
      ],
      "stateMutability": "view",
      "type": "function"
    },
    {
      "inputs": [
        {
          "internalType": "uint256",
          "name": "tokenId",
          "type": "uint256"
        }
      ],
      "name": "tokenURI",
      "outputs": [
        {
          "internalType": "string",
          "name": "",
          "type": "string"
        }
      ],
      "stateMutability": "view",
      "type": "function"
    },
    {
      "inputs": [
        {
          "internalType": "uint256",
          "name": "tokenID",
          "type": "uint256"
        },
        {
          "internalType": "uint256",
          "name": "expiry",
          "type": "uint256"
        }
      ],
      "name": "transferByID",
      "outputs": [],
      "stateMutability": "payable",
      "type": "function"
    },
    {
      "inputs": [
        {
          "internalType": "address",
          "name": "from",
          "type": "address"
        },
        {
          "internalType": "address",
          "name": "to",
          "type": "address"
        },
        {
          "internalType": "uint256",
          "name": "tokenId",
          "type": "uint256"
        }
      ],
      "name": "transferFrom",
      "outputs": [],
      "stateMutability": "nonpayable",
      "type": "function"
    },
    {
      "inputs": [
        {
          "internalType": "address",
          "name": "newOwner",
          "type": "address"
        }
      ],
      "name": "transferOwnership",
      "outputs": [],
      "stateMutability": "nonpayable",
      "type": "function"
    }
  ],
  "bytecode": "0x60806040523480156200001157600080fd5b506040518060400160405280600b81526020017f4e465457617272616e74790000000000000000000000000000000000000000008152506040518060400160405280600481526020017f4e46544300000000000000000000000000000000000000000000000000000000815250816000908051906020019062000096929190620001a6565b508060019080519060200190620000af929190620001a6565b505050620000d2620000c6620000d860201b60201c565b620000e060201b60201c565b620002bb565b600033905090565b6000600760009054906101000a900473ffffffffffffffffffffffffffffffffffffffff16905081600760006101000a81548173ffffffffffffffffffffffffffffffffffffffff021916908373ffffffffffffffffffffffffffffffffffffffff1602179055508173ffffffffffffffffffffffffffffffffffffffff168173ffffffffffffffffffffffffffffffffffffffff167f8be0079c531659141344cd1fd0a4f28419497f9722a3daafe3b4186f6b6457e060405160405180910390a35050565b828054620001b49062000285565b90600052602060002090601f016020900481019282620001d8576000855562000224565b82601f10620001f357805160ff191683800117855562000224565b8280016001018555821562000224579182015b828111156200022357825182559160200191906001019062000206565b5b50905062000233919062000237565b5090565b5b808211156200025257600081600090555060010162000238565b5090565b7f4e487b7100000000000000000000000000000000000000000000000000000000600052602260045260246000fd5b600060028204905060018216806200029e57607f821691505b60208210811415620002b557620002b462000256565b5b50919050565b613fde80620002cb6000396000f3fe6080604052600436106101405760003560e01c80638aa0fdad116100b6578063b9ed183c1161006f578063b9ed183c14610461578063c4a6d0d21461047d578063c87b56dd146104a8578063e985e9c5146104e5578063f2fde38b14610522578063ffa3681a1461054b57610140565b80638aa0fdad1461035e5780638af3efb41461038e5780638da5cb5b146103b957806395d89b41146103e4578063a22cb4651461040f578063b88d4fde1461043857610140565b80632242f968116101085780632242f9681461023e57806323b872dd1461027b57806342842e0e146102a45780636352211e146102cd57806370a082311461030a578063715018a61461034757610140565b806301ffc9a71461014557806306fdde0314610182578063081812fc146101ad578063095ea7b3146101ea57806311d000a214610213575b600080fd5b34801561015157600080fd5b5061016c60048036038101906101679190612a13565b610567565b6040516101799190612a5b565b60405180910390f35b34801561018e57600080fd5b50610197610649565b6040516101a49190612b0f565b60405180910390f35b3480156101b957600080fd5b506101d460048036038101906101cf9190612b67565b6106db565b6040516101e19190612bd5565b60405180910390f35b3480156101f657600080fd5b50610211600480360381019061020c9190612c1c565b610721565b005b34801561021f57600080fd5b50610228610839565b6040516102359190612e0e565b60405180910390f35b34801561024a57600080fd5b5061026560048036038101906102609190612b67565b610c8e565b6040516102729190612ea6565b60405180910390f35b34801561028757600080fd5b506102a2600480360381019061029d9190612ec8565b610e0d565b005b3480156102b057600080fd5b506102cb60048036038101906102c69190612ec8565b610e6d565b005b3480156102d957600080fd5b506102f460048036038101906102ef9190612b67565b610e8d565b6040516103019190612bd5565b60405180910390f35b34801561031657600080fd5b50610331600480360381019061032c9190612f1b565b610f3f565b60405161033e9190612f57565b60405180910390f35b34801561035357600080fd5b5061035c610ff7565b005b610378600480360381019061037391906130a7565b61100b565b6040516103859190612f57565b60405180910390f35b34801561039a57600080fd5b506103a361104d565b6040516103b09190612ea6565b60405180910390f35b3480156103c557600080fd5b506103ce6111d9565b6040516103db9190612bd5565b60405180910390f35b3480156103f057600080fd5b506103f9611203565b6040516104069190612b0f565b60405180910390f35b34801561041b57600080fd5b506104366004803603810190610431919061314b565b611295565b005b34801561044457600080fd5b5061045f600480360381019061045a919061322c565b6112ab565b005b61047b60048036038101906104769190612b67565b61130d565b005b34801561048957600080fd5b506104926113cb565b60405161049f9190612f57565b60405180910390f35b3480156104b457600080fd5b506104cf60048036038101906104ca9190612b67565b6113dc565b6040516104dc9190612b0f565b60405180910390f35b3480156104f157600080fd5b5061050c600480360381019061050791906132af565b6114ef565b6040516105199190612a5b565b60405180910390f35b34801561052e57600080fd5b5061054960048036038101906105449190612f1b565b611583565b005b610565600480360381019061056091906132ef565b611607565b005b60007f80ac58cd000000000000000000000000000000000000000000000000000000007bffffffffffffffffffffffffffffffffffffffffffffffffffffffff1916827bffffffffffffffffffffffffffffffffffffffffffffffffffffffff1916148061063257507f5b5e139f000000000000000000000000000000000000000000000000000000007bffffffffffffffffffffffffffffffffffffffffffffffffffffffff1916827bffffffffffffffffffffffffffffffffffffffffffffffffffffffff1916145b80610642575061064182611708565b5b9050919050565b6060600080546106589061335e565b80601f01602080910402602001604051908101604052809291908181526020018280546106849061335e565b80156106d15780601f106106a6576101008083540402835291602001916106d1565b820191906000526020600020905b8154815290600101906020018083116106b457829003601f168201915b5050505050905090565b60006106e682611772565b6004600083815260200190815260200160002060009054906101000a900473ffffffffffffffffffffffffffffffffffffffff169050919050565b600061072c82610e8d565b90508073ffffffffffffffffffffffffffffffffffffffff168373ffffffffffffffffffffffffffffffffffffffff16141561079d576040517f08c379a000000000000000000000000000000000000000000000000000000000815260040161079490613402565b60405180910390fd5b8073ffffffffffffffffffffffffffffffffffffffff166107bc6117bd565b73ffffffffffffffffffffffffffffffffffffffff1614806107eb57506107ea816107e56117bd565b6114ef565b5b61082a576040517f08c379a000000000000000000000000000000000000000000000000000000000815260040161082190613494565b60405180910390fd5b61083483836117c5565b505050565b60606000610847600861187e565b905060008060005b83811015610968573373ffffffffffffffffffffffffffffffffffffffff16600a600060018461087f91906134e3565b815260200190815260200160002060010160009054906101000a900473ffffffffffffffffffffffffffffffffffffffff1673ffffffffffffffffffffffffffffffffffffffff16148061094057503373ffffffffffffffffffffffffffffffffffffffff16600a60006001846108f691906134e3565b815260200190815260200160002060020160009054906101000a900473ffffffffffffffffffffffffffffffffffffffff1673ffffffffffffffffffffffffffffffffffffffff16145b156109555760018361095291906134e3565b92505b808061096090613539565b91505061084f565b5060008267ffffffffffffffff81111561098557610984612f7c565b5b6040519080825280602002602001820160405280156109be57816020015b6109ab612869565b8152602001906001900390816109a35790505b50905060005b84811015610c83573373ffffffffffffffffffffffffffffffffffffffff16600a60006001846109f491906134e3565b815260200190815260200160002060010160009054906101000a900473ffffffffffffffffffffffffffffffffffffffff1673ffffffffffffffffffffffffffffffffffffffff161480610ab557503373ffffffffffffffffffffffffffffffffffffffff16600a6000600184610a6b91906134e3565b815260200190815260200160002060020160009054906101000a900473ffffffffffffffffffffffffffffffffffffffff1673ffffffffffffffffffffffffffffffffffffffff16145b15610c70576000600182610ac991906134e3565b90506000600a60008381526020019081526020016000209050806040518060a0016040529081600082015481526020016001820160009054906101000a900473ffffffffffffffffffffffffffffffffffffffff1673ffffffffffffffffffffffffffffffffffffffff1673ffffffffffffffffffffffffffffffffffffffff1681526020016002820160009054906101000a900473ffffffffffffffffffffffffffffffffffffffff1673ffffffffffffffffffffffffffffffffffffffff1673ffffffffffffffffffffffffffffffffffffffff16815260200160038201548152602001600482018054610bbe9061335e565b80601f0160208091040260200160405190810160405280929190818152602001828054610bea9061335e565b8015610c375780601f10610c0c57610100808354040283529160200191610c37565b820191906000526020600020905b815481529060010190602001808311610c1a57829003601f168201915b505050505081525050848681518110610c5357610c52613582565b5b6020026020010181905250600185610c6b91906134e3565b945050505b8080610c7b90613539565b9150506109c4565b508094505050505090565b610c96612869565b600a60008381526020019081526020016000206040518060a0016040529081600082015481526020016001820160009054906101000a900473ffffffffffffffffffffffffffffffffffffffff1673ffffffffffffffffffffffffffffffffffffffff1673ffffffffffffffffffffffffffffffffffffffff1681526020016002820160009054906101000a900473ffffffffffffffffffffffffffffffffffffffff1673ffffffffffffffffffffffffffffffffffffffff1673ffffffffffffffffffffffffffffffffffffffff16815260200160038201548152602001600482018054610d849061335e565b80601f0160208091040260200160405190810160405280929190818152602001828054610db09061335e565b8015610dfd5780601f10610dd257610100808354040283529160200191610dfd565b820191906000526020600020905b815481529060010190602001808311610de057829003601f168201915b5050505050815250509050919050565b610e1e610e186117bd565b8261188c565b610e5d576040517f08c379a0000000000000000000000000000000000000000000000000000000008152600401610e5490613623565b60405180910390fd5b610e68838383611921565b505050565b610e88838383604051806020016040528060008152506112ab565b505050565b6000806002600084815260200190815260200160002060009054906101000a900473ffffffffffffffffffffffffffffffffffffffff169050600073ffffffffffffffffffffffffffffffffffffffff168173ffffffffffffffffffffffffffffffffffffffff161415610f36576040517f08c379a0000000000000000000000000000000000000000000000000000000008152600401610f2d9061368f565b60405180910390fd5b80915050919050565b60008073ffffffffffffffffffffffffffffffffffffffff168273ffffffffffffffffffffffffffffffffffffffff161415610fb0576040517f08c379a0000000000000000000000000000000000000000000000000000000008152600401610fa790613721565b60405180910390fd5b600360008373ffffffffffffffffffffffffffffffffffffffff1673ffffffffffffffffffffffffffffffffffffffff168152602001908152602001600020549050919050565b610fff611b88565b6110096000611c06565b565b60006110176008611ccc565b6000611023600861187e565b905061102f3382611ce2565b6110398185611d00565b6110438184611d74565b8091505092915050565b611055612869565b6000611061600861187e565b9050600a60008281526020019081526020016000206040518060a0016040529081600082015481526020016001820160009054906101000a900473ffffffffffffffffffffffffffffffffffffffff1673ffffffffffffffffffffffffffffffffffffffff1673ffffffffffffffffffffffffffffffffffffffff1681526020016002820160009054906101000a900473ffffffffffffffffffffffffffffffffffffffff1673ffffffffffffffffffffffffffffffffffffffff1673ffffffffffffffffffffffffffffffffffffffff168152602001600382015481526020016004820180546111519061335e565b80601f016020809104026020016040519081016040528092919081815260200182805461117d9061335e565b80156111ca5780601f1061119f576101008083540402835291602001916111ca565b820191906000526020600020905b8154815290600101906020018083116111ad57829003601f168201915b50505050508152505091505090565b6000600760009054906101000a900473ffffffffffffffffffffffffffffffffffffffff16905090565b6060600180546112129061335e565b80601f016020809104026020016040519081016040528092919081815260200182805461123e9061335e565b801561128b5780601f106112605761010080835404028352916020019161128b565b820191906000526020600020905b81548152906001019060200180831161126e57829003601f168201915b5050505050905090565b6112a76112a06117bd565b8383611eeb565b5050565b6112bc6112b66117bd565b8361188c565b6112fb576040517f08c379a00000000000000000000000000000000000000000000000000000000081526004016112f290613623565b60405180910390fd5b61130784848484612058565b50505050565b6000600a6000838152602001908152602001600020600301541415611367576040517f08c379a000000000000000000000000000000000000000000000000000000000815260040161135e9061378d565b60405180910390fd5b600a60008281526020019081526020016000206003015442116113bf576040517f08c379a00000000000000000000000000000000000000000000000000000000081526004016113b6906137f9565b60405180910390fd5b6113c8816120b4565b50565b60006113d7600861187e565b905090565b60606113e782611772565b60006006600084815260200190815260200160002080546114079061335e565b80601f01602080910402602001604051908101604052809291908181526020018280546114339061335e565b80156114805780601f1061145557610100808354040283529160200191611480565b820191906000526020600020905b81548152906001019060200180831161146357829003601f168201915b505050505090506000611491612107565b90506000815114156114a75781925050506114ea565b6000825111156114dc5780826040516020016114c4929190613855565b604051602081830303815290604052925050506114ea565b6114e58461211e565b925050505b919050565b6000600560008473ffffffffffffffffffffffffffffffffffffffff1673ffffffffffffffffffffffffffffffffffffffff16815260200190815260200160002060008373ffffffffffffffffffffffffffffffffffffffff1673ffffffffffffffffffffffffffffffffffffffff16815260200190815260200160002060009054906101000a900460ff16905092915050565b61158b611b88565b600073ffffffffffffffffffffffffffffffffffffffff168173ffffffffffffffffffffffffffffffffffffffff1614156115fb576040517f08c379a00000000000000000000000000000000000000000000000000000000081526004016115f2906138eb565b60405180910390fd5b61160481611c06565b50565b6000811161164a576040517f08c379a000000000000000000000000000000000000000000000000000000000815260040161164190613957565b60405180910390fd5b6000600a600084815260200190815260200160002060030154141561169057804261167591906134e3565b600a6000848152602001908152602001600020600301819055505b33600a600084815260200190815260200160002060020160006101000a81548173ffffffffffffffffffffffffffffffffffffffff021916908373ffffffffffffffffffffffffffffffffffffffff1602179055506116ef6009611ccc565b6116fa303384611921565b6117043083610721565b5050565b60007f01ffc9a7000000000000000000000000000000000000000000000000000000007bffffffffffffffffffffffffffffffffffffffffffffffffffffffff1916827bffffffffffffffffffffffffffffffffffffffffffffffffffffffff1916149050919050565b61177b81612186565b6117ba576040517f08c379a00000000000000000000000000000000000000000000000000000000081526004016117b19061368f565b60405180910390fd5b50565b600033905090565b816004600083815260200190815260200160002060006101000a81548173ffffffffffffffffffffffffffffffffffffffff021916908373ffffffffffffffffffffffffffffffffffffffff160217905550808273ffffffffffffffffffffffffffffffffffffffff1661183883610e8d565b73ffffffffffffffffffffffffffffffffffffffff167f8c5be1e5ebec7d5bd14f71427d1e84f3dd0314c0f7b2291e5b200ac8c7c3b92560405160405180910390a45050565b600081600001549050919050565b60008061189883610e8d565b90508073ffffffffffffffffffffffffffffffffffffffff168473ffffffffffffffffffffffffffffffffffffffff1614806118da57506118d981856114ef565b5b8061191857508373ffffffffffffffffffffffffffffffffffffffff16611900846106db565b73ffffffffffffffffffffffffffffffffffffffff16145b91505092915050565b8273ffffffffffffffffffffffffffffffffffffffff1661194182610e8d565b73ffffffffffffffffffffffffffffffffffffffff1614611997576040517f08c379a000000000000000000000000000000000000000000000000000000000815260040161198e906139e9565b60405180910390fd5b600073ffffffffffffffffffffffffffffffffffffffff168273ffffffffffffffffffffffffffffffffffffffff161415611a07576040517f08c379a00000000000000000000000000000000000000000000000000000000081526004016119fe90613a7b565b60405180910390fd5b611a128383836121f2565b611a1d6000826117c5565b6001600360008573ffffffffffffffffffffffffffffffffffffffff1673ffffffffffffffffffffffffffffffffffffffff1681526020019081526020016000206000828254611a6d9190613a9b565b925050819055506001600360008473ffffffffffffffffffffffffffffffffffffffff1673ffffffffffffffffffffffffffffffffffffffff1681526020019081526020016000206000828254611ac491906134e3565b92505081905550816002600083815260200190815260200160002060006101000a81548173ffffffffffffffffffffffffffffffffffffffff021916908373ffffffffffffffffffffffffffffffffffffffff160217905550808273ffffffffffffffffffffffffffffffffffffffff168473ffffffffffffffffffffffffffffffffffffffff167fddf252ad1be2c89b69c2b068fc378daa952ba7f163c4a11628f55a4df523b3ef60405160405180910390a4611b838383836121f7565b505050565b611b906117bd565b73ffffffffffffffffffffffffffffffffffffffff16611bae6111d9565b73ffffffffffffffffffffffffffffffffffffffff1614611c04576040517f08c379a0000000000000000000000000000000000000000000000000000000008152600401611bfb90613b1b565b60405180910390fd5b565b6000600760009054906101000a900473ffffffffffffffffffffffffffffffffffffffff16905081600760006101000a81548173ffffffffffffffffffffffffffffffffffffffff021916908373ffffffffffffffffffffffffffffffffffffffff1602179055508173ffffffffffffffffffffffffffffffffffffffff168173ffffffffffffffffffffffffffffffffffffffff167f8be0079c531659141344cd1fd0a4f28419497f9722a3daafe3b4186f6b6457e060405160405180910390a35050565b6001816000016000828254019250508190555050565b611cfc8282604051806020016040528060008152506121fc565b5050565b611d0982612186565b611d48576040517f08c379a0000000000000000000000000000000000000000000000000000000008152600401611d3f90613bad565b60405180910390fd5b80600660008481526020019081526020016000209080519060200190611d6f9291906128c4565b505050565b6040518060a001604052808381526020013073ffffffffffffffffffffffffffffffffffffffff1681526020013373ffffffffffffffffffffffffffffffffffffffff1681526020016000815260200182815250600a60008481526020019081526020016000206000820151816000015560208201518160010160006101000a81548173ffffffffffffffffffffffffffffffffffffffff021916908373ffffffffffffffffffffffffffffffffffffffff16021790555060408201518160020160006101000a81548173ffffffffffffffffffffffffffffffffffffffff021916908373ffffffffffffffffffffffffffffffffffffffff160217905550606082015181600301556080820151816004019080519060200190611e999291906128c4565b50905050611ea8333084611921565b817f21ff57e838b7243e426a291cdbca20be44c58956dc17315526f908da84150b033033600085604051611edf9493929190613c12565b60405180910390a25050565b8173ffffffffffffffffffffffffffffffffffffffff168373ffffffffffffffffffffffffffffffffffffffff161415611f5a576040517f08c379a0000000000000000000000000000000000000000000000000000000008152600401611f5190613caa565b60405180910390fd5b80600560008573ffffffffffffffffffffffffffffffffffffffff1673ffffffffffffffffffffffffffffffffffffffff16815260200190815260200160002060008473ffffffffffffffffffffffffffffffffffffffff1673ffffffffffffffffffffffffffffffffffffffff16815260200190815260200160002060006101000a81548160ff0219169083151502179055508173ffffffffffffffffffffffffffffffffffffffff168373ffffffffffffffffffffffffffffffffffffffff167f17307eab39ab6107e8899845ad3d59bd9653f200f220920489ca2b5937696c318360405161204b9190612a5b565b60405180910390a3505050565b612063848484611921565b61206f84848484612257565b6120ae576040517f08c379a00000000000000000000000000000000000000000000000000000000081526004016120a590613d3c565b60405180910390fd5b50505050565b6120bd816123ee565b60006006600083815260200190815260200160002080546120dd9061335e565b90501461210457600660008281526020019081526020016000206000612103919061294a565b5b50565b606060405180602001604052806000815250905090565b606061212982611772565b6000612133612107565b90506000815111612153576040518060200160405280600081525061217e565b8061215d8461250b565b60405160200161216e929190613855565b6040516020818303038152906040525b915050919050565b60008073ffffffffffffffffffffffffffffffffffffffff166002600084815260200190815260200160002060009054906101000a900473ffffffffffffffffffffffffffffffffffffffff1673ffffffffffffffffffffffffffffffffffffffff1614159050919050565b505050565b505050565b612206838361266c565b6122136000848484612257565b612252576040517f08c379a000000000000000000000000000000000000000000000000000000000815260040161224990613d3c565b60405180910390fd5b505050565b60006122788473ffffffffffffffffffffffffffffffffffffffff16612846565b156123e1578373ffffffffffffffffffffffffffffffffffffffff1663150b7a026122a16117bd565b8786866040518563ffffffff1660e01b81526004016122c39493929190613db1565b602060405180830381600087803b1580156122dd57600080fd5b505af192505050801561230e57506040513d601f19601f8201168201806040525081019061230b9190613e12565b60015b612391573d806000811461233e576040519150601f19603f3d011682016040523d82523d6000602084013e612343565b606091505b50600081511415612389576040517f08c379a000000000000000000000000000000000000000000000000000000000815260040161238090613d3c565b60405180910390fd5b805181602001fd5b63150b7a0260e01b7bffffffffffffffffffffffffffffffffffffffffffffffffffffffff1916817bffffffffffffffffffffffffffffffffffffffffffffffffffffffff1916149150506123e6565b600190505b949350505050565b60006123f982610e8d565b9050612407816000846121f2565b6124126000836117c5565b6001600360008373ffffffffffffffffffffffffffffffffffffffff1673ffffffffffffffffffffffffffffffffffffffff16815260200190815260200160002060008282546124629190613a9b565b925050819055506002600083815260200190815260200160002060006101000a81549073ffffffffffffffffffffffffffffffffffffffff021916905581600073ffffffffffffffffffffffffffffffffffffffff168273ffffffffffffffffffffffffffffffffffffffff167fddf252ad1be2c89b69c2b068fc378daa952ba7f163c4a11628f55a4df523b3ef60405160405180910390a4612507816000846121f7565b5050565b60606000821415612553576040518060400160405280600181526020017f30000000000000000000000000000000000000000000000000000000000000008152509050612667565b600082905060005b6000821461258557808061256e90613539565b915050600a8261257e9190613e6e565b915061255b565b60008167ffffffffffffffff8111156125a1576125a0612f7c565b5b6040519080825280601f01601f1916602001820160405280156125d35781602001600182028036833780820191505090505b5090505b60008514612660576001826125ec9190613a9b565b9150600a856125fb9190613e9f565b603061260791906134e3565b60f81b81838151811061261d5761261c613582565b5b60200101907effffffffffffffffffffffffffffffffffffffffffffffffffffffffffffff1916908160001a905350600a856126599190613e6e565b94506125d7565b8093505050505b919050565b600073ffffffffffffffffffffffffffffffffffffffff168273ffffffffffffffffffffffffffffffffffffffff1614156126dc576040517f08c379a00000000000000000000000000000000000000000000000000000000081526004016126d390613f1c565b60405180910390fd5b6126e581612186565b15612725576040517f08c379a000000000000000000000000000000000000000000000000000000000815260040161271c90613f88565b60405180910390fd5b612731600083836121f2565b6001600360008473ffffffffffffffffffffffffffffffffffffffff1673ffffffffffffffffffffffffffffffffffffffff168152602001908152602001600020600082825461278191906134e3565b92505081905550816002600083815260200190815260200160002060006101000a81548173ffffffffffffffffffffffffffffffffffffffff021916908373ffffffffffffffffffffffffffffffffffffffff160217905550808273ffffffffffffffffffffffffffffffffffffffff16600073ffffffffffffffffffffffffffffffffffffffff167fddf252ad1be2c89b69c2b068fc378daa952ba7f163c4a11628f55a4df523b3ef60405160405180910390a4612842600083836121f7565b5050565b6000808273ffffffffffffffffffffffffffffffffffffffff163b119050919050565b6040518060a0016040528060008152602001600073ffffffffffffffffffffffffffffffffffffffff168152602001600073ffffffffffffffffffffffffffffffffffffffff16815260200160008152602001606081525090565b8280546128d09061335e565b90600052602060002090601f0160209004810192826128f25760008555612939565b82601f1061290b57805160ff1916838001178555612939565b82800160010185558215612939579182015b8281111561293857825182559160200191906001019061291d565b5b509050612946919061298a565b5090565b5080546129569061335e565b6000825580601f106129685750612987565b601f016020900490600052602060002090810190612986919061298a565b5b50565b5b808211156129a357600081600090555060010161298b565b5090565b6000604051905090565b600080fd5b600080fd5b60007fffffffff0000000000000000000000000000000000000000000000000000000082169050919050565b6129f0816129bb565b81146129fb57600080fd5b50565b600081359050612a0d816129e7565b92915050565b600060208284031215612a2957612a286129b1565b5b6000612a37848285016129fe565b91505092915050565b60008115159050919050565b612a5581612a40565b82525050565b6000602082019050612a706000830184612a4c565b92915050565b600081519050919050565b600082825260208201905092915050565b60005b83811015612ab0578082015181840152602081019050612a95565b83811115612abf576000848401525b50505050565b6000601f19601f8301169050919050565b6000612ae182612a76565b612aeb8185612a81565b9350612afb818560208601612a92565b612b0481612ac5565b840191505092915050565b60006020820190508181036000830152612b298184612ad6565b905092915050565b6000819050919050565b612b4481612b31565b8114612b4f57600080fd5b50565b600081359050612b6181612b3b565b92915050565b600060208284031215612b7d57612b7c6129b1565b5b6000612b8b84828501612b52565b91505092915050565b600073ffffffffffffffffffffffffffffffffffffffff82169050919050565b6000612bbf82612b94565b9050919050565b612bcf81612bb4565b82525050565b6000602082019050612bea6000830184612bc6565b92915050565b612bf981612bb4565b8114612c0457600080fd5b50565b600081359050612c1681612bf0565b92915050565b60008060408385031215612c3357612c326129b1565b5b6000612c4185828601612c07565b9250506020612c5285828601612b52565b9150509250929050565b600081519050919050565b600082825260208201905092915050565b6000819050602082019050919050565b612c9181612b31565b82525050565b6000612ca282612b94565b9050919050565b612cb281612c97565b82525050565b600082825260208201905092915050565b6000612cd482612a76565b612cde8185612cb8565b9350612cee818560208601612a92565b612cf781612ac5565b840191505092915050565b600060a083016000830151612d1a6000860182612c88565b506020830151612d2d6020860182612ca9565b506040830151612d406040860182612ca9565b506060830151612d536060860182612c88565b5060808301518482036080860152612d6b8282612cc9565b9150508091505092915050565b6000612d848383612d02565b905092915050565b6000602082019050919050565b6000612da482612c5c565b612dae8185612c67565b935083602082028501612dc085612c78565b8060005b85811015612dfc5784840389528151612ddd8582612d78565b9450612de883612d8c565b925060208a01995050600181019050612dc4565b50829750879550505050505092915050565b60006020820190508181036000830152612e288184612d99565b905092915050565b600060a083016000830151612e486000860182612c88565b506020830151612e5b6020860182612ca9565b506040830151612e6e6040860182612ca9565b506060830151612e816060860182612c88565b5060808301518482036080860152612e998282612cc9565b9150508091505092915050565b60006020820190508181036000830152612ec08184612e30565b905092915050565b600080600060608486031215612ee157612ee06129b1565b5b6000612eef86828701612c07565b9350506020612f0086828701612c07565b9250506040612f1186828701612b52565b9150509250925092565b600060208284031215612f3157612f306129b1565b5b6000612f3f84828501612c07565b91505092915050565b612f5181612b31565b82525050565b6000602082019050612f6c6000830184612f48565b92915050565b600080fd5b600080fd5b7f4e487b7100000000000000000000000000000000000000000000000000000000600052604160045260246000fd5b612fb482612ac5565b810181811067ffffffffffffffff82111715612fd357612fd2612f7c565b5b80604052505050565b6000612fe66129a7565b9050612ff28282612fab565b919050565b600067ffffffffffffffff82111561301257613011612f7c565b5b61301b82612ac5565b9050602081019050919050565b82818337600083830152505050565b600061304a61304584612ff7565b612fdc565b90508281526020810184848401111561306657613065612f77565b5b613071848285613028565b509392505050565b600082601f83011261308e5761308d612f72565b5b813561309e848260208601613037565b91505092915050565b600080604083850312156130be576130bd6129b1565b5b600083013567ffffffffffffffff8111156130dc576130db6129b6565b5b6130e885828601613079565b925050602083013567ffffffffffffffff811115613109576131086129b6565b5b61311585828601613079565b9150509250929050565b61312881612a40565b811461313357600080fd5b50565b6000813590506131458161311f565b92915050565b60008060408385031215613162576131616129b1565b5b600061317085828601612c07565b925050602061318185828601613136565b9150509250929050565b600067ffffffffffffffff8211156131a6576131a5612f7c565b5b6131af82612ac5565b9050602081019050919050565b60006131cf6131ca8461318b565b612fdc565b9050828152602081018484840111156131eb576131ea612f77565b5b6131f6848285613028565b509392505050565b600082601f83011261321357613212612f72565b5b81356132238482602086016131bc565b91505092915050565b60008060008060808587031215613246576132456129b1565b5b600061325487828801612c07565b945050602061326587828801612c07565b935050604061327687828801612b52565b925050606085013567ffffffffffffffff811115613297576132966129b6565b5b6132a3878288016131fe565b91505092959194509250565b600080604083850312156132c6576132c56129b1565b5b60006132d485828601612c07565b92505060206132e585828601612c07565b9150509250929050565b60008060408385031215613306576133056129b1565b5b600061331485828601612b52565b925050602061332585828601612b52565b9150509250929050565b7f4e487b7100000000000000000000000000000000000000000000000000000000600052602260045260246000fd5b6000600282049050600182168061337657607f821691505b6020821081141561338a5761338961332f565b5b50919050565b7f4552433732313a20617070726f76616c20746f2063757272656e74206f776e6560008201527f7200000000000000000000000000000000000000000000000000000000000000602082015250565b60006133ec602183612a81565b91506133f782613390565b604082019050919050565b6000602082019050818103600083015261341b816133df565b9050919050565b7f4552433732313a20617070726f76652063616c6c6572206973206e6f7420746f60008201527f6b656e206f776e6572206e6f7220617070726f76656420666f7220616c6c0000602082015250565b600061347e603e83612a81565b915061348982613422565b604082019050919050565b600060208201905081810360008301526134ad81613471565b9050919050565b7f4e487b7100000000000000000000000000000000000000000000000000000000600052601160045260246000fd5b60006134ee82612b31565b91506134f983612b31565b9250827fffffffffffffffffffffffffffffffffffffffffffffffffffffffffffffffff0382111561352e5761352d6134b4565b5b828201905092915050565b600061354482612b31565b91507fffffffffffffffffffffffffffffffffffffffffffffffffffffffffffffffff821415613577576135766134b4565b5b600182019050919050565b7f4e487b7100000000000000000000000000000000000000000000000000000000600052603260045260246000fd5b7f4552433732313a2063616c6c6572206973206e6f7420746f6b656e206f776e6560008201527f72206e6f7220617070726f766564000000000000000000000000000000000000602082015250565b600061360d602e83612a81565b9150613618826135b1565b604082019050919050565b6000602082019050818103600083015261363c81613600565b9050919050565b7f4552433732313a20696e76616c696420746f6b656e2049440000000000000000600082015250565b6000613679601883612a81565b915061368482613643565b602082019050919050565b600060208201905081810360008301526136a88161366c565b9050919050565b7f4552433732313a2061646472657373207a65726f206973206e6f74206120766160008201527f6c6964206f776e65720000000000000000000000000000000000000000000000602082015250565b600061370b602983612a81565b9150613716826136af565b604082019050919050565b6000602082019050818103600083015261373a816136fe565b9050919050565b7f57617272616e747920446f65736e277420657869737400000000000000000000600082015250565b6000613777601683612a81565b915061378282613741565b602082019050919050565b600060208201905081810360008301526137a68161376a565b9050919050565b7f57617272616e7479206973206578706972656400000000000000000000000000600082015250565b60006137e3601383612a81565b91506137ee826137ad565b602082019050919050565b60006020820190508181036000830152613812816137d6565b9050919050565b600081905092915050565b600061382f82612a76565b6138398185613819565b9350613849818560208601612a92565b80840191505092915050565b60006138618285613824565b915061386d8284613824565b91508190509392505050565b7f4f776e61626c653a206e6577206f776e657220697320746865207a65726f206160008201527f6464726573730000000000000000000000000000000000000000000000000000602082015250565b60006138d5602683612a81565b91506138e082613879565b604082019050919050565b60006020820190508181036000830152613904816138c8565b9050919050565b7f506c6561736520656e74657220612076616c6964206578706972792074696d65600082015250565b6000613941602083612a81565b915061394c8261390b565b602082019050919050565b6000602082019050818103600083015261397081613934565b9050919050565b7f4552433732313a207472616e736665722066726f6d20696e636f72726563742060008201527f6f776e6572000000000000000000000000000000000000000000000000000000602082015250565b60006139d3602583612a81565b91506139de82613977565b604082019050919050565b60006020820190508181036000830152613a02816139c6565b9050919050565b7f4552433732313a207472616e7366657220746f20746865207a65726f2061646460008201527f7265737300000000000000000000000000000000000000000000000000000000602082015250565b6000613a65602483612a81565b9150613a7082613a09565b604082019050919050565b60006020820190508181036000830152613a9481613a58565b9050919050565b6000613aa682612b31565b9150613ab183612b31565b925082821015613ac457613ac36134b4565b5b828203905092915050565b7f4f776e61626c653a2063616c6c6572206973206e6f7420746865206f776e6572600082015250565b6000613b05602083612a81565b9150613b1082613acf565b602082019050919050565b60006020820190508181036000830152613b3481613af8565b9050919050565b7f45524337323155524953746f726167653a2055524920736574206f66206e6f6e60008201527f6578697374656e7420746f6b656e000000000000000000000000000000000000602082015250565b6000613b97602e83612a81565b9150613ba282613b3b565b604082019050919050565b60006020820190508181036000830152613bc681613b8a565b9050919050565b6000819050919050565b6000819050919050565b6000613bfc613bf7613bf284613bcd565b613bd7565b612b31565b9050919050565b613c0c81613be1565b82525050565b6000608082019050613c276000830187612bc6565b613c346020830186612bc6565b613c416040830185613c03565b8181036060830152613c538184612ad6565b905095945050505050565b7f4552433732313a20617070726f766520746f2063616c6c657200000000000000600082015250565b6000613c94601983612a81565b9150613c9f82613c5e565b602082019050919050565b60006020820190508181036000830152613cc381613c87565b9050919050565b7f4552433732313a207472616e7366657220746f206e6f6e20455243373231526560008201527f63656976657220696d706c656d656e7465720000000000000000000000000000602082015250565b6000613d26603283612a81565b9150613d3182613cca565b604082019050919050565b60006020820190508181036000830152613d5581613d19565b9050919050565b600081519050919050565b600082825260208201905092915050565b6000613d8382613d5c565b613d8d8185613d67565b9350613d9d818560208601612a92565b613da681612ac5565b840191505092915050565b6000608082019050613dc66000830187612bc6565b613dd36020830186612bc6565b613de06040830185612f48565b8181036060830152613df28184613d78565b905095945050505050565b600081519050613e0c816129e7565b92915050565b600060208284031215613e2857613e276129b1565b5b6000613e3684828501613dfd565b91505092915050565b7f4e487b7100000000000000000000000000000000000000000000000000000000600052601260045260246000fd5b6000613e7982612b31565b9150613e8483612b31565b925082613e9457613e93613e3f565b5b828204905092915050565b6000613eaa82612b31565b9150613eb583612b31565b925082613ec557613ec4613e3f565b5b828206905092915050565b7f4552433732313a206d696e7420746f20746865207a65726f2061646472657373600082015250565b6000613f06602083612a81565b9150613f1182613ed0565b602082019050919050565b60006020820190508181036000830152613f3581613ef9565b9050919050565b7f4552433732313a20746f6b656e20616c7265616479206d696e74656400000000600082015250565b6000613f72601c83612a81565b9150613f7d82613f3c565b602082019050919050565b60006020820190508181036000830152613fa181613f65565b905091905056fea264697066735822122001ad4062dc1e68f8fa8e9e0529cdc68ae08fec6145abece469e0dc85923cd02264736f6c63430008090033",
  "linkReferences": {},
  "deployedLinkReferences": {}
}