{
  "_format": "hh-sol-artifact-1",
  "contractName": "NFTWarranty",
  "sourceName": "contracts/NFTWarranty.sol",
  "abi": [
    {
      "inputs": [],
      "stateMutability": "nonpayable",
      "type": "constructor"
    },
    {
      "anonymous": false,
      "inputs": [
        {
          "indexed": true,
          "internalType": "address",
          "name": "owner",
          "type": "address"
        },
        {
          "indexed": true,
          "internalType": "address",
          "name": "approved",
          "type": "address"
        },
        {
          "indexed": true,
          "internalType": "uint256",
          "name": "tokenId",
          "type": "uint256"
        }
      ],
      "name": "Approval",
      "type": "event"
    },
    {
      "anonymous": false,
      "inputs": [
        {
          "indexed": true,
          "internalType": "address",
          "name": "owner",
          "type": "address"
        },
        {
          "indexed": true,
          "internalType": "address",
          "name": "operator",
          "type": "address"
        },
        {
          "indexed": false,
          "internalType": "bool",
          "name": "approved",
          "type": "bool"
        }
      ],
      "name": "ApprovalForAll",
      "type": "event"
    },
    {
      "anonymous": false,
      "inputs": [
        {
          "indexed": true,
          "internalType": "address",
          "name": "previousOwner",
          "type": "address"
        },
        {
          "indexed": true,
          "internalType": "address",
          "name": "newOwner",
          "type": "address"
        }
      ],
      "name": "OwnershipTransferred",
      "type": "event"
    },
    {
      "anonymous": false,
      "inputs": [
        {
          "indexed": true,
          "internalType": "uint256",
          "name": "tokenID",
          "type": "uint256"
        },
        {
          "indexed": false,
          "internalType": "address",
          "name": "owner",
          "type": "address"
        },
        {
          "indexed": false,
          "internalType": "address",
          "name": "seller",
          "type": "address"
        },
        {
          "indexed": false,
          "internalType": "uint256",
          "name": "expiry",
          "type": "uint256"
        },
        {
          "indexed": false,
          "internalType": "string",
          "name": "serialID",
          "type": "string"
        }
      ],
      "name": "Success",
      "type": "event"
    },
    {
      "anonymous": false,
      "inputs": [
        {
          "indexed": true,
          "internalType": "address",
          "name": "from",
          "type": "address"
        },
        {
          "indexed": true,
          "internalType": "address",
          "name": "to",
          "type": "address"
        },
        {
          "indexed": true,
          "internalType": "uint256",
          "name": "tokenId",
          "type": "uint256"
        }
      ],
      "name": "Transfer",
      "type": "event"
    },
    {
      "inputs": [
        {
          "internalType": "address",
          "name": "to",
          "type": "address"
        },
        {
          "internalType": "uint256",
          "name": "tokenId",
          "type": "uint256"
        }
      ],
      "name": "approve",
      "outputs": [],
      "stateMutability": "nonpayable",
      "type": "function"
    },
    {
      "inputs": [
        {
          "internalType": "address",
          "name": "owner",
          "type": "address"
        }
      ],
      "name": "balanceOf",
      "outputs": [
        {
          "internalType": "uint256",
          "name": "",
          "type": "uint256"
        }
      ],
      "stateMutability": "view",
      "type": "function"
    },
    {
      "inputs": [
        {
          "internalType": "uint256",
          "name": "tokenID",
          "type": "uint256"
        }
      ],
      "name": "burnNFTByID",
      "outputs": [],
      "stateMutability": "payable",
      "type": "function"
    },
    {
      "inputs": [
        {
          "internalType": "uint256",
          "name": "tokenId",
          "type": "uint256"
        }
      ],
      "name": "getApproved",
      "outputs": [
        {
          "internalType": "address",
          "name": "",
          "type": "address"
        }
      ],
      "stateMutability": "view",
      "type": "function"
    },
    {
      "inputs": [],
      "name": "getCurrentTokenID",
      "outputs": [
        {
          "internalType": "uint256",
          "name": "",
          "type": "uint256"
        }
      ],
      "stateMutability": "view",
      "type": "function"
    },
    {
      "inputs": [
        {
          "internalType": "uint256",
          "name": "tokenID",
          "type": "uint256"
        }
      ],
      "name": "getListedByTokenID",
      "outputs": [
        {
          "components": [
            {
              "internalType": "uint256",
              "name": "tokenID",
              "type": "uint256"
            },
            {
              "internalType": "address payable",
              "name": "owner",
              "type": "address"
            },
            {
              "internalType": "address payable",
              "name": "seller",
              "type": "address"
            },
            {
              "internalType": "uint256",
              "name": "expiry",
              "type": "uint256"
            },
            {
              "internalType": "string",
              "name": "serialID",
              "type": "string"
            }
          ],
          "internalType": "struct NFTWarranty.PublishedToken",
          "name": "",
          "type": "tuple"
        }
      ],
      "stateMutability": "view",
      "type": "function"
    },
    {
      "inputs": [],
      "name": "getPublishedByUser",
      "outputs": [
        {
          "components": [
            {
              "internalType": "uint256",
              "name": "tokenID",
              "type": "uint256"
            },
            {
              "internalType": "address payable",
              "name": "owner",
              "type": "address"
            },
            {
              "internalType": "address payable",
              "name": "seller",
              "type": "address"
            },
            {
              "internalType": "uint256",
              "name": "expiry",
              "type": "uint256"
            },
            {
              "internalType": "string",
              "name": "serialID",
              "type": "string"
            }
          ],
          "internalType": "struct NFTWarranty.PublishedToken[]",
          "name": "",
          "type": "tuple[]"
        }
      ],
      "stateMutability": "view",
      "type": "function"
    },
    {
      "inputs": [],
      "name": "getTokenByCurrentID",
      "outputs": [
        {
          "components": [
            {
              "internalType": "uint256",
              "name": "tokenID",
              "type": "uint256"
            },
            {
              "internalType": "address payable",
              "name": "owner",
              "type": "address"
            },
            {
              "internalType": "address payable",
              "name": "seller",
              "type": "address"
            },
            {
              "internalType": "uint256",
              "name": "expiry",
              "type": "uint256"
            },
            {
              "internalType": "string",
              "name": "serialID",
              "type": "string"
            }
          ],
          "internalType": "struct NFTWarranty.PublishedToken",
          "name": "",
          "type": "tuple"
        }
      ],
      "stateMutability": "view",
      "type": "function"
    },
    {
      "inputs": [
        {
          "internalType": "address",
          "name": "owner",
          "type": "address"
        },
        {
          "internalType": "address",
          "name": "operator",
          "type": "address"
        }
      ],
      "name": "isApprovedForAll",
      "outputs": [
        {
          "internalType": "bool",
          "name": "",
          "type": "bool"
        }
      ],
      "stateMutability": "view",
      "type": "function"
    },
    {
      "inputs": [
        {
          "internalType": "uint256",
          "name": "tokenID",
          "type": "uint256"
        }
      ],
      "name": "isUnderWarranty",
      "outputs": [
        {
          "internalType": "bool",
          "name": "",
          "type": "bool"
        }
      ],
      "stateMutability": "nonpayable",
      "type": "function"
    },
    {
      "inputs": [
        {
          "internalType": "string",
          "name": "tokenURI",
          "type": "string"
        },
        {
          "internalType": "string",
          "name": "serialID",
          "type": "string"
        }
      ],
      "name": "mint",
      "outputs": [
        {
          "internalType": "uint256",
          "name": "",
          "type": "uint256"
        }
      ],
      "stateMutability": "payable",
      "type": "function"
    },
    {
      "inputs": [],
      "name": "name",
      "outputs": [
        {
          "internalType": "string",
          "name": "",
          "type": "string"
        }
      ],
      "stateMutability": "view",
      "type": "function"
    },
    {
      "inputs": [],
      "name": "owner",
      "outputs": [
        {
          "internalType": "address",
          "name": "",
          "type": "address"
        }
      ],
      "stateMutability": "view",
      "type": "function"
    },
    {
      "inputs": [
        {
          "internalType": "uint256",
          "name": "tokenId",
          "type": "uint256"
        }
      ],
      "name": "ownerOf",
      "outputs": [
        {
          "internalType": "address",
          "name": "",
          "type": "address"
        }
      ],
      "stateMutability": "view",
      "type": "function"
    },
    {
      "inputs": [],
      "name": "renounceOwnership",
      "outputs": [],
      "stateMutability": "nonpayable",
      "type": "function"
    },
    {
      "inputs": [
        {
          "internalType": "address",
          "name": "from",
          "type": "address"
        },
        {
          "internalType": "address",
          "name": "to",
          "type": "address"
        },
        {
          "internalType": "uint256",
          "name": "tokenId",
          "type": "uint256"
        }
      ],
      "name": "safeTransferFrom",
      "outputs": [],
      "stateMutability": "nonpayable",
      "type": "function"
    },
    {
      "inputs": [
        {
          "internalType": "address",
          "name": "from",
          "type": "address"
        },
        {
          "internalType": "address",
          "name": "to",
          "type": "address"
        },
        {
          "internalType": "uint256",
          "name": "tokenId",
          "type": "uint256"
        },
        {
          "internalType": "bytes",
          "name": "data",
          "type": "bytes"
        }
      ],
      "name": "safeTransferFrom",
      "outputs": [],
      "stateMutability": "nonpayable",
      "type": "function"
    },
    {
      "inputs": [
        {
          "internalType": "address",
          "name": "operator",
          "type": "address"
        },
        {
          "internalType": "bool",
          "name": "approved",
          "type": "bool"
        }
      ],
      "name": "setApprovalForAll",
      "outputs": [],
      "stateMutability": "nonpayable",
      "type": "function"
    },
    {
      "inputs": [
        {
          "internalType": "bytes4",
          "name": "interfaceId",
          "type": "bytes4"
        }
      ],
      "name": "supportsInterface",
      "outputs": [
        {
          "internalType": "bool",
          "name": "",
          "type": "bool"
        }
      ],
      "stateMutability": "view",
      "type": "function"
    },
    {
      "inputs": [],
      "name": "symbol",
      "outputs": [
        {
          "internalType": "string",
          "name": "",
          "type": "string"
        }
      ],
      "stateMutability": "view",
      "type": "function"
    },
    {
      "inputs": [
        {
          "internalType": "uint256",
          "name": "tokenId",
          "type": "uint256"
        }
      ],
      "name": "tokenURI",
      "outputs": [
        {
          "internalType": "string",
          "name": "",
          "type": "string"
        }
      ],
      "stateMutability": "view",
      "type": "function"
    },
    {
      "inputs": [
        {
          "internalType": "uint256",
          "name": "tokenID",
          "type": "uint256"
        },
        {
          "internalType": "uint256",
          "name": "expiry",
          "type": "uint256"
        }
      ],
      "name": "transferByID",
      "outputs": [],
      "stateMutability": "payable",
      "type": "function"
    },
    {
      "inputs": [
        {
          "internalType": "address",
          "name": "from",
          "type": "address"
        },
        {
          "internalType": "address",
          "name": "to",
          "type": "address"
        },
        {
          "internalType": "uint256",
          "name": "tokenId",
          "type": "uint256"
        }
      ],
      "name": "transferFrom",
      "outputs": [],
      "stateMutability": "nonpayable",
      "type": "function"
    },
    {
      "inputs": [
        {
          "internalType": "address",
          "name": "newOwner",
          "type": "address"
        }
      ],
      "name": "transferOwnership",
      "outputs": [],
      "stateMutability": "nonpayable",
      "type": "function"
    }
  ],
  "bytecode": "0x60806040523480156200001157600080fd5b506040518060400160405280600b81526020017f4e465457617272616e74790000000000000000000000000000000000000000008152506040518060400160405280600481526020017f4e46544300000000000000000000000000000000000000000000000000000000815250816000908051906020019062000096929190620001a6565b508060019080519060200190620000af929190620001a6565b505050620000d2620000c6620000d860201b60201c565b620000e060201b60201c565b620002bb565b600033905090565b6000600760009054906101000a900473ffffffffffffffffffffffffffffffffffffffff16905081600760006101000a81548173ffffffffffffffffffffffffffffffffffffffff021916908373ffffffffffffffffffffffffffffffffffffffff1602179055508173ffffffffffffffffffffffffffffffffffffffff168173ffffffffffffffffffffffffffffffffffffffff167f8be0079c531659141344cd1fd0a4f28419497f9722a3daafe3b4186f6b6457e060405160405180910390a35050565b828054620001b49062000285565b90600052602060002090601f016020900481019282620001d8576000855562000224565b82601f10620001f357805160ff191683800117855562000224565b8280016001018555821562000224579182015b828111156200022357825182559160200191906001019062000206565b5b50905062000233919062000237565b5090565b5b808211156200025257600081600090555060010162000238565b5090565b7f4e487b7100000000000000000000000000000000000000000000000000000000600052602260045260246000fd5b600060028204905060018216806200029e57607f821691505b60208210811415620002b557620002b462000256565b5b50919050565b61410880620002cb6000396000f3fe60806040526004361061014b5760003560e01c80638af3efb4116100b6578063c4a6d0d21161006f578063c4a6d0d214610488578063c87b56dd146104b3578063e985e9c5146104f0578063f2fde38b1461052d578063f3d28f9b14610556578063ffa3681a146105935761014b565b80638af3efb4146103995780638da5cb5b146103c457806395d89b41146103ef578063a22cb4651461041a578063b88d4fde14610443578063b9ed183c1461046c5761014b565b806323b872dd1161010857806323b872dd1461028657806342842e0e146102af5780636352211e146102d857806370a0823114610315578063715018a6146103525780638aa0fdad146103695761014b565b806301ffc9a71461015057806306fdde031461018d578063081812fc146101b8578063095ea7b3146101f557806311d000a21461021e5780632242f96814610249575b600080fd5b34801561015c57600080fd5b5061017760048036038101906101729190612b3d565b6105af565b6040516101849190612b85565b60405180910390f35b34801561019957600080fd5b506101a2610691565b6040516101af9190612c39565b60405180910390f35b3480156101c457600080fd5b506101df60048036038101906101da9190612c91565b610723565b6040516101ec9190612cff565b60405180910390f35b34801561020157600080fd5b5061021c60048036038101906102179190612d46565b610769565b005b34801561022a57600080fd5b50610233610881565b6040516102409190612f38565b60405180910390f35b34801561025557600080fd5b50610270600480360381019061026b9190612c91565b610cd6565b60405161027d9190612fd0565b60405180910390f35b34801561029257600080fd5b506102ad60048036038101906102a89190612ff2565b610e55565b005b3480156102bb57600080fd5b506102d660048036038101906102d19190612ff2565b610eb5565b005b3480156102e457600080fd5b506102ff60048036038101906102fa9190612c91565b610ed5565b60405161030c9190612cff565b60405180910390f35b34801561032157600080fd5b5061033c60048036038101906103379190613045565b610f87565b6040516103499190613081565b60405180910390f35b34801561035e57600080fd5b5061036761103f565b005b610383600480360381019061037e91906131d1565b611053565b6040516103909190613081565b60405180910390f35b3480156103a557600080fd5b506103ae611095565b6040516103bb9190612fd0565b60405180910390f35b3480156103d057600080fd5b506103d9611221565b6040516103e69190612cff565b60405180910390f35b3480156103fb57600080fd5b5061040461124b565b6040516104119190612c39565b60405180910390f35b34801561042657600080fd5b50610441600480360381019061043c9190613275565b6112dd565b005b34801561044f57600080fd5b5061046a60048036038101906104659190613356565b6112f3565b005b61048660048036038101906104819190612c91565b611355565b005b34801561049457600080fd5b5061049d611413565b6040516104aa9190613081565b60405180910390f35b3480156104bf57600080fd5b506104da60048036038101906104d59190612c91565b611424565b6040516104e79190612c39565b60405180910390f35b3480156104fc57600080fd5b50610517600480360381019061051291906133d9565b611537565b6040516105249190612b85565b60405180910390f35b34801561053957600080fd5b50610554600480360381019061054f9190613045565b6115cb565b005b34801561056257600080fd5b5061057d60048036038101906105789190612c91565b61164f565b60405161058a9190612b85565b60405180910390f35b6105ad60048036038101906105a89190613419565b61170b565b005b60007f80ac58cd000000000000000000000000000000000000000000000000000000007bffffffffffffffffffffffffffffffffffffffffffffffffffffffff1916827bffffffffffffffffffffffffffffffffffffffffffffffffffffffff1916148061067a57507f5b5e139f000000000000000000000000000000000000000000000000000000007bffffffffffffffffffffffffffffffffffffffffffffffffffffffff1916827bffffffffffffffffffffffffffffffffffffffffffffffffffffffff1916145b8061068a57506106898261180c565b5b9050919050565b6060600080546106a090613488565b80601f01602080910402602001604051908101604052809291908181526020018280546106cc90613488565b80156107195780601f106106ee57610100808354040283529160200191610719565b820191906000526020600020905b8154815290600101906020018083116106fc57829003601f168201915b5050505050905090565b600061072e82611876565b6004600083815260200190815260200160002060009054906101000a900473ffffffffffffffffffffffffffffffffffffffff169050919050565b600061077482610ed5565b90508073ffffffffffffffffffffffffffffffffffffffff168373ffffffffffffffffffffffffffffffffffffffff1614156107e5576040517f08c379a00000000000000000000000000000000000000000000000000000000081526004016107dc9061352c565b60405180910390fd5b8073ffffffffffffffffffffffffffffffffffffffff166108046118c1565b73ffffffffffffffffffffffffffffffffffffffff16148061083357506108328161082d6118c1565b611537565b5b610872576040517f08c379a0000000000000000000000000000000000000000000000000000000008152600401610869906135be565b60405180910390fd5b61087c83836118c9565b505050565b6060600061088f6008611982565b905060008060005b838110156109b0573373ffffffffffffffffffffffffffffffffffffffff16600a60006001846108c7919061360d565b815260200190815260200160002060010160009054906101000a900473ffffffffffffffffffffffffffffffffffffffff1673ffffffffffffffffffffffffffffffffffffffff16148061098857503373ffffffffffffffffffffffffffffffffffffffff16600a600060018461093e919061360d565b815260200190815260200160002060020160009054906101000a900473ffffffffffffffffffffffffffffffffffffffff1673ffffffffffffffffffffffffffffffffffffffff16145b1561099d5760018361099a919061360d565b92505b80806109a890613663565b915050610897565b5060008267ffffffffffffffff8111156109cd576109cc6130a6565b5b604051908082528060200260200182016040528015610a0657816020015b6109f3612993565b8152602001906001900390816109eb5790505b50905060005b84811015610ccb573373ffffffffffffffffffffffffffffffffffffffff16600a6000600184610a3c919061360d565b815260200190815260200160002060010160009054906101000a900473ffffffffffffffffffffffffffffffffffffffff1673ffffffffffffffffffffffffffffffffffffffff161480610afd57503373ffffffffffffffffffffffffffffffffffffffff16600a6000600184610ab3919061360d565b815260200190815260200160002060020160009054906101000a900473ffffffffffffffffffffffffffffffffffffffff1673ffffffffffffffffffffffffffffffffffffffff16145b15610cb8576000600182610b11919061360d565b90506000600a60008381526020019081526020016000209050806040518060a0016040529081600082015481526020016001820160009054906101000a900473ffffffffffffffffffffffffffffffffffffffff1673ffffffffffffffffffffffffffffffffffffffff1673ffffffffffffffffffffffffffffffffffffffff1681526020016002820160009054906101000a900473ffffffffffffffffffffffffffffffffffffffff1673ffffffffffffffffffffffffffffffffffffffff1673ffffffffffffffffffffffffffffffffffffffff16815260200160038201548152602001600482018054610c0690613488565b80601f0160208091040260200160405190810160405280929190818152602001828054610c3290613488565b8015610c7f5780601f10610c5457610100808354040283529160200191610c7f565b820191906000526020600020905b815481529060010190602001808311610c6257829003601f168201915b505050505081525050848681518110610c9b57610c9a6136ac565b5b6020026020010181905250600185610cb3919061360d565b945050505b8080610cc390613663565b915050610a0c565b508094505050505090565b610cde612993565b600a60008381526020019081526020016000206040518060a0016040529081600082015481526020016001820160009054906101000a900473ffffffffffffffffffffffffffffffffffffffff1673ffffffffffffffffffffffffffffffffffffffff1673ffffffffffffffffffffffffffffffffffffffff1681526020016002820160009054906101000a900473ffffffffffffffffffffffffffffffffffffffff1673ffffffffffffffffffffffffffffffffffffffff1673ffffffffffffffffffffffffffffffffffffffff16815260200160038201548152602001600482018054610dcc90613488565b80601f0160208091040260200160405190810160405280929190818152602001828054610df890613488565b8015610e455780601f10610e1a57610100808354040283529160200191610e45565b820191906000526020600020905b815481529060010190602001808311610e2857829003601f168201915b5050505050815250509050919050565b610e66610e606118c1565b82611990565b610ea5576040517f08c379a0000000000000000000000000000000000000000000000000000000008152600401610e9c9061374d565b60405180910390fd5b610eb0838383611a25565b505050565b610ed0838383604051806020016040528060008152506112f3565b505050565b6000806002600084815260200190815260200160002060009054906101000a900473ffffffffffffffffffffffffffffffffffffffff169050600073ffffffffffffffffffffffffffffffffffffffff168173ffffffffffffffffffffffffffffffffffffffff161415610f7e576040517f08c379a0000000000000000000000000000000000000000000000000000000008152600401610f75906137b9565b60405180910390fd5b80915050919050565b60008073ffffffffffffffffffffffffffffffffffffffff168273ffffffffffffffffffffffffffffffffffffffff161415610ff8576040517f08c379a0000000000000000000000000000000000000000000000000000000008152600401610fef9061384b565b60405180910390fd5b600360008373ffffffffffffffffffffffffffffffffffffffff1673ffffffffffffffffffffffffffffffffffffffff168152602001908152602001600020549050919050565b611047611c8c565b6110516000611d0a565b565b600061105f6008611dd0565b600061106b6008611982565b90506110773382611de6565b6110818185611e04565b61108b8184611e78565b8091505092915050565b61109d612993565b60006110a96008611982565b9050600a60008281526020019081526020016000206040518060a0016040529081600082015481526020016001820160009054906101000a900473ffffffffffffffffffffffffffffffffffffffff1673ffffffffffffffffffffffffffffffffffffffff1673ffffffffffffffffffffffffffffffffffffffff1681526020016002820160009054906101000a900473ffffffffffffffffffffffffffffffffffffffff1673ffffffffffffffffffffffffffffffffffffffff1673ffffffffffffffffffffffffffffffffffffffff1681526020016003820154815260200160048201805461119990613488565b80601f01602080910402602001604051908101604052809291908181526020018280546111c590613488565b80156112125780601f106111e757610100808354040283529160200191611212565b820191906000526020600020905b8154815290600101906020018083116111f557829003601f168201915b50505050508152505091505090565b6000600760009054906101000a900473ffffffffffffffffffffffffffffffffffffffff16905090565b60606001805461125a90613488565b80601f016020809104026020016040519081016040528092919081815260200182805461128690613488565b80156112d35780601f106112a8576101008083540402835291602001916112d3565b820191906000526020600020905b8154815290600101906020018083116112b657829003601f168201915b5050505050905090565b6112ef6112e86118c1565b8383611fef565b5050565b6113046112fe6118c1565b83611990565b611343576040517f08c379a000000000000000000000000000000000000000000000000000000000815260040161133a9061374d565b60405180910390fd5b61134f8484848461215c565b50505050565b6000600a60008381526020019081526020016000206003015414156113af576040517f08c379a00000000000000000000000000000000000000000000000000000000081526004016113a6906138b7565b60405180910390fd5b600a6000828152602001908152602001600020600301544211611407576040517f08c379a00000000000000000000000000000000000000000000000000000000081526004016113fe90613923565b60405180910390fd5b611410816121b8565b50565b600061141f6008611982565b905090565b606061142f82611876565b600060066000848152602001908152602001600020805461144f90613488565b80601f016020809104026020016040519081016040528092919081815260200182805461147b90613488565b80156114c85780601f1061149d576101008083540402835291602001916114c8565b820191906000526020600020905b8154815290600101906020018083116114ab57829003601f168201915b5050505050905060006114d961220b565b90506000815114156114ef578192505050611532565b60008251111561152457808260405160200161150c92919061397f565b60405160208183030381529060405292505050611532565b61152d84612248565b925050505b919050565b6000600560008473ffffffffffffffffffffffffffffffffffffffff1673ffffffffffffffffffffffffffffffffffffffff16815260200190815260200160002060008373ffffffffffffffffffffffffffffffffffffffff1673ffffffffffffffffffffffffffffffffffffffff16815260200190815260200160002060009054906101000a900460ff16905092915050565b6115d3611c8c565b600073ffffffffffffffffffffffffffffffffffffffff168173ffffffffffffffffffffffffffffffffffffffff161415611643576040517f08c379a000000000000000000000000000000000000000000000000000000000815260040161163a90613a15565b60405180910390fd5b61164c81611d0a565b50565b600080600a60008481526020019081526020016000206003015414156116aa576040517f08c379a00000000000000000000000000000000000000000000000000000000081526004016116a1906138b7565b60405180910390fd5b600a6000838152602001908152602001600020600301544211611702576040517f08c379a00000000000000000000000000000000000000000000000000000000081526004016116f990613923565b60405180910390fd5b60019050919050565b6000811161174e576040517f08c379a000000000000000000000000000000000000000000000000000000000815260040161174590613a81565b60405180910390fd5b6000600a6000848152602001908152602001600020600301541415611794578042611779919061360d565b600a6000848152602001908152602001600020600301819055505b33600a600084815260200190815260200160002060020160006101000a81548173ffffffffffffffffffffffffffffffffffffffff021916908373ffffffffffffffffffffffffffffffffffffffff1602179055506117f36009611dd0565b6117fe303384611a25565b6118083083610769565b5050565b60007f01ffc9a7000000000000000000000000000000000000000000000000000000007bffffffffffffffffffffffffffffffffffffffffffffffffffffffff1916827bffffffffffffffffffffffffffffffffffffffffffffffffffffffff1916149050919050565b61187f816122b0565b6118be576040517f08c379a00000000000000000000000000000000000000000000000000000000081526004016118b5906137b9565b60405180910390fd5b50565b600033905090565b816004600083815260200190815260200160002060006101000a81548173ffffffffffffffffffffffffffffffffffffffff021916908373ffffffffffffffffffffffffffffffffffffffff160217905550808273ffffffffffffffffffffffffffffffffffffffff1661193c83610ed5565b73ffffffffffffffffffffffffffffffffffffffff167f8c5be1e5ebec7d5bd14f71427d1e84f3dd0314c0f7b2291e5b200ac8c7c3b92560405160405180910390a45050565b600081600001549050919050565b60008061199c83610ed5565b90508073ffffffffffffffffffffffffffffffffffffffff168473ffffffffffffffffffffffffffffffffffffffff1614806119de57506119dd8185611537565b5b80611a1c57508373ffffffffffffffffffffffffffffffffffffffff16611a0484610723565b73ffffffffffffffffffffffffffffffffffffffff16145b91505092915050565b8273ffffffffffffffffffffffffffffffffffffffff16611a4582610ed5565b73ffffffffffffffffffffffffffffffffffffffff1614611a9b576040517f08c379a0000000000000000000000000000000000000000000000000000000008152600401611a9290613b13565b60405180910390fd5b600073ffffffffffffffffffffffffffffffffffffffff168273ffffffffffffffffffffffffffffffffffffffff161415611b0b576040517f08c379a0000000000000000000000000000000000000000000000000000000008152600401611b0290613ba5565b60405180910390fd5b611b1683838361231c565b611b216000826118c9565b6001600360008573ffffffffffffffffffffffffffffffffffffffff1673ffffffffffffffffffffffffffffffffffffffff1681526020019081526020016000206000828254611b719190613bc5565b925050819055506001600360008473ffffffffffffffffffffffffffffffffffffffff1673ffffffffffffffffffffffffffffffffffffffff1681526020019081526020016000206000828254611bc8919061360d565b92505081905550816002600083815260200190815260200160002060006101000a81548173ffffffffffffffffffffffffffffffffffffffff021916908373ffffffffffffffffffffffffffffffffffffffff160217905550808273ffffffffffffffffffffffffffffffffffffffff168473ffffffffffffffffffffffffffffffffffffffff167fddf252ad1be2c89b69c2b068fc378daa952ba7f163c4a11628f55a4df523b3ef60405160405180910390a4611c87838383612321565b505050565b611c946118c1565b73ffffffffffffffffffffffffffffffffffffffff16611cb2611221565b73ffffffffffffffffffffffffffffffffffffffff1614611d08576040517f08c379a0000000000000000000000000000000000000000000000000000000008152600401611cff90613c45565b60405180910390fd5b565b6000600760009054906101000a900473ffffffffffffffffffffffffffffffffffffffff16905081600760006101000a81548173ffffffffffffffffffffffffffffffffffffffff021916908373ffffffffffffffffffffffffffffffffffffffff1602179055508173ffffffffffffffffffffffffffffffffffffffff168173ffffffffffffffffffffffffffffffffffffffff167f8be0079c531659141344cd1fd0a4f28419497f9722a3daafe3b4186f6b6457e060405160405180910390a35050565b6001816000016000828254019250508190555050565b611e00828260405180602001604052806000815250612326565b5050565b611e0d826122b0565b611e4c576040517f08c379a0000000000000000000000000000000000000000000000000000000008152600401611e4390613cd7565b60405180910390fd5b80600660008481526020019081526020016000209080519060200190611e739291906129ee565b505050565b6040518060a001604052808381526020013073ffffffffffffffffffffffffffffffffffffffff1681526020013373ffffffffffffffffffffffffffffffffffffffff1681526020016000815260200182815250600a60008481526020019081526020016000206000820151816000015560208201518160010160006101000a81548173ffffffffffffffffffffffffffffffffffffffff021916908373ffffffffffffffffffffffffffffffffffffffff16021790555060408201518160020160006101000a81548173ffffffffffffffffffffffffffffffffffffffff021916908373ffffffffffffffffffffffffffffffffffffffff160217905550606082015181600301556080820151816004019080519060200190611f9d9291906129ee565b50905050611fac333084611a25565b817f21ff57e838b7243e426a291cdbca20be44c58956dc17315526f908da84150b033033600085604051611fe39493929190613d3c565b60405180910390a25050565b8173ffffffffffffffffffffffffffffffffffffffff168373ffffffffffffffffffffffffffffffffffffffff16141561205e576040517f08c379a000000000000000000000000000000000000000000000000000000000815260040161205590613dd4565b60405180910390fd5b80600560008573ffffffffffffffffffffffffffffffffffffffff1673ffffffffffffffffffffffffffffffffffffffff16815260200190815260200160002060008473ffffffffffffffffffffffffffffffffffffffff1673ffffffffffffffffffffffffffffffffffffffff16815260200190815260200160002060006101000a81548160ff0219169083151502179055508173ffffffffffffffffffffffffffffffffffffffff168373ffffffffffffffffffffffffffffffffffffffff167f17307eab39ab6107e8899845ad3d59bd9653f200f220920489ca2b5937696c318360405161214f9190612b85565b60405180910390a3505050565b612167848484611a25565b61217384848484612381565b6121b2576040517f08c379a00000000000000000000000000000000000000000000000000000000081526004016121a990613e66565b60405180910390fd5b50505050565b6121c181612518565b60006006600083815260200190815260200160002080546121e190613488565b905014612208576006600082815260200190815260200160002060006122079190612a74565b5b50565b60606040518060400160405280600781526020017f697066733a2f2f00000000000000000000000000000000000000000000000000815250905090565b606061225382611876565b600061225d61220b565b9050600081511161227d57604051806020016040528060008152506122a8565b8061228784612635565b60405160200161229892919061397f565b6040516020818303038152906040525b915050919050565b60008073ffffffffffffffffffffffffffffffffffffffff166002600084815260200190815260200160002060009054906101000a900473ffffffffffffffffffffffffffffffffffffffff1673ffffffffffffffffffffffffffffffffffffffff1614159050919050565b505050565b505050565b6123308383612796565b61233d6000848484612381565b61237c576040517f08c379a000000000000000000000000000000000000000000000000000000000815260040161237390613e66565b60405180910390fd5b505050565b60006123a28473ffffffffffffffffffffffffffffffffffffffff16612970565b1561250b578373ffffffffffffffffffffffffffffffffffffffff1663150b7a026123cb6118c1565b8786866040518563ffffffff1660e01b81526004016123ed9493929190613edb565b602060405180830381600087803b15801561240757600080fd5b505af192505050801561243857506040513d601f19601f820116820180604052508101906124359190613f3c565b60015b6124bb573d8060008114612468576040519150601f19603f3d011682016040523d82523d6000602084013e61246d565b606091505b506000815114156124b3576040517f08c379a00000000000000000000000000000000000000000000000000000000081526004016124aa90613e66565b60405180910390fd5b805181602001fd5b63150b7a0260e01b7bffffffffffffffffffffffffffffffffffffffffffffffffffffffff1916817bffffffffffffffffffffffffffffffffffffffffffffffffffffffff191614915050612510565b600190505b949350505050565b600061252382610ed5565b90506125318160008461231c565b61253c6000836118c9565b6001600360008373ffffffffffffffffffffffffffffffffffffffff1673ffffffffffffffffffffffffffffffffffffffff168152602001908152602001600020600082825461258c9190613bc5565b925050819055506002600083815260200190815260200160002060006101000a81549073ffffffffffffffffffffffffffffffffffffffff021916905581600073ffffffffffffffffffffffffffffffffffffffff168273ffffffffffffffffffffffffffffffffffffffff167fddf252ad1be2c89b69c2b068fc378daa952ba7f163c4a11628f55a4df523b3ef60405160405180910390a461263181600084612321565b5050565b6060600082141561267d576040518060400160405280600181526020017f30000000000000000000000000000000000000000000000000000000000000008152509050612791565b600082905060005b600082146126af57808061269890613663565b915050600a826126a89190613f98565b9150612685565b60008167ffffffffffffffff8111156126cb576126ca6130a6565b5b6040519080825280601f01601f1916602001820160405280156126fd5781602001600182028036833780820191505090505b5090505b6000851461278a576001826127169190613bc5565b9150600a856127259190613fc9565b6030612731919061360d565b60f81b818381518110612747576127466136ac565b5b60200101907effffffffffffffffffffffffffffffffffffffffffffffffffffffffffffff1916908160001a905350600a856127839190613f98565b9450612701565b8093505050505b919050565b600073ffffffffffffffffffffffffffffffffffffffff168273ffffffffffffffffffffffffffffffffffffffff161415612806576040517f08c379a00000000000000000000000000000000000000000000000000000000081526004016127fd90614046565b60405180910390fd5b61280f816122b0565b1561284f576040517f08c379a0000000000000000000000000000000000000000000000000000000008152600401612846906140b2565b60405180910390fd5b61285b6000838361231c565b6001600360008473ffffffffffffffffffffffffffffffffffffffff1673ffffffffffffffffffffffffffffffffffffffff16815260200190815260200160002060008282546128ab919061360d565b92505081905550816002600083815260200190815260200160002060006101000a81548173ffffffffffffffffffffffffffffffffffffffff021916908373ffffffffffffffffffffffffffffffffffffffff160217905550808273ffffffffffffffffffffffffffffffffffffffff16600073ffffffffffffffffffffffffffffffffffffffff167fddf252ad1be2c89b69c2b068fc378daa952ba7f163c4a11628f55a4df523b3ef60405160405180910390a461296c60008383612321565b5050565b6000808273ffffffffffffffffffffffffffffffffffffffff163b119050919050565b6040518060a0016040528060008152602001600073ffffffffffffffffffffffffffffffffffffffff168152602001600073ffffffffffffffffffffffffffffffffffffffff16815260200160008152602001606081525090565b8280546129fa90613488565b90600052602060002090601f016020900481019282612a1c5760008555612a63565b82601f10612a3557805160ff1916838001178555612a63565b82800160010185558215612a63579182015b82811115612a62578251825591602001919060010190612a47565b5b509050612a709190612ab4565b5090565b508054612a8090613488565b6000825580601f10612a925750612ab1565b601f016020900490600052602060002090810190612ab09190612ab4565b5b50565b5b80821115612acd576000816000905550600101612ab5565b5090565b6000604051905090565b600080fd5b600080fd5b60007fffffffff0000000000000000000000000000000000000000000000000000000082169050919050565b612b1a81612ae5565b8114612b2557600080fd5b50565b600081359050612b3781612b11565b92915050565b600060208284031215612b5357612b52612adb565b5b6000612b6184828501612b28565b91505092915050565b60008115159050919050565b612b7f81612b6a565b82525050565b6000602082019050612b9a6000830184612b76565b92915050565b600081519050919050565b600082825260208201905092915050565b60005b83811015612bda578082015181840152602081019050612bbf565b83811115612be9576000848401525b50505050565b6000601f19601f8301169050919050565b6000612c0b82612ba0565b612c158185612bab565b9350612c25818560208601612bbc565b612c2e81612bef565b840191505092915050565b60006020820190508181036000830152612c538184612c00565b905092915050565b6000819050919050565b612c6e81612c5b565b8114612c7957600080fd5b50565b600081359050612c8b81612c65565b92915050565b600060208284031215612ca757612ca6612adb565b5b6000612cb584828501612c7c565b91505092915050565b600073ffffffffffffffffffffffffffffffffffffffff82169050919050565b6000612ce982612cbe565b9050919050565b612cf981612cde565b82525050565b6000602082019050612d146000830184612cf0565b92915050565b612d2381612cde565b8114612d2e57600080fd5b50565b600081359050612d4081612d1a565b92915050565b60008060408385031215612d5d57612d5c612adb565b5b6000612d6b85828601612d31565b9250506020612d7c85828601612c7c565b9150509250929050565b600081519050919050565b600082825260208201905092915050565b6000819050602082019050919050565b612dbb81612c5b565b82525050565b6000612dcc82612cbe565b9050919050565b612ddc81612dc1565b82525050565b600082825260208201905092915050565b6000612dfe82612ba0565b612e088185612de2565b9350612e18818560208601612bbc565b612e2181612bef565b840191505092915050565b600060a083016000830151612e446000860182612db2565b506020830151612e576020860182612dd3565b506040830151612e6a6040860182612dd3565b506060830151612e7d6060860182612db2565b5060808301518482036080860152612e958282612df3565b9150508091505092915050565b6000612eae8383612e2c565b905092915050565b6000602082019050919050565b6000612ece82612d86565b612ed88185612d91565b935083602082028501612eea85612da2565b8060005b85811015612f265784840389528151612f078582612ea2565b9450612f1283612eb6565b925060208a01995050600181019050612eee565b50829750879550505050505092915050565b60006020820190508181036000830152612f528184612ec3565b905092915050565b600060a083016000830151612f726000860182612db2565b506020830151612f856020860182612dd3565b506040830151612f986040860182612dd3565b506060830151612fab6060860182612db2565b5060808301518482036080860152612fc38282612df3565b9150508091505092915050565b60006020820190508181036000830152612fea8184612f5a565b905092915050565b60008060006060848603121561300b5761300a612adb565b5b600061301986828701612d31565b935050602061302a86828701612d31565b925050604061303b86828701612c7c565b9150509250925092565b60006020828403121561305b5761305a612adb565b5b600061306984828501612d31565b91505092915050565b61307b81612c5b565b82525050565b60006020820190506130966000830184613072565b92915050565b600080fd5b600080fd5b7f4e487b7100000000000000000000000000000000000000000000000000000000600052604160045260246000fd5b6130de82612bef565b810181811067ffffffffffffffff821117156130fd576130fc6130a6565b5b80604052505050565b6000613110612ad1565b905061311c82826130d5565b919050565b600067ffffffffffffffff82111561313c5761313b6130a6565b5b61314582612bef565b9050602081019050919050565b82818337600083830152505050565b600061317461316f84613121565b613106565b9050828152602081018484840111156131905761318f6130a1565b5b61319b848285613152565b509392505050565b600082601f8301126131b8576131b761309c565b5b81356131c8848260208601613161565b91505092915050565b600080604083850312156131e8576131e7612adb565b5b600083013567ffffffffffffffff81111561320657613205612ae0565b5b613212858286016131a3565b925050602083013567ffffffffffffffff81111561323357613232612ae0565b5b61323f858286016131a3565b9150509250929050565b61325281612b6a565b811461325d57600080fd5b50565b60008135905061326f81613249565b92915050565b6000806040838503121561328c5761328b612adb565b5b600061329a85828601612d31565b92505060206132ab85828601613260565b9150509250929050565b600067ffffffffffffffff8211156132d0576132cf6130a6565b5b6132d982612bef565b9050602081019050919050565b60006132f96132f4846132b5565b613106565b905082815260208101848484011115613315576133146130a1565b5b613320848285613152565b509392505050565b600082601f83011261333d5761333c61309c565b5b813561334d8482602086016132e6565b91505092915050565b600080600080608085870312156133705761336f612adb565b5b600061337e87828801612d31565b945050602061338f87828801612d31565b93505060406133a087828801612c7c565b925050606085013567ffffffffffffffff8111156133c1576133c0612ae0565b5b6133cd87828801613328565b91505092959194509250565b600080604083850312156133f0576133ef612adb565b5b60006133fe85828601612d31565b925050602061340f85828601612d31565b9150509250929050565b600080604083850312156134305761342f612adb565b5b600061343e85828601612c7c565b925050602061344f85828601612c7c565b9150509250929050565b7f4e487b7100000000000000000000000000000000000000000000000000000000600052602260045260246000fd5b600060028204905060018216806134a057607f821691505b602082108114156134b4576134b3613459565b5b50919050565b7f4552433732313a20617070726f76616c20746f2063757272656e74206f776e6560008201527f7200000000000000000000000000000000000000000000000000000000000000602082015250565b6000613516602183612bab565b9150613521826134ba565b604082019050919050565b6000602082019050818103600083015261354581613509565b9050919050565b7f4552433732313a20617070726f76652063616c6c6572206973206e6f7420746f60008201527f6b656e206f776e6572206e6f7220617070726f76656420666f7220616c6c0000602082015250565b60006135a8603e83612bab565b91506135b38261354c565b604082019050919050565b600060208201905081810360008301526135d78161359b565b9050919050565b7f4e487b7100000000000000000000000000000000000000000000000000000000600052601160045260246000fd5b600061361882612c5b565b915061362383612c5b565b9250827fffffffffffffffffffffffffffffffffffffffffffffffffffffffffffffffff03821115613658576136576135de565b5b828201905092915050565b600061366e82612c5b565b91507fffffffffffffffffffffffffffffffffffffffffffffffffffffffffffffffff8214156136a1576136a06135de565b5b600182019050919050565b7f4e487b7100000000000000000000000000000000000000000000000000000000600052603260045260246000fd5b7f4552433732313a2063616c6c6572206973206e6f7420746f6b656e206f776e6560008201527f72206e6f7220617070726f766564000000000000000000000000000000000000602082015250565b6000613737602e83612bab565b9150613742826136db565b604082019050919050565b600060208201905081810360008301526137668161372a565b9050919050565b7f4552433732313a20696e76616c696420746f6b656e2049440000000000000000600082015250565b60006137a3601883612bab565b91506137ae8261376d565b602082019050919050565b600060208201905081810360008301526137d281613796565b9050919050565b7f4552433732313a2061646472657373207a65726f206973206e6f74206120766160008201527f6c6964206f776e65720000000000000000000000000000000000000000000000602082015250565b6000613835602983612bab565b9150613840826137d9565b604082019050919050565b6000602082019050818103600083015261386481613828565b9050919050565b7f57617272616e747920446f65736e277420657869737400000000000000000000600082015250565b60006138a1601683612bab565b91506138ac8261386b565b602082019050919050565b600060208201905081810360008301526138d081613894565b9050919050565b7f57617272616e7479206973206578706972656400000000000000000000000000600082015250565b600061390d601383612bab565b9150613918826138d7565b602082019050919050565b6000602082019050818103600083015261393c81613900565b9050919050565b600081905092915050565b600061395982612ba0565b6139638185613943565b9350613973818560208601612bbc565b80840191505092915050565b600061398b828561394e565b9150613997828461394e565b91508190509392505050565b7f4f776e61626c653a206e6577206f776e657220697320746865207a65726f206160008201527f6464726573730000000000000000000000000000000000000000000000000000602082015250565b60006139ff602683612bab565b9150613a0a826139a3565b604082019050919050565b60006020820190508181036000830152613a2e816139f2565b9050919050565b7f506c6561736520656e74657220612076616c6964206578706972792074696d65600082015250565b6000613a6b602083612bab565b9150613a7682613a35565b602082019050919050565b60006020820190508181036000830152613a9a81613a5e565b9050919050565b7f4552433732313a207472616e736665722066726f6d20696e636f72726563742060008201527f6f776e6572000000000000000000000000000000000000000000000000000000602082015250565b6000613afd602583612bab565b9150613b0882613aa1565b604082019050919050565b60006020820190508181036000830152613b2c81613af0565b9050919050565b7f4552433732313a207472616e7366657220746f20746865207a65726f2061646460008201527f7265737300000000000000000000000000000000000000000000000000000000602082015250565b6000613b8f602483612bab565b9150613b9a82613b33565b604082019050919050565b60006020820190508181036000830152613bbe81613b82565b9050919050565b6000613bd082612c5b565b9150613bdb83612c5b565b925082821015613bee57613bed6135de565b5b828203905092915050565b7f4f776e61626c653a2063616c6c6572206973206e6f7420746865206f776e6572600082015250565b6000613c2f602083612bab565b9150613c3a82613bf9565b602082019050919050565b60006020820190508181036000830152613c5e81613c22565b9050919050565b7f45524337323155524953746f726167653a2055524920736574206f66206e6f6e60008201527f6578697374656e7420746f6b656e000000000000000000000000000000000000602082015250565b6000613cc1602e83612bab565b9150613ccc82613c65565b604082019050919050565b60006020820190508181036000830152613cf081613cb4565b9050919050565b6000819050919050565b6000819050919050565b6000613d26613d21613d1c84613cf7565b613d01565b612c5b565b9050919050565b613d3681613d0b565b82525050565b6000608082019050613d516000830187612cf0565b613d5e6020830186612cf0565b613d6b6040830185613d2d565b8181036060830152613d7d8184612c00565b905095945050505050565b7f4552433732313a20617070726f766520746f2063616c6c657200000000000000600082015250565b6000613dbe601983612bab565b9150613dc982613d88565b602082019050919050565b60006020820190508181036000830152613ded81613db1565b9050919050565b7f4552433732313a207472616e7366657220746f206e6f6e20455243373231526560008201527f63656976657220696d706c656d656e7465720000000000000000000000000000602082015250565b6000613e50603283612bab565b9150613e5b82613df4565b604082019050919050565b60006020820190508181036000830152613e7f81613e43565b9050919050565b600081519050919050565b600082825260208201905092915050565b6000613ead82613e86565b613eb78185613e91565b9350613ec7818560208601612bbc565b613ed081612bef565b840191505092915050565b6000608082019050613ef06000830187612cf0565b613efd6020830186612cf0565b613f0a6040830185613072565b8181036060830152613f1c8184613ea2565b905095945050505050565b600081519050613f3681612b11565b92915050565b600060208284031215613f5257613f51612adb565b5b6000613f6084828501613f27565b91505092915050565b7f4e487b7100000000000000000000000000000000000000000000000000000000600052601260045260246000fd5b6000613fa382612c5b565b9150613fae83612c5b565b925082613fbe57613fbd613f69565b5b828204905092915050565b6000613fd482612c5b565b9150613fdf83612c5b565b925082613fef57613fee613f69565b5b828206905092915050565b7f4552433732313a206d696e7420746f20746865207a65726f2061646472657373600082015250565b6000614030602083612bab565b915061403b82613ffa565b602082019050919050565b6000602082019050818103600083015261405f81614023565b9050919050565b7f4552433732313a20746f6b656e20616c7265616479206d696e74656400000000600082015250565b600061409c601c83612bab565b91506140a782614066565b602082019050919050565b600060208201905081810360008301526140cb8161408f565b905091905056fea264697066735822122092c87e4dfbf2defdb610d8fa11fdcbb5a3a9c2ca0eb30baf96a20bec0359216264736f6c63430008090033",
  "linkReferences": {},
  "deployedLinkReferences": {}
}