{
  "_format": "hh-sol-artifact-1",
  "contractName": "NFTWarranty",
  "sourceName": "contracts/NFTWarranty.sol",
  "abi": [
    {
      "inputs": [],
      "stateMutability": "nonpayable",
      "type": "constructor"
    },
    {
      "anonymous": false,
      "inputs": [
        {
          "indexed": true,
          "internalType": "address",
          "name": "owner",
          "type": "address"
        },
        {
          "indexed": true,
          "internalType": "address",
          "name": "approved",
          "type": "address"
        },
        {
          "indexed": true,
          "internalType": "uint256",
          "name": "tokenId",
          "type": "uint256"
        }
      ],
      "name": "Approval",
      "type": "event"
    },
    {
      "anonymous": false,
      "inputs": [
        {
          "indexed": true,
          "internalType": "address",
          "name": "owner",
          "type": "address"
        },
        {
          "indexed": true,
          "internalType": "address",
          "name": "operator",
          "type": "address"
        },
        {
          "indexed": false,
          "internalType": "bool",
          "name": "approved",
          "type": "bool"
        }
      ],
      "name": "ApprovalForAll",
      "type": "event"
    },
    {
      "anonymous": false,
      "inputs": [
        {
          "indexed": true,
          "internalType": "address",
          "name": "previousOwner",
          "type": "address"
        },
        {
          "indexed": true,
          "internalType": "address",
          "name": "newOwner",
          "type": "address"
        }
      ],
      "name": "OwnershipTransferred",
      "type": "event"
    },
    {
      "anonymous": false,
      "inputs": [
        {
          "indexed": true,
          "internalType": "uint256",
          "name": "tokenID",
          "type": "uint256"
        },
        {
          "indexed": false,
          "internalType": "address",
          "name": "owner",
          "type": "address"
        },
        {
          "indexed": false,
          "internalType": "address",
          "name": "seller",
          "type": "address"
        },
        {
          "indexed": false,
          "internalType": "uint256",
          "name": "expiry",
          "type": "uint256"
        },
        {
          "indexed": false,
          "internalType": "string",
          "name": "serialID",
          "type": "string"
        }
      ],
      "name": "Success",
      "type": "event"
    },
    {
      "anonymous": false,
      "inputs": [
        {
          "indexed": true,
          "internalType": "address",
          "name": "from",
          "type": "address"
        },
        {
          "indexed": true,
          "internalType": "address",
          "name": "to",
          "type": "address"
        },
        {
          "indexed": true,
          "internalType": "uint256",
          "name": "tokenId",
          "type": "uint256"
        }
      ],
      "name": "Transfer",
      "type": "event"
    },
    {
      "inputs": [
        {
          "internalType": "address",
          "name": "to",
          "type": "address"
        },
        {
          "internalType": "uint256",
          "name": "tokenId",
          "type": "uint256"
        }
      ],
      "name": "approve",
      "outputs": [],
      "stateMutability": "nonpayable",
      "type": "function"
    },
    {
      "inputs": [
        {
          "internalType": "address",
          "name": "owner",
          "type": "address"
        }
      ],
      "name": "balanceOf",
      "outputs": [
        {
          "internalType": "uint256",
          "name": "",
          "type": "uint256"
        }
      ],
      "stateMutability": "view",
      "type": "function"
    },
    {
      "inputs": [
        {
          "internalType": "uint256",
          "name": "tokenID",
          "type": "uint256"
        }
      ],
      "name": "burnNFTByID",
      "outputs": [],
      "stateMutability": "payable",
      "type": "function"
    },
    {
      "inputs": [
        {
          "internalType": "uint256",
          "name": "tokenId",
          "type": "uint256"
        }
      ],
      "name": "getApproved",
      "outputs": [
        {
          "internalType": "address",
          "name": "",
          "type": "address"
        }
      ],
      "stateMutability": "view",
      "type": "function"
    },
    {
      "inputs": [],
      "name": "getCurrentTokenID",
      "outputs": [
        {
          "internalType": "uint256",
          "name": "",
          "type": "uint256"
        }
      ],
      "stateMutability": "view",
      "type": "function"
    },
    {
      "inputs": [
        {
          "internalType": "uint256",
          "name": "tokenID",
          "type": "uint256"
        }
      ],
      "name": "getListedByTokenID",
      "outputs": [
        {
          "components": [
            {
              "internalType": "uint256",
              "name": "tokenID",
              "type": "uint256"
            },
            {
              "internalType": "address payable",
              "name": "owner",
              "type": "address"
            },
            {
              "internalType": "address payable",
              "name": "seller",
              "type": "address"
            },
            {
              "internalType": "uint256",
              "name": "expiry",
              "type": "uint256"
            },
            {
              "internalType": "string",
              "name": "serialID",
              "type": "string"
            }
          ],
          "internalType": "struct NFTWarranty.PublishedToken",
          "name": "",
          "type": "tuple"
        }
      ],
      "stateMutability": "view",
      "type": "function"
    },
    {
      "inputs": [],
      "name": "getPublishedByUser",
      "outputs": [
        {
          "components": [
            {
              "internalType": "uint256",
              "name": "tokenID",
              "type": "uint256"
            },
            {
              "internalType": "address payable",
              "name": "owner",
              "type": "address"
            },
            {
              "internalType": "address payable",
              "name": "seller",
              "type": "address"
            },
            {
              "internalType": "uint256",
              "name": "expiry",
              "type": "uint256"
            },
            {
              "internalType": "string",
              "name": "serialID",
              "type": "string"
            }
          ],
          "internalType": "struct NFTWarranty.PublishedToken[]",
          "name": "",
          "type": "tuple[]"
        }
      ],
      "stateMutability": "view",
      "type": "function"
    },
    {
      "inputs": [],
      "name": "getTokenByCurrentID",
      "outputs": [
        {
          "components": [
            {
              "internalType": "uint256",
              "name": "tokenID",
              "type": "uint256"
            },
            {
              "internalType": "address payable",
              "name": "owner",
              "type": "address"
            },
            {
              "internalType": "address payable",
              "name": "seller",
              "type": "address"
            },
            {
              "internalType": "uint256",
              "name": "expiry",
              "type": "uint256"
            },
            {
              "internalType": "string",
              "name": "serialID",
              "type": "string"
            }
          ],
          "internalType": "struct NFTWarranty.PublishedToken",
          "name": "",
          "type": "tuple"
        }
      ],
      "stateMutability": "view",
      "type": "function"
    },
    {
      "inputs": [
        {
          "internalType": "address",
          "name": "owner",
          "type": "address"
        },
        {
          "internalType": "address",
          "name": "operator",
          "type": "address"
        }
      ],
      "name": "isApprovedForAll",
      "outputs": [
        {
          "internalType": "bool",
          "name": "",
          "type": "bool"
        }
      ],
      "stateMutability": "view",
      "type": "function"
    },
    {
      "inputs": [
        {
          "internalType": "string",
          "name": "tokenURI",
          "type": "string"
        },
        {
          "internalType": "string",
          "name": "serialID",
          "type": "string"
        }
      ],
      "name": "mint",
      "outputs": [
        {
          "internalType": "uint256",
          "name": "",
          "type": "uint256"
        }
      ],
      "stateMutability": "payable",
      "type": "function"
    },
    {
      "inputs": [],
      "name": "name",
      "outputs": [
        {
          "internalType": "string",
          "name": "",
          "type": "string"
        }
      ],
      "stateMutability": "view",
      "type": "function"
    },
    {
      "inputs": [],
      "name": "owner",
      "outputs": [
        {
          "internalType": "address",
          "name": "",
          "type": "address"
        }
      ],
      "stateMutability": "view",
      "type": "function"
    },
    {
      "inputs": [
        {
          "internalType": "uint256",
          "name": "tokenId",
          "type": "uint256"
        }
      ],
      "name": "ownerOf",
      "outputs": [
        {
          "internalType": "address",
          "name": "",
          "type": "address"
        }
      ],
      "stateMutability": "view",
      "type": "function"
    },
    {
      "inputs": [],
      "name": "renounceOwnership",
      "outputs": [],
      "stateMutability": "nonpayable",
      "type": "function"
    },
    {
      "inputs": [
        {
          "internalType": "address",
          "name": "from",
          "type": "address"
        },
        {
          "internalType": "address",
          "name": "to",
          "type": "address"
        },
        {
          "internalType": "uint256",
          "name": "tokenId",
          "type": "uint256"
        }
      ],
      "name": "safeTransferFrom",
      "outputs": [],
      "stateMutability": "nonpayable",
      "type": "function"
    },
    {
      "inputs": [
        {
          "internalType": "address",
          "name": "from",
          "type": "address"
        },
        {
          "internalType": "address",
          "name": "to",
          "type": "address"
        },
        {
          "internalType": "uint256",
          "name": "tokenId",
          "type": "uint256"
        },
        {
          "internalType": "bytes",
          "name": "data",
          "type": "bytes"
        }
      ],
      "name": "safeTransferFrom",
      "outputs": [],
      "stateMutability": "nonpayable",
      "type": "function"
    },
    {
      "inputs": [
        {
          "internalType": "address",
          "name": "operator",
          "type": "address"
        },
        {
          "internalType": "bool",
          "name": "approved",
          "type": "bool"
        }
      ],
      "name": "setApprovalForAll",
      "outputs": [],
      "stateMutability": "nonpayable",
      "type": "function"
    },
    {
      "inputs": [
        {
          "internalType": "bytes4",
          "name": "interfaceId",
          "type": "bytes4"
        }
      ],
      "name": "supportsInterface",
      "outputs": [
        {
          "internalType": "bool",
          "name": "",
          "type": "bool"
        }
      ],
      "stateMutability": "view",
      "type": "function"
    },
    {
      "inputs": [],
      "name": "symbol",
      "outputs": [
        {
          "internalType": "string",
          "name": "",
          "type": "string"
        }
      ],
      "stateMutability": "view",
      "type": "function"
    },
    {
      "inputs": [
        {
          "internalType": "uint256",
          "name": "tokenId",
          "type": "uint256"
        }
      ],
      "name": "tokenURI",
      "outputs": [
        {
          "internalType": "string",
          "name": "",
          "type": "string"
        }
      ],
      "stateMutability": "view",
      "type": "function"
    },
    {
      "inputs": [
        {
          "internalType": "uint256",
          "name": "tokenID",
          "type": "uint256"
        },
        {
          "internalType": "uint256",
          "name": "expiry",
          "type": "uint256"
        }
      ],
      "name": "transferByID",
      "outputs": [],
      "stateMutability": "payable",
      "type": "function"
    },
    {
      "inputs": [
        {
          "internalType": "address",
          "name": "from",
          "type": "address"
        },
        {
          "internalType": "address",
          "name": "to",
          "type": "address"
        },
        {
          "internalType": "uint256",
          "name": "tokenId",
          "type": "uint256"
        }
      ],
      "name": "transferFrom",
      "outputs": [],
      "stateMutability": "nonpayable",
      "type": "function"
    },
    {
      "inputs": [
        {
          "internalType": "address",
          "name": "newOwner",
          "type": "address"
        }
      ],
      "name": "transferOwnership",
      "outputs": [],
      "stateMutability": "nonpayable",
      "type": "function"
    }
  ],
  "bytecode": "0x60806040523480156200001157600080fd5b506040518060400160405280600b81526020017f4e465457617272616e74790000000000000000000000000000000000000000008152506040518060400160405280600481526020017f4e46544300000000000000000000000000000000000000000000000000000000815250816000908051906020019062000096929190620001a6565b508060019080519060200190620000af929190620001a6565b505050620000d2620000c6620000d860201b60201c565b620000e060201b60201c565b620002bb565b600033905090565b6000600760009054906101000a900473ffffffffffffffffffffffffffffffffffffffff16905081600760006101000a81548173ffffffffffffffffffffffffffffffffffffffff021916908373ffffffffffffffffffffffffffffffffffffffff1602179055508173ffffffffffffffffffffffffffffffffffffffff168173ffffffffffffffffffffffffffffffffffffffff167f8be0079c531659141344cd1fd0a4f28419497f9722a3daafe3b4186f6b6457e060405160405180910390a35050565b828054620001b49062000285565b90600052602060002090601f016020900481019282620001d8576000855562000224565b82601f10620001f357805160ff191683800117855562000224565b8280016001018555821562000224579182015b828111156200022357825182559160200191906001019062000206565b5b50905062000233919062000237565b5090565b5b808211156200025257600081600090555060010162000238565b5090565b7f4e487b7100000000000000000000000000000000000000000000000000000000600052602260045260246000fd5b600060028204905060018216806200029e57607f821691505b60208210811415620002b557620002b462000256565b5b50919050565b61400480620002cb6000396000f3fe6080604052600436106101405760003560e01c80638aa0fdad116100b6578063b9ed183c1161006f578063b9ed183c14610461578063c4a6d0d21461047d578063c87b56dd146104a8578063e985e9c5146104e5578063f2fde38b14610522578063ffa3681a1461054b57610140565b80638aa0fdad1461035e5780638af3efb41461038e5780638da5cb5b146103b957806395d89b41146103e4578063a22cb4651461040f578063b88d4fde1461043857610140565b80632242f968116101085780632242f9681461023e57806323b872dd1461027b57806342842e0e146102a45780636352211e146102cd57806370a082311461030a578063715018a61461034757610140565b806301ffc9a71461014557806306fdde0314610182578063081812fc146101ad578063095ea7b3146101ea57806311d000a214610213575b600080fd5b34801561015157600080fd5b5061016c60048036038101906101679190612a39565b610567565b6040516101799190612a81565b60405180910390f35b34801561018e57600080fd5b50610197610649565b6040516101a49190612b35565b60405180910390f35b3480156101b957600080fd5b506101d460048036038101906101cf9190612b8d565b6106db565b6040516101e19190612bfb565b60405180910390f35b3480156101f657600080fd5b50610211600480360381019061020c9190612c42565b610721565b005b34801561021f57600080fd5b50610228610839565b6040516102359190612e34565b60405180910390f35b34801561024a57600080fd5b5061026560048036038101906102609190612b8d565b610c8e565b6040516102729190612ecc565b60405180910390f35b34801561028757600080fd5b506102a2600480360381019061029d9190612eee565b610e0d565b005b3480156102b057600080fd5b506102cb60048036038101906102c69190612eee565b610e6d565b005b3480156102d957600080fd5b506102f460048036038101906102ef9190612b8d565b610e8d565b6040516103019190612bfb565b60405180910390f35b34801561031657600080fd5b50610331600480360381019061032c9190612f41565b610f3f565b60405161033e9190612f7d565b60405180910390f35b34801561035357600080fd5b5061035c610ff7565b005b610378600480360381019061037391906130cd565b61100b565b6040516103859190612f7d565b60405180910390f35b34801561039a57600080fd5b506103a361104d565b6040516103b09190612ecc565b60405180910390f35b3480156103c557600080fd5b506103ce6111d9565b6040516103db9190612bfb565b60405180910390f35b3480156103f057600080fd5b506103f9611203565b6040516104069190612b35565b60405180910390f35b34801561041b57600080fd5b5061043660048036038101906104319190613171565b611295565b005b34801561044457600080fd5b5061045f600480360381019061045a9190613252565b6112ab565b005b61047b60048036038101906104769190612b8d565b61130d565b005b34801561048957600080fd5b506104926113cb565b60405161049f9190612f7d565b60405180910390f35b3480156104b457600080fd5b506104cf60048036038101906104ca9190612b8d565b6113dc565b6040516104dc9190612b35565b60405180910390f35b3480156104f157600080fd5b5061050c600480360381019061050791906132d5565b6114ef565b6040516105199190612a81565b60405180910390f35b34801561052e57600080fd5b5061054960048036038101906105449190612f41565b611583565b005b61056560048036038101906105609190613315565b611607565b005b60007f80ac58cd000000000000000000000000000000000000000000000000000000007bffffffffffffffffffffffffffffffffffffffffffffffffffffffff1916827bffffffffffffffffffffffffffffffffffffffffffffffffffffffff1916148061063257507f5b5e139f000000000000000000000000000000000000000000000000000000007bffffffffffffffffffffffffffffffffffffffffffffffffffffffff1916827bffffffffffffffffffffffffffffffffffffffffffffffffffffffff1916145b80610642575061064182611708565b5b9050919050565b60606000805461065890613384565b80601f016020809104026020016040519081016040528092919081815260200182805461068490613384565b80156106d15780601f106106a6576101008083540402835291602001916106d1565b820191906000526020600020905b8154815290600101906020018083116106b457829003601f168201915b5050505050905090565b60006106e682611772565b6004600083815260200190815260200160002060009054906101000a900473ffffffffffffffffffffffffffffffffffffffff169050919050565b600061072c82610e8d565b90508073ffffffffffffffffffffffffffffffffffffffff168373ffffffffffffffffffffffffffffffffffffffff16141561079d576040517f08c379a000000000000000000000000000000000000000000000000000000000815260040161079490613428565b60405180910390fd5b8073ffffffffffffffffffffffffffffffffffffffff166107bc6117bd565b73ffffffffffffffffffffffffffffffffffffffff1614806107eb57506107ea816107e56117bd565b6114ef565b5b61082a576040517f08c379a0000000000000000000000000000000000000000000000000000000008152600401610821906134ba565b60405180910390fd5b61083483836117c5565b505050565b60606000610847600861187e565b905060008060005b83811015610968573373ffffffffffffffffffffffffffffffffffffffff16600a600060018461087f9190613509565b815260200190815260200160002060010160009054906101000a900473ffffffffffffffffffffffffffffffffffffffff1673ffffffffffffffffffffffffffffffffffffffff16148061094057503373ffffffffffffffffffffffffffffffffffffffff16600a60006001846108f69190613509565b815260200190815260200160002060020160009054906101000a900473ffffffffffffffffffffffffffffffffffffffff1673ffffffffffffffffffffffffffffffffffffffff16145b15610955576001836109529190613509565b92505b80806109609061355f565b91505061084f565b5060008267ffffffffffffffff81111561098557610984612fa2565b5b6040519080825280602002602001820160405280156109be57816020015b6109ab61288f565b8152602001906001900390816109a35790505b50905060005b84811015610c83573373ffffffffffffffffffffffffffffffffffffffff16600a60006001846109f49190613509565b815260200190815260200160002060010160009054906101000a900473ffffffffffffffffffffffffffffffffffffffff1673ffffffffffffffffffffffffffffffffffffffff161480610ab557503373ffffffffffffffffffffffffffffffffffffffff16600a6000600184610a6b9190613509565b815260200190815260200160002060020160009054906101000a900473ffffffffffffffffffffffffffffffffffffffff1673ffffffffffffffffffffffffffffffffffffffff16145b15610c70576000600182610ac99190613509565b90506000600a60008381526020019081526020016000209050806040518060a0016040529081600082015481526020016001820160009054906101000a900473ffffffffffffffffffffffffffffffffffffffff1673ffffffffffffffffffffffffffffffffffffffff1673ffffffffffffffffffffffffffffffffffffffff1681526020016002820160009054906101000a900473ffffffffffffffffffffffffffffffffffffffff1673ffffffffffffffffffffffffffffffffffffffff1673ffffffffffffffffffffffffffffffffffffffff16815260200160038201548152602001600482018054610bbe90613384565b80601f0160208091040260200160405190810160405280929190818152602001828054610bea90613384565b8015610c375780601f10610c0c57610100808354040283529160200191610c37565b820191906000526020600020905b815481529060010190602001808311610c1a57829003601f168201915b505050505081525050848681518110610c5357610c526135a8565b5b6020026020010181905250600185610c6b9190613509565b945050505b8080610c7b9061355f565b9150506109c4565b508094505050505090565b610c9661288f565b600a60008381526020019081526020016000206040518060a0016040529081600082015481526020016001820160009054906101000a900473ffffffffffffffffffffffffffffffffffffffff1673ffffffffffffffffffffffffffffffffffffffff1673ffffffffffffffffffffffffffffffffffffffff1681526020016002820160009054906101000a900473ffffffffffffffffffffffffffffffffffffffff1673ffffffffffffffffffffffffffffffffffffffff1673ffffffffffffffffffffffffffffffffffffffff16815260200160038201548152602001600482018054610d8490613384565b80601f0160208091040260200160405190810160405280929190818152602001828054610db090613384565b8015610dfd5780601f10610dd257610100808354040283529160200191610dfd565b820191906000526020600020905b815481529060010190602001808311610de057829003601f168201915b5050505050815250509050919050565b610e1e610e186117bd565b8261188c565b610e5d576040517f08c379a0000000000000000000000000000000000000000000000000000000008152600401610e5490613649565b60405180910390fd5b610e68838383611921565b505050565b610e88838383604051806020016040528060008152506112ab565b505050565b6000806002600084815260200190815260200160002060009054906101000a900473ffffffffffffffffffffffffffffffffffffffff169050600073ffffffffffffffffffffffffffffffffffffffff168173ffffffffffffffffffffffffffffffffffffffff161415610f36576040517f08c379a0000000000000000000000000000000000000000000000000000000008152600401610f2d906136b5565b60405180910390fd5b80915050919050565b60008073ffffffffffffffffffffffffffffffffffffffff168273ffffffffffffffffffffffffffffffffffffffff161415610fb0576040517f08c379a0000000000000000000000000000000000000000000000000000000008152600401610fa790613747565b60405180910390fd5b600360008373ffffffffffffffffffffffffffffffffffffffff1673ffffffffffffffffffffffffffffffffffffffff168152602001908152602001600020549050919050565b610fff611b88565b6110096000611c06565b565b60006110176008611ccc565b6000611023600861187e565b905061102f3382611ce2565b6110398185611d00565b6110438184611d74565b8091505092915050565b61105561288f565b6000611061600861187e565b9050600a60008281526020019081526020016000206040518060a0016040529081600082015481526020016001820160009054906101000a900473ffffffffffffffffffffffffffffffffffffffff1673ffffffffffffffffffffffffffffffffffffffff1673ffffffffffffffffffffffffffffffffffffffff1681526020016002820160009054906101000a900473ffffffffffffffffffffffffffffffffffffffff1673ffffffffffffffffffffffffffffffffffffffff1673ffffffffffffffffffffffffffffffffffffffff1681526020016003820154815260200160048201805461115190613384565b80601f016020809104026020016040519081016040528092919081815260200182805461117d90613384565b80156111ca5780601f1061119f576101008083540402835291602001916111ca565b820191906000526020600020905b8154815290600101906020018083116111ad57829003601f168201915b50505050508152505091505090565b6000600760009054906101000a900473ffffffffffffffffffffffffffffffffffffffff16905090565b60606001805461121290613384565b80601f016020809104026020016040519081016040528092919081815260200182805461123e90613384565b801561128b5780601f106112605761010080835404028352916020019161128b565b820191906000526020600020905b81548152906001019060200180831161126e57829003601f168201915b5050505050905090565b6112a76112a06117bd565b8383611eeb565b5050565b6112bc6112b66117bd565b8361188c565b6112fb576040517f08c379a00000000000000000000000000000000000000000000000000000000081526004016112f290613649565b60405180910390fd5b61130784848484612058565b50505050565b6000600a6000838152602001908152602001600020600301541415611367576040517f08c379a000000000000000000000000000000000000000000000000000000000815260040161135e906137b3565b60405180910390fd5b600a60008281526020019081526020016000206003015442116113bf576040517f08c379a00000000000000000000000000000000000000000000000000000000081526004016113b69061381f565b60405180910390fd5b6113c8816120b4565b50565b60006113d7600861187e565b905090565b60606113e782611772565b600060066000848152602001908152602001600020805461140790613384565b80601f016020809104026020016040519081016040528092919081815260200182805461143390613384565b80156114805780601f1061145557610100808354040283529160200191611480565b820191906000526020600020905b81548152906001019060200180831161146357829003601f168201915b505050505090506000611491612107565b90506000815114156114a75781925050506114ea565b6000825111156114dc5780826040516020016114c492919061387b565b604051602081830303815290604052925050506114ea565b6114e584612144565b925050505b919050565b6000600560008473ffffffffffffffffffffffffffffffffffffffff1673ffffffffffffffffffffffffffffffffffffffff16815260200190815260200160002060008373ffffffffffffffffffffffffffffffffffffffff1673ffffffffffffffffffffffffffffffffffffffff16815260200190815260200160002060009054906101000a900460ff16905092915050565b61158b611b88565b600073ffffffffffffffffffffffffffffffffffffffff168173ffffffffffffffffffffffffffffffffffffffff1614156115fb576040517f08c379a00000000000000000000000000000000000000000000000000000000081526004016115f290613911565b60405180910390fd5b61160481611c06565b50565b6000811161164a576040517f08c379a00000000000000000000000000000000000000000000000000000000081526004016116419061397d565b60405180910390fd5b6000600a60008481526020019081526020016000206003015414156116905780426116759190613509565b600a6000848152602001908152602001600020600301819055505b33600a600084815260200190815260200160002060020160006101000a81548173ffffffffffffffffffffffffffffffffffffffff021916908373ffffffffffffffffffffffffffffffffffffffff1602179055506116ef6009611ccc565b6116fa303384611921565b6117043083610721565b5050565b60007f01ffc9a7000000000000000000000000000000000000000000000000000000007bffffffffffffffffffffffffffffffffffffffffffffffffffffffff1916827bffffffffffffffffffffffffffffffffffffffffffffffffffffffff1916149050919050565b61177b816121ac565b6117ba576040517f08c379a00000000000000000000000000000000000000000000000000000000081526004016117b1906136b5565b60405180910390fd5b50565b600033905090565b816004600083815260200190815260200160002060006101000a81548173ffffffffffffffffffffffffffffffffffffffff021916908373ffffffffffffffffffffffffffffffffffffffff160217905550808273ffffffffffffffffffffffffffffffffffffffff1661183883610e8d565b73ffffffffffffffffffffffffffffffffffffffff167f8c5be1e5ebec7d5bd14f71427d1e84f3dd0314c0f7b2291e5b200ac8c7c3b92560405160405180910390a45050565b600081600001549050919050565b60008061189883610e8d565b90508073ffffffffffffffffffffffffffffffffffffffff168473ffffffffffffffffffffffffffffffffffffffff1614806118da57506118d981856114ef565b5b8061191857508373ffffffffffffffffffffffffffffffffffffffff16611900846106db565b73ffffffffffffffffffffffffffffffffffffffff16145b91505092915050565b8273ffffffffffffffffffffffffffffffffffffffff1661194182610e8d565b73ffffffffffffffffffffffffffffffffffffffff1614611997576040517f08c379a000000000000000000000000000000000000000000000000000000000815260040161198e90613a0f565b60405180910390fd5b600073ffffffffffffffffffffffffffffffffffffffff168273ffffffffffffffffffffffffffffffffffffffff161415611a07576040517f08c379a00000000000000000000000000000000000000000000000000000000081526004016119fe90613aa1565b60405180910390fd5b611a12838383612218565b611a1d6000826117c5565b6001600360008573ffffffffffffffffffffffffffffffffffffffff1673ffffffffffffffffffffffffffffffffffffffff1681526020019081526020016000206000828254611a6d9190613ac1565b925050819055506001600360008473ffffffffffffffffffffffffffffffffffffffff1673ffffffffffffffffffffffffffffffffffffffff1681526020019081526020016000206000828254611ac49190613509565b92505081905550816002600083815260200190815260200160002060006101000a81548173ffffffffffffffffffffffffffffffffffffffff021916908373ffffffffffffffffffffffffffffffffffffffff160217905550808273ffffffffffffffffffffffffffffffffffffffff168473ffffffffffffffffffffffffffffffffffffffff167fddf252ad1be2c89b69c2b068fc378daa952ba7f163c4a11628f55a4df523b3ef60405160405180910390a4611b8383838361221d565b505050565b611b906117bd565b73ffffffffffffffffffffffffffffffffffffffff16611bae6111d9565b73ffffffffffffffffffffffffffffffffffffffff1614611c04576040517f08c379a0000000000000000000000000000000000000000000000000000000008152600401611bfb90613b41565b60405180910390fd5b565b6000600760009054906101000a900473ffffffffffffffffffffffffffffffffffffffff16905081600760006101000a81548173ffffffffffffffffffffffffffffffffffffffff021916908373ffffffffffffffffffffffffffffffffffffffff1602179055508173ffffffffffffffffffffffffffffffffffffffff168173ffffffffffffffffffffffffffffffffffffffff167f8be0079c531659141344cd1fd0a4f28419497f9722a3daafe3b4186f6b6457e060405160405180910390a35050565b6001816000016000828254019250508190555050565b611cfc828260405180602001604052806000815250612222565b5050565b611d09826121ac565b611d48576040517f08c379a0000000000000000000000000000000000000000000000000000000008152600401611d3f90613bd3565b60405180910390fd5b80600660008481526020019081526020016000209080519060200190611d6f9291906128ea565b505050565b6040518060a001604052808381526020013073ffffffffffffffffffffffffffffffffffffffff1681526020013373ffffffffffffffffffffffffffffffffffffffff1681526020016000815260200182815250600a60008481526020019081526020016000206000820151816000015560208201518160010160006101000a81548173ffffffffffffffffffffffffffffffffffffffff021916908373ffffffffffffffffffffffffffffffffffffffff16021790555060408201518160020160006101000a81548173ffffffffffffffffffffffffffffffffffffffff021916908373ffffffffffffffffffffffffffffffffffffffff160217905550606082015181600301556080820151816004019080519060200190611e999291906128ea565b50905050611ea8333084611921565b817f21ff57e838b7243e426a291cdbca20be44c58956dc17315526f908da84150b033033600085604051611edf9493929190613c38565b60405180910390a25050565b8173ffffffffffffffffffffffffffffffffffffffff168373ffffffffffffffffffffffffffffffffffffffff161415611f5a576040517f08c379a0000000000000000000000000000000000000000000000000000000008152600401611f5190613cd0565b60405180910390fd5b80600560008573ffffffffffffffffffffffffffffffffffffffff1673ffffffffffffffffffffffffffffffffffffffff16815260200190815260200160002060008473ffffffffffffffffffffffffffffffffffffffff1673ffffffffffffffffffffffffffffffffffffffff16815260200190815260200160002060006101000a81548160ff0219169083151502179055508173ffffffffffffffffffffffffffffffffffffffff168373ffffffffffffffffffffffffffffffffffffffff167f17307eab39ab6107e8899845ad3d59bd9653f200f220920489ca2b5937696c318360405161204b9190612a81565b60405180910390a3505050565b612063848484611921565b61206f8484848461227d565b6120ae576040517f08c379a00000000000000000000000000000000000000000000000000000000081526004016120a590613d62565b60405180910390fd5b50505050565b6120bd81612414565b60006006600083815260200190815260200160002080546120dd90613384565b905014612104576006600082815260200190815260200160002060006121039190612970565b5b50565b60606040518060400160405280600781526020017f697066733a2f2f00000000000000000000000000000000000000000000000000815250905090565b606061214f82611772565b6000612159612107565b9050600081511161217957604051806020016040528060008152506121a4565b8061218384612531565b60405160200161219492919061387b565b6040516020818303038152906040525b915050919050565b60008073ffffffffffffffffffffffffffffffffffffffff166002600084815260200190815260200160002060009054906101000a900473ffffffffffffffffffffffffffffffffffffffff1673ffffffffffffffffffffffffffffffffffffffff1614159050919050565b505050565b505050565b61222c8383612692565b612239600084848461227d565b612278576040517f08c379a000000000000000000000000000000000000000000000000000000000815260040161226f90613d62565b60405180910390fd5b505050565b600061229e8473ffffffffffffffffffffffffffffffffffffffff1661286c565b15612407578373ffffffffffffffffffffffffffffffffffffffff1663150b7a026122c76117bd565b8786866040518563ffffffff1660e01b81526004016122e99493929190613dd7565b602060405180830381600087803b15801561230357600080fd5b505af192505050801561233457506040513d601f19601f820116820180604052508101906123319190613e38565b60015b6123b7573d8060008114612364576040519150601f19603f3d011682016040523d82523d6000602084013e612369565b606091505b506000815114156123af576040517f08c379a00000000000000000000000000000000000000000000000000000000081526004016123a690613d62565b60405180910390fd5b805181602001fd5b63150b7a0260e01b7bffffffffffffffffffffffffffffffffffffffffffffffffffffffff1916817bffffffffffffffffffffffffffffffffffffffffffffffffffffffff19161491505061240c565b600190505b949350505050565b600061241f82610e8d565b905061242d81600084612218565b6124386000836117c5565b6001600360008373ffffffffffffffffffffffffffffffffffffffff1673ffffffffffffffffffffffffffffffffffffffff16815260200190815260200160002060008282546124889190613ac1565b925050819055506002600083815260200190815260200160002060006101000a81549073ffffffffffffffffffffffffffffffffffffffff021916905581600073ffffffffffffffffffffffffffffffffffffffff168273ffffffffffffffffffffffffffffffffffffffff167fddf252ad1be2c89b69c2b068fc378daa952ba7f163c4a11628f55a4df523b3ef60405160405180910390a461252d8160008461221d565b5050565b60606000821415612579576040518060400160405280600181526020017f3000000000000000000000000000000000000000000000000000000000000000815250905061268d565b600082905060005b600082146125ab5780806125949061355f565b915050600a826125a49190613e94565b9150612581565b60008167ffffffffffffffff8111156125c7576125c6612fa2565b5b6040519080825280601f01601f1916602001820160405280156125f95781602001600182028036833780820191505090505b5090505b60008514612686576001826126129190613ac1565b9150600a856126219190613ec5565b603061262d9190613509565b60f81b818381518110612643576126426135a8565b5b60200101907effffffffffffffffffffffffffffffffffffffffffffffffffffffffffffff1916908160001a905350600a8561267f9190613e94565b94506125fd565b8093505050505b919050565b600073ffffffffffffffffffffffffffffffffffffffff168273ffffffffffffffffffffffffffffffffffffffff161415612702576040517f08c379a00000000000000000000000000000000000000000000000000000000081526004016126f990613f42565b60405180910390fd5b61270b816121ac565b1561274b576040517f08c379a000000000000000000000000000000000000000000000000000000000815260040161274290613fae565b60405180910390fd5b61275760008383612218565b6001600360008473ffffffffffffffffffffffffffffffffffffffff1673ffffffffffffffffffffffffffffffffffffffff16815260200190815260200160002060008282546127a79190613509565b92505081905550816002600083815260200190815260200160002060006101000a81548173ffffffffffffffffffffffffffffffffffffffff021916908373ffffffffffffffffffffffffffffffffffffffff160217905550808273ffffffffffffffffffffffffffffffffffffffff16600073ffffffffffffffffffffffffffffffffffffffff167fddf252ad1be2c89b69c2b068fc378daa952ba7f163c4a11628f55a4df523b3ef60405160405180910390a46128686000838361221d565b5050565b6000808273ffffffffffffffffffffffffffffffffffffffff163b119050919050565b6040518060a0016040528060008152602001600073ffffffffffffffffffffffffffffffffffffffff168152602001600073ffffffffffffffffffffffffffffffffffffffff16815260200160008152602001606081525090565b8280546128f690613384565b90600052602060002090601f016020900481019282612918576000855561295f565b82601f1061293157805160ff191683800117855561295f565b8280016001018555821561295f579182015b8281111561295e578251825591602001919060010190612943565b5b50905061296c91906129b0565b5090565b50805461297c90613384565b6000825580601f1061298e57506129ad565b601f0160209004906000526020600020908101906129ac91906129b0565b5b50565b5b808211156129c95760008160009055506001016129b1565b5090565b6000604051905090565b600080fd5b600080fd5b60007fffffffff0000000000000000000000000000000000000000000000000000000082169050919050565b612a16816129e1565b8114612a2157600080fd5b50565b600081359050612a3381612a0d565b92915050565b600060208284031215612a4f57612a4e6129d7565b5b6000612a5d84828501612a24565b91505092915050565b60008115159050919050565b612a7b81612a66565b82525050565b6000602082019050612a966000830184612a72565b92915050565b600081519050919050565b600082825260208201905092915050565b60005b83811015612ad6578082015181840152602081019050612abb565b83811115612ae5576000848401525b50505050565b6000601f19601f8301169050919050565b6000612b0782612a9c565b612b118185612aa7565b9350612b21818560208601612ab8565b612b2a81612aeb565b840191505092915050565b60006020820190508181036000830152612b4f8184612afc565b905092915050565b6000819050919050565b612b6a81612b57565b8114612b7557600080fd5b50565b600081359050612b8781612b61565b92915050565b600060208284031215612ba357612ba26129d7565b5b6000612bb184828501612b78565b91505092915050565b600073ffffffffffffffffffffffffffffffffffffffff82169050919050565b6000612be582612bba565b9050919050565b612bf581612bda565b82525050565b6000602082019050612c106000830184612bec565b92915050565b612c1f81612bda565b8114612c2a57600080fd5b50565b600081359050612c3c81612c16565b92915050565b60008060408385031215612c5957612c586129d7565b5b6000612c6785828601612c2d565b9250506020612c7885828601612b78565b9150509250929050565b600081519050919050565b600082825260208201905092915050565b6000819050602082019050919050565b612cb781612b57565b82525050565b6000612cc882612bba565b9050919050565b612cd881612cbd565b82525050565b600082825260208201905092915050565b6000612cfa82612a9c565b612d048185612cde565b9350612d14818560208601612ab8565b612d1d81612aeb565b840191505092915050565b600060a083016000830151612d406000860182612cae565b506020830151612d536020860182612ccf565b506040830151612d666040860182612ccf565b506060830151612d796060860182612cae565b5060808301518482036080860152612d918282612cef565b9150508091505092915050565b6000612daa8383612d28565b905092915050565b6000602082019050919050565b6000612dca82612c82565b612dd48185612c8d565b935083602082028501612de685612c9e565b8060005b85811015612e225784840389528151612e038582612d9e565b9450612e0e83612db2565b925060208a01995050600181019050612dea565b50829750879550505050505092915050565b60006020820190508181036000830152612e4e8184612dbf565b905092915050565b600060a083016000830151612e6e6000860182612cae565b506020830151612e816020860182612ccf565b506040830151612e946040860182612ccf565b506060830151612ea76060860182612cae565b5060808301518482036080860152612ebf8282612cef565b9150508091505092915050565b60006020820190508181036000830152612ee68184612e56565b905092915050565b600080600060608486031215612f0757612f066129d7565b5b6000612f1586828701612c2d565b9350506020612f2686828701612c2d565b9250506040612f3786828701612b78565b9150509250925092565b600060208284031215612f5757612f566129d7565b5b6000612f6584828501612c2d565b91505092915050565b612f7781612b57565b82525050565b6000602082019050612f926000830184612f6e565b92915050565b600080fd5b600080fd5b7f4e487b7100000000000000000000000000000000000000000000000000000000600052604160045260246000fd5b612fda82612aeb565b810181811067ffffffffffffffff82111715612ff957612ff8612fa2565b5b80604052505050565b600061300c6129cd565b90506130188282612fd1565b919050565b600067ffffffffffffffff82111561303857613037612fa2565b5b61304182612aeb565b9050602081019050919050565b82818337600083830152505050565b600061307061306b8461301d565b613002565b90508281526020810184848401111561308c5761308b612f9d565b5b61309784828561304e565b509392505050565b600082601f8301126130b4576130b3612f98565b5b81356130c484826020860161305d565b91505092915050565b600080604083850312156130e4576130e36129d7565b5b600083013567ffffffffffffffff811115613102576131016129dc565b5b61310e8582860161309f565b925050602083013567ffffffffffffffff81111561312f5761312e6129dc565b5b61313b8582860161309f565b9150509250929050565b61314e81612a66565b811461315957600080fd5b50565b60008135905061316b81613145565b92915050565b60008060408385031215613188576131876129d7565b5b600061319685828601612c2d565b92505060206131a78582860161315c565b9150509250929050565b600067ffffffffffffffff8211156131cc576131cb612fa2565b5b6131d582612aeb565b9050602081019050919050565b60006131f56131f0846131b1565b613002565b90508281526020810184848401111561321157613210612f9d565b5b61321c84828561304e565b509392505050565b600082601f83011261323957613238612f98565b5b81356132498482602086016131e2565b91505092915050565b6000806000806080858703121561326c5761326b6129d7565b5b600061327a87828801612c2d565b945050602061328b87828801612c2d565b935050604061329c87828801612b78565b925050606085013567ffffffffffffffff8111156132bd576132bc6129dc565b5b6132c987828801613224565b91505092959194509250565b600080604083850312156132ec576132eb6129d7565b5b60006132fa85828601612c2d565b925050602061330b85828601612c2d565b9150509250929050565b6000806040838503121561332c5761332b6129d7565b5b600061333a85828601612b78565b925050602061334b85828601612b78565b9150509250929050565b7f4e487b7100000000000000000000000000000000000000000000000000000000600052602260045260246000fd5b6000600282049050600182168061339c57607f821691505b602082108114156133b0576133af613355565b5b50919050565b7f4552433732313a20617070726f76616c20746f2063757272656e74206f776e6560008201527f7200000000000000000000000000000000000000000000000000000000000000602082015250565b6000613412602183612aa7565b915061341d826133b6565b604082019050919050565b6000602082019050818103600083015261344181613405565b9050919050565b7f4552433732313a20617070726f76652063616c6c6572206973206e6f7420746f60008201527f6b656e206f776e6572206e6f7220617070726f76656420666f7220616c6c0000602082015250565b60006134a4603e83612aa7565b91506134af82613448565b604082019050919050565b600060208201905081810360008301526134d381613497565b9050919050565b7f4e487b7100000000000000000000000000000000000000000000000000000000600052601160045260246000fd5b600061351482612b57565b915061351f83612b57565b9250827fffffffffffffffffffffffffffffffffffffffffffffffffffffffffffffffff03821115613554576135536134da565b5b828201905092915050565b600061356a82612b57565b91507fffffffffffffffffffffffffffffffffffffffffffffffffffffffffffffffff82141561359d5761359c6134da565b5b600182019050919050565b7f4e487b7100000000000000000000000000000000000000000000000000000000600052603260045260246000fd5b7f4552433732313a2063616c6c6572206973206e6f7420746f6b656e206f776e6560008201527f72206e6f7220617070726f766564000000000000000000000000000000000000602082015250565b6000613633602e83612aa7565b915061363e826135d7565b604082019050919050565b6000602082019050818103600083015261366281613626565b9050919050565b7f4552433732313a20696e76616c696420746f6b656e2049440000000000000000600082015250565b600061369f601883612aa7565b91506136aa82613669565b602082019050919050565b600060208201905081810360008301526136ce81613692565b9050919050565b7f4552433732313a2061646472657373207a65726f206973206e6f74206120766160008201527f6c6964206f776e65720000000000000000000000000000000000000000000000602082015250565b6000613731602983612aa7565b915061373c826136d5565b604082019050919050565b6000602082019050818103600083015261376081613724565b9050919050565b7f57617272616e747920446f65736e277420657869737400000000000000000000600082015250565b600061379d601683612aa7565b91506137a882613767565b602082019050919050565b600060208201905081810360008301526137cc81613790565b9050919050565b7f57617272616e7479206973206578706972656400000000000000000000000000600082015250565b6000613809601383612aa7565b9150613814826137d3565b602082019050919050565b60006020820190508181036000830152613838816137fc565b9050919050565b600081905092915050565b600061385582612a9c565b61385f818561383f565b935061386f818560208601612ab8565b80840191505092915050565b6000613887828561384a565b9150613893828461384a565b91508190509392505050565b7f4f776e61626c653a206e6577206f776e657220697320746865207a65726f206160008201527f6464726573730000000000000000000000000000000000000000000000000000602082015250565b60006138fb602683612aa7565b91506139068261389f565b604082019050919050565b6000602082019050818103600083015261392a816138ee565b9050919050565b7f506c6561736520656e74657220612076616c6964206578706972792074696d65600082015250565b6000613967602083612aa7565b915061397282613931565b602082019050919050565b600060208201905081810360008301526139968161395a565b9050919050565b7f4552433732313a207472616e736665722066726f6d20696e636f72726563742060008201527f6f776e6572000000000000000000000000000000000000000000000000000000602082015250565b60006139f9602583612aa7565b9150613a048261399d565b604082019050919050565b60006020820190508181036000830152613a28816139ec565b9050919050565b7f4552433732313a207472616e7366657220746f20746865207a65726f2061646460008201527f7265737300000000000000000000000000000000000000000000000000000000602082015250565b6000613a8b602483612aa7565b9150613a9682613a2f565b604082019050919050565b60006020820190508181036000830152613aba81613a7e565b9050919050565b6000613acc82612b57565b9150613ad783612b57565b925082821015613aea57613ae96134da565b5b828203905092915050565b7f4f776e61626c653a2063616c6c6572206973206e6f7420746865206f776e6572600082015250565b6000613b2b602083612aa7565b9150613b3682613af5565b602082019050919050565b60006020820190508181036000830152613b5a81613b1e565b9050919050565b7f45524337323155524953746f726167653a2055524920736574206f66206e6f6e60008201527f6578697374656e7420746f6b656e000000000000000000000000000000000000602082015250565b6000613bbd602e83612aa7565b9150613bc882613b61565b604082019050919050565b60006020820190508181036000830152613bec81613bb0565b9050919050565b6000819050919050565b6000819050919050565b6000613c22613c1d613c1884613bf3565b613bfd565b612b57565b9050919050565b613c3281613c07565b82525050565b6000608082019050613c4d6000830187612bec565b613c5a6020830186612bec565b613c676040830185613c29565b8181036060830152613c798184612afc565b905095945050505050565b7f4552433732313a20617070726f766520746f2063616c6c657200000000000000600082015250565b6000613cba601983612aa7565b9150613cc582613c84565b602082019050919050565b60006020820190508181036000830152613ce981613cad565b9050919050565b7f4552433732313a207472616e7366657220746f206e6f6e20455243373231526560008201527f63656976657220696d706c656d656e7465720000000000000000000000000000602082015250565b6000613d4c603283612aa7565b9150613d5782613cf0565b604082019050919050565b60006020820190508181036000830152613d7b81613d3f565b9050919050565b600081519050919050565b600082825260208201905092915050565b6000613da982613d82565b613db38185613d8d565b9350613dc3818560208601612ab8565b613dcc81612aeb565b840191505092915050565b6000608082019050613dec6000830187612bec565b613df96020830186612bec565b613e066040830185612f6e565b8181036060830152613e188184613d9e565b905095945050505050565b600081519050613e3281612a0d565b92915050565b600060208284031215613e4e57613e4d6129d7565b5b6000613e5c84828501613e23565b91505092915050565b7f4e487b7100000000000000000000000000000000000000000000000000000000600052601260045260246000fd5b6000613e9f82612b57565b9150613eaa83612b57565b925082613eba57613eb9613e65565b5b828204905092915050565b6000613ed082612b57565b9150613edb83612b57565b925082613eeb57613eea613e65565b5b828206905092915050565b7f4552433732313a206d696e7420746f20746865207a65726f2061646472657373600082015250565b6000613f2c602083612aa7565b9150613f3782613ef6565b602082019050919050565b60006020820190508181036000830152613f5b81613f1f565b9050919050565b7f4552433732313a20746f6b656e20616c7265616479206d696e74656400000000600082015250565b6000613f98601c83612aa7565b9150613fa382613f62565b602082019050919050565b60006020820190508181036000830152613fc781613f8b565b905091905056fea2646970667358221220edd6ec950f6d71707561c80d99cd17096c838b4916fba8de2b931ec22bf58fc064736f6c63430008090033",
  "linkReferences": {},
  "deployedLinkReferences": {}
}