{
  "_format": "hh-sol-artifact-1",
  "contractName": "Ownership",
  "sourceName": "contracts/Ownership.sol",
  "abi": [
    {
      "inputs": [],
      "stateMutability": "nonpayable",
      "type": "constructor"
    },
    {
      "anonymous": false,
      "inputs": [
        {
          "indexed": true,
          "internalType": "address",
          "name": "owner",
          "type": "address"
        },
        {
          "indexed": true,
          "internalType": "address",
          "name": "approved",
          "type": "address"
        },
        {
          "indexed": true,
          "internalType": "uint256",
          "name": "tokenId",
          "type": "uint256"
        }
      ],
      "name": "Approval",
      "type": "event"
    },
    {
      "anonymous": false,
      "inputs": [
        {
          "indexed": true,
          "internalType": "address",
          "name": "owner",
          "type": "address"
        },
        {
          "indexed": true,
          "internalType": "address",
          "name": "operator",
          "type": "address"
        },
        {
          "indexed": false,
          "internalType": "bool",
          "name": "approved",
          "type": "bool"
        }
      ],
      "name": "ApprovalForAll",
      "type": "event"
    },
    {
      "anonymous": false,
      "inputs": [
        {
          "indexed": true,
          "internalType": "address",
          "name": "previousOwner",
          "type": "address"
        },
        {
          "indexed": true,
          "internalType": "address",
          "name": "newOwner",
          "type": "address"
        }
      ],
      "name": "OwnershipTransferred",
      "type": "event"
    },
    {
      "anonymous": false,
      "inputs": [
        {
          "indexed": true,
          "internalType": "address",
          "name": "from",
          "type": "address"
        },
        {
          "indexed": true,
          "internalType": "address",
          "name": "to",
          "type": "address"
        },
        {
          "indexed": true,
          "internalType": "uint256",
          "name": "tokenId",
          "type": "uint256"
        }
      ],
      "name": "Transfer",
      "type": "event"
    },
    {
      "inputs": [
        {
          "internalType": "address",
          "name": "to",
          "type": "address"
        },
        {
          "internalType": "uint256",
          "name": "tokenId",
          "type": "uint256"
        }
      ],
      "name": "approve",
      "outputs": [],
      "stateMutability": "nonpayable",
      "type": "function"
    },
    {
      "inputs": [
        {
          "internalType": "address",
          "name": "owner",
          "type": "address"
        }
      ],
      "name": "balanceOf",
      "outputs": [
        {
          "internalType": "uint256",
          "name": "",
          "type": "uint256"
        }
      ],
      "stateMutability": "view",
      "type": "function"
    },
    {
      "inputs": [
        {
          "internalType": "uint256",
          "name": "tokenId",
          "type": "uint256"
        }
      ],
      "name": "getApproved",
      "outputs": [
        {
          "internalType": "address",
          "name": "",
          "type": "address"
        }
      ],
      "stateMutability": "view",
      "type": "function"
    },
    {
      "inputs": [
        {
          "internalType": "address",
          "name": "owner",
          "type": "address"
        },
        {
          "internalType": "address",
          "name": "operator",
          "type": "address"
        }
      ],
      "name": "isApprovedForAll",
      "outputs": [
        {
          "internalType": "bool",
          "name": "",
          "type": "bool"
        }
      ],
      "stateMutability": "view",
      "type": "function"
    },
    {
      "inputs": [
        {
          "internalType": "string",
          "name": "uri",
          "type": "string"
        }
      ],
      "name": "isContentOwned",
      "outputs": [
        {
          "internalType": "bool",
          "name": "",
          "type": "bool"
        }
      ],
      "stateMutability": "view",
      "type": "function"
    },
    {
      "inputs": [],
      "name": "name",
      "outputs": [
        {
          "internalType": "string",
          "name": "",
          "type": "string"
        }
      ],
      "stateMutability": "view",
      "type": "function"
    },
    {
      "inputs": [],
      "name": "owner",
      "outputs": [
        {
          "internalType": "address",
          "name": "",
          "type": "address"
        }
      ],
      "stateMutability": "view",
      "type": "function"
    },
    {
      "inputs": [
        {
          "internalType": "uint256",
          "name": "tokenId",
          "type": "uint256"
        }
      ],
      "name": "ownerOf",
      "outputs": [
        {
          "internalType": "address",
          "name": "",
          "type": "address"
        }
      ],
      "stateMutability": "view",
      "type": "function"
    },
    {
      "inputs": [
        {
          "internalType": "address",
          "name": "recipient",
          "type": "address"
        },
        {
          "internalType": "string",
          "name": "uri",
          "type": "string"
        }
      ],
      "name": "payToMint",
      "outputs": [
        {
          "internalType": "uint256",
          "name": "",
          "type": "uint256"
        }
      ],
      "stateMutability": "payable",
      "type": "function"
    },
    {
      "inputs": [],
      "name": "renounceOwnership",
      "outputs": [],
      "stateMutability": "nonpayable",
      "type": "function"
    },
    {
      "inputs": [
        {
          "internalType": "address",
          "name": "to",
          "type": "address"
        },
        {
          "internalType": "string",
          "name": "uri",
          "type": "string"
        }
      ],
      "name": "safeMint",
      "outputs": [],
      "stateMutability": "nonpayable",
      "type": "function"
    },
    {
      "inputs": [
        {
          "internalType": "address",
          "name": "from",
          "type": "address"
        },
        {
          "internalType": "address",
          "name": "to",
          "type": "address"
        },
        {
          "internalType": "uint256",
          "name": "tokenId",
          "type": "uint256"
        }
      ],
      "name": "safeTransferFrom",
      "outputs": [],
      "stateMutability": "nonpayable",
      "type": "function"
    },
    {
      "inputs": [
        {
          "internalType": "address",
          "name": "from",
          "type": "address"
        },
        {
          "internalType": "address",
          "name": "to",
          "type": "address"
        },
        {
          "internalType": "uint256",
          "name": "tokenId",
          "type": "uint256"
        },
        {
          "internalType": "bytes",
          "name": "data",
          "type": "bytes"
        }
      ],
      "name": "safeTransferFrom",
      "outputs": [],
      "stateMutability": "nonpayable",
      "type": "function"
    },
    {
      "inputs": [
        {
          "internalType": "address",
          "name": "operator",
          "type": "address"
        },
        {
          "internalType": "bool",
          "name": "approved",
          "type": "bool"
        }
      ],
      "name": "setApprovalForAll",
      "outputs": [],
      "stateMutability": "nonpayable",
      "type": "function"
    },
    {
      "inputs": [
        {
          "internalType": "bytes4",
          "name": "interfaceId",
          "type": "bytes4"
        }
      ],
      "name": "supportsInterface",
      "outputs": [
        {
          "internalType": "bool",
          "name": "",
          "type": "bool"
        }
      ],
      "stateMutability": "view",
      "type": "function"
    },
    {
      "inputs": [],
      "name": "symbol",
      "outputs": [
        {
          "internalType": "string",
          "name": "",
          "type": "string"
        }
      ],
      "stateMutability": "view",
      "type": "function"
    },
    {
      "inputs": [
        {
          "internalType": "uint256",
          "name": "tokenId",
          "type": "uint256"
        }
      ],
      "name": "tokenURI",
      "outputs": [
        {
          "internalType": "string",
          "name": "",
          "type": "string"
        }
      ],
      "stateMutability": "view",
      "type": "function"
    },
    {
      "inputs": [
        {
          "internalType": "address",
          "name": "from",
          "type": "address"
        },
        {
          "internalType": "address",
          "name": "to",
          "type": "address"
        },
        {
          "internalType": "uint256",
          "name": "tokenId",
          "type": "uint256"
        }
      ],
      "name": "transferFrom",
      "outputs": [],
      "stateMutability": "nonpayable",
      "type": "function"
    },
    {
      "inputs": [
        {
          "internalType": "address",
          "name": "recipient",
          "type": "address"
        },
        {
          "internalType": "uint256",
          "name": "tokenId",
          "type": "uint256"
        }
      ],
      "name": "transferOwnership",
      "outputs": [],
      "stateMutability": "nonpayable",
      "type": "function"
    },
    {
      "inputs": [
        {
          "internalType": "address",
          "name": "newOwner",
          "type": "address"
        }
      ],
      "name": "transferOwnership",
      "outputs": [],
      "stateMutability": "nonpayable",
      "type": "function"
    }
  ],
  "bytecode": "0x60806040523480156200001157600080fd5b506040518060400160405280600981526020017f4f776e65727368697000000000000000000000000000000000000000000000008152506040518060400160405280600381526020017f4f4e520000000000000000000000000000000000000000000000000000000000815250816000908051906020019062000096929190620001a6565b508060019080519060200190620000af929190620001a6565b505050620000d2620000c6620000d860201b60201c565b620000e060201b60201c565b620002bb565b600033905090565b6000600760009054906101000a900473ffffffffffffffffffffffffffffffffffffffff16905081600760006101000a81548173ffffffffffffffffffffffffffffffffffffffff021916908373ffffffffffffffffffffffffffffffffffffffff1602179055508173ffffffffffffffffffffffffffffffffffffffff168173ffffffffffffffffffffffffffffffffffffffff167f8be0079c531659141344cd1fd0a4f28419497f9722a3daafe3b4186f6b6457e060405160405180910390a35050565b828054620001b49062000285565b90600052602060002090601f016020900481019282620001d8576000855562000224565b82601f10620001f357805160ff191683800117855562000224565b8280016001018555821562000224579182015b828111156200022357825182559160200191906001019062000206565b5b50905062000233919062000237565b5090565b5b808211156200025257600081600090555060010162000238565b5090565b7f4e487b7100000000000000000000000000000000000000000000000000000000600052602260045260246000fd5b600060028204905060018216806200029e57607f821691505b60208210811415620002b557620002b462000256565b5b50919050565b6130ec80620002cb6000396000f3fe60806040526004361061011f5760003560e01c8063715018a6116100a0578063b88d4fde11610064578063b88d4fde146103ea578063c87b56dd14610413578063d204c45e14610450578063e985e9c514610479578063f2fde38b146104b65761011f565b8063715018a6146103175780638da5cb5b1461032e57806395d89b41146103595780639f1cabc614610384578063a22cb465146103c15761011f565b806323b872dd116100e757806323b872dd1461021b57806342842e0e14610244578063615fd9e21461026d5780636352211e1461029d57806370a08231146102da5761011f565b806301ffc9a71461012457806306fdde0314610161578063081812fc1461018c578063095ea7b3146101c95780630a276680146101f2575b600080fd5b34801561013057600080fd5b5061014b60048036038101906101469190611e86565b6104df565b6040516101589190611ece565b60405180910390f35b34801561016d57600080fd5b506101766105c1565b6040516101839190611f82565b60405180910390f35b34801561019857600080fd5b506101b360048036038101906101ae9190611fda565b610653565b6040516101c09190612048565b60405180910390f35b3480156101d557600080fd5b506101f060048036038101906101eb919061208f565b610699565b005b3480156101fe57600080fd5b506102196004803603810190610214919061208f565b6107b1565b005b34801561022757600080fd5b50610242600480360381019061023d91906120cf565b6107c8565b005b34801561025057600080fd5b5061026b600480360381019061026691906120cf565b610828565b005b61028760048036038101906102829190612257565b610848565b60405161029491906122c2565b60405180910390f35b3480156102a957600080fd5b506102c460048036038101906102bf9190611fda565b610974565b6040516102d19190612048565b60405180910390f35b3480156102e657600080fd5b5061030160048036038101906102fc91906122dd565b610a26565b60405161030e91906122c2565b60405180910390f35b34801561032357600080fd5b5061032c610ade565b005b34801561033a57600080fd5b50610343610af2565b6040516103509190612048565b60405180910390f35b34801561036557600080fd5b5061036e610b1c565b60405161037b9190611f82565b60405180910390f35b34801561039057600080fd5b506103ab60048036038101906103a6919061230a565b610bae565b6040516103b89190611ece565b60405180910390f35b3480156103cd57600080fd5b506103e860048036038101906103e3919061237f565b610be9565b005b3480156103f657600080fd5b50610411600480360381019061040c9190612460565b610bff565b005b34801561041f57600080fd5b5061043a60048036038101906104359190611fda565b610c61565b6040516104479190611f82565b60405180910390f35b34801561045c57600080fd5b5061047760048036038101906104729190612257565b610c73565b005b34801561048557600080fd5b506104a0600480360381019061049b91906124e3565b610cac565b6040516104ad9190611ece565b60405180910390f35b3480156104c257600080fd5b506104dd60048036038101906104d891906122dd565b610d40565b005b60007f80ac58cd000000000000000000000000000000000000000000000000000000007bffffffffffffffffffffffffffffffffffffffffffffffffffffffff1916827bffffffffffffffffffffffffffffffffffffffffffffffffffffffff191614806105aa57507f5b5e139f000000000000000000000000000000000000000000000000000000007bffffffffffffffffffffffffffffffffffffffffffffffffffffffff1916827bffffffffffffffffffffffffffffffffffffffffffffffffffffffff1916145b806105ba57506105b982610dc4565b5b9050919050565b6060600080546105d090612552565b80601f01602080910402602001604051908101604052809291908181526020018280546105fc90612552565b80156106495780601f1061061e57610100808354040283529160200191610649565b820191906000526020600020905b81548152906001019060200180831161062c57829003601f168201915b5050505050905090565b600061065e82610e2e565b6004600083815260200190815260200160002060009054906101000a900473ffffffffffffffffffffffffffffffffffffffff169050919050565b60006106a482610974565b90508073ffffffffffffffffffffffffffffffffffffffff168373ffffffffffffffffffffffffffffffffffffffff161415610715576040517f08c379a000000000000000000000000000000000000000000000000000000000815260040161070c906125f6565b60405180910390fd5b8073ffffffffffffffffffffffffffffffffffffffff16610734610e79565b73ffffffffffffffffffffffffffffffffffffffff16148061076357506107628161075d610e79565b610cac565b5b6107a2576040517f08c379a000000000000000000000000000000000000000000000000000000000815260040161079990612688565b60405180910390fd5b6107ac8383610e81565b505050565b6107b9610f3a565b6107c4338383610fb8565b5050565b6107d96107d3610e79565b8261121f565b610818576040517f08c379a000000000000000000000000000000000000000000000000000000000815260040161080f9061271a565b60405180910390fd5b610823838383610fb8565b505050565b61084383838360405180602001604052806000815250610bff565b505050565b6000600160098360405161085c9190612776565b908152602001604051809103902060009054906101000a900460ff1660ff1614156108bc576040517f08c379a00000000000000000000000000000000000000000000000000000000081526004016108b3906127d9565b60405180910390fd5b662386f26fc10000341015610906576040517f08c379a00000000000000000000000000000000000000000000000000000000081526004016108fd90612845565b60405180910390fd5b600061091260086112b4565b905061091e60086112c2565b60016009846040516109309190612776565b908152602001604051809103902060006101000a81548160ff021916908360ff16021790555061096084826112d8565b61096a81846114b2565b8091505092915050565b6000806002600084815260200190815260200160002060009054906101000a900473ffffffffffffffffffffffffffffffffffffffff169050600073ffffffffffffffffffffffffffffffffffffffff168173ffffffffffffffffffffffffffffffffffffffff161415610a1d576040517f08c379a0000000000000000000000000000000000000000000000000000000008152600401610a14906128b1565b60405180910390fd5b80915050919050565b60008073ffffffffffffffffffffffffffffffffffffffff168273ffffffffffffffffffffffffffffffffffffffff161415610a97576040517f08c379a0000000000000000000000000000000000000000000000000000000008152600401610a8e90612943565b60405180910390fd5b600360008373ffffffffffffffffffffffffffffffffffffffff1673ffffffffffffffffffffffffffffffffffffffff168152602001908152602001600020549050919050565b610ae6610f3a565b610af06000611526565b565b6000600760009054906101000a900473ffffffffffffffffffffffffffffffffffffffff16905090565b606060018054610b2b90612552565b80601f0160208091040260200160405190810160405280929190818152602001828054610b5790612552565b8015610ba45780601f10610b7957610100808354040283529160200191610ba4565b820191906000526020600020905b815481529060010190602001808311610b8757829003601f168201915b5050505050905090565b60006001600983604051610bc29190612776565b908152602001604051809103902060009054906101000a900460ff1660ff16149050919050565b610bfb610bf4610e79565b83836115ec565b5050565b610c10610c0a610e79565b8361121f565b610c4f576040517f08c379a0000000000000000000000000000000000000000000000000000000008152600401610c469061271a565b60405180910390fd5b610c5b84848484611759565b50505050565b6060610c6c826117b5565b9050919050565b610c7b610f3a565b6000610c8760086112b4565b9050610c9360086112c2565b610c9d83826118c8565b610ca781836114b2565b505050565b6000600560008473ffffffffffffffffffffffffffffffffffffffff1673ffffffffffffffffffffffffffffffffffffffff16815260200190815260200160002060008373ffffffffffffffffffffffffffffffffffffffff1673ffffffffffffffffffffffffffffffffffffffff16815260200190815260200160002060009054906101000a900460ff16905092915050565b610d48610f3a565b600073ffffffffffffffffffffffffffffffffffffffff168173ffffffffffffffffffffffffffffffffffffffff161415610db8576040517f08c379a0000000000000000000000000000000000000000000000000000000008152600401610daf906129d5565b60405180910390fd5b610dc181611526565b50565b60007f01ffc9a7000000000000000000000000000000000000000000000000000000007bffffffffffffffffffffffffffffffffffffffffffffffffffffffff1916827bffffffffffffffffffffffffffffffffffffffffffffffffffffffff1916149050919050565b610e37816118e6565b610e76576040517f08c379a0000000000000000000000000000000000000000000000000000000008152600401610e6d906128b1565b60405180910390fd5b50565b600033905090565b816004600083815260200190815260200160002060006101000a81548173ffffffffffffffffffffffffffffffffffffffff021916908373ffffffffffffffffffffffffffffffffffffffff160217905550808273ffffffffffffffffffffffffffffffffffffffff16610ef483610974565b73ffffffffffffffffffffffffffffffffffffffff167f8c5be1e5ebec7d5bd14f71427d1e84f3dd0314c0f7b2291e5b200ac8c7c3b92560405160405180910390a45050565b610f42610e79565b73ffffffffffffffffffffffffffffffffffffffff16610f60610af2565b73ffffffffffffffffffffffffffffffffffffffff1614610fb6576040517f08c379a0000000000000000000000000000000000000000000000000000000008152600401610fad90612a41565b60405180910390fd5b565b8273ffffffffffffffffffffffffffffffffffffffff16610fd882610974565b73ffffffffffffffffffffffffffffffffffffffff161461102e576040517f08c379a000000000000000000000000000000000000000000000000000000000815260040161102590612ad3565b60405180910390fd5b600073ffffffffffffffffffffffffffffffffffffffff168273ffffffffffffffffffffffffffffffffffffffff16141561109e576040517f08c379a000000000000000000000000000000000000000000000000000000000815260040161109590612b65565b60405180910390fd5b6110a9838383611952565b6110b4600082610e81565b6001600360008573ffffffffffffffffffffffffffffffffffffffff1673ffffffffffffffffffffffffffffffffffffffff16815260200190815260200160002060008282546111049190612bb4565b925050819055506001600360008473ffffffffffffffffffffffffffffffffffffffff1673ffffffffffffffffffffffffffffffffffffffff168152602001908152602001600020600082825461115b9190612be8565b92505081905550816002600083815260200190815260200160002060006101000a81548173ffffffffffffffffffffffffffffffffffffffff021916908373ffffffffffffffffffffffffffffffffffffffff160217905550808273ffffffffffffffffffffffffffffffffffffffff168473ffffffffffffffffffffffffffffffffffffffff167fddf252ad1be2c89b69c2b068fc378daa952ba7f163c4a11628f55a4df523b3ef60405160405180910390a461121a838383611957565b505050565b60008061122b83610974565b90508073ffffffffffffffffffffffffffffffffffffffff168473ffffffffffffffffffffffffffffffffffffffff16148061126d575061126c8185610cac565b5b806112ab57508373ffffffffffffffffffffffffffffffffffffffff1661129384610653565b73ffffffffffffffffffffffffffffffffffffffff16145b91505092915050565b600081600001549050919050565b6001816000016000828254019250508190555050565b600073ffffffffffffffffffffffffffffffffffffffff168273ffffffffffffffffffffffffffffffffffffffff161415611348576040517f08c379a000000000000000000000000000000000000000000000000000000000815260040161133f90612c8a565b60405180910390fd5b611351816118e6565b15611391576040517f08c379a000000000000000000000000000000000000000000000000000000000815260040161138890612cf6565b60405180910390fd5b61139d60008383611952565b6001600360008473ffffffffffffffffffffffffffffffffffffffff1673ffffffffffffffffffffffffffffffffffffffff16815260200190815260200160002060008282546113ed9190612be8565b92505081905550816002600083815260200190815260200160002060006101000a81548173ffffffffffffffffffffffffffffffffffffffff021916908373ffffffffffffffffffffffffffffffffffffffff160217905550808273ffffffffffffffffffffffffffffffffffffffff16600073ffffffffffffffffffffffffffffffffffffffff167fddf252ad1be2c89b69c2b068fc378daa952ba7f163c4a11628f55a4df523b3ef60405160405180910390a46114ae60008383611957565b5050565b6114bb826118e6565b6114fa576040517f08c379a00000000000000000000000000000000000000000000000000000000081526004016114f190612d88565b60405180910390fd5b80600660008481526020019081526020016000209080519060200190611521929190611d77565b505050565b6000600760009054906101000a900473ffffffffffffffffffffffffffffffffffffffff16905081600760006101000a81548173ffffffffffffffffffffffffffffffffffffffff021916908373ffffffffffffffffffffffffffffffffffffffff1602179055508173ffffffffffffffffffffffffffffffffffffffff168173ffffffffffffffffffffffffffffffffffffffff167f8be0079c531659141344cd1fd0a4f28419497f9722a3daafe3b4186f6b6457e060405160405180910390a35050565b8173ffffffffffffffffffffffffffffffffffffffff168373ffffffffffffffffffffffffffffffffffffffff16141561165b576040517f08c379a000000000000000000000000000000000000000000000000000000000815260040161165290612df4565b60405180910390fd5b80600560008573ffffffffffffffffffffffffffffffffffffffff1673ffffffffffffffffffffffffffffffffffffffff16815260200190815260200160002060008473ffffffffffffffffffffffffffffffffffffffff1673ffffffffffffffffffffffffffffffffffffffff16815260200190815260200160002060006101000a81548160ff0219169083151502179055508173ffffffffffffffffffffffffffffffffffffffff168373ffffffffffffffffffffffffffffffffffffffff167f17307eab39ab6107e8899845ad3d59bd9653f200f220920489ca2b5937696c318360405161174c9190611ece565b60405180910390a3505050565b611764848484610fb8565b6117708484848461195c565b6117af576040517f08c379a00000000000000000000000000000000000000000000000000000000081526004016117a690612e86565b60405180910390fd5b50505050565b60606117c082610e2e565b60006006600084815260200190815260200160002080546117e090612552565b80601f016020809104026020016040519081016040528092919081815260200182805461180c90612552565b80156118595780601f1061182e57610100808354040283529160200191611859565b820191906000526020600020905b81548152906001019060200180831161183c57829003601f168201915b50505050509050600061186a611af3565b90506000815114156118805781925050506118c3565b6000825111156118b557808260405160200161189d929190612ea6565b604051602081830303815290604052925050506118c3565b6118be84611b30565b925050505b919050565b6118e2828260405180602001604052806000815250611b98565b5050565b60008073ffffffffffffffffffffffffffffffffffffffff166002600084815260200190815260200160002060009054906101000a900473ffffffffffffffffffffffffffffffffffffffff1673ffffffffffffffffffffffffffffffffffffffff1614159050919050565b505050565b505050565b600061197d8473ffffffffffffffffffffffffffffffffffffffff16611bf3565b15611ae6578373ffffffffffffffffffffffffffffffffffffffff1663150b7a026119a6610e79565b8786866040518563ffffffff1660e01b81526004016119c89493929190612f1f565b602060405180830381600087803b1580156119e257600080fd5b505af1925050508015611a1357506040513d601f19601f82011682018060405250810190611a109190612f80565b60015b611a96573d8060008114611a43576040519150601f19603f3d011682016040523d82523d6000602084013e611a48565b606091505b50600081511415611a8e576040517f08c379a0000000000000000000000000000000000000000000000000000000008152600401611a8590612e86565b60405180910390fd5b805181602001fd5b63150b7a0260e01b7bffffffffffffffffffffffffffffffffffffffffffffffffffffffff1916817bffffffffffffffffffffffffffffffffffffffffffffffffffffffff191614915050611aeb565b600190505b949350505050565b60606040518060400160405280600781526020017f697066733a2f2f00000000000000000000000000000000000000000000000000815250905090565b6060611b3b82610e2e565b6000611b45611af3565b90506000815111611b655760405180602001604052806000815250611b90565b80611b6f84611c16565b604051602001611b80929190612ea6565b6040516020818303038152906040525b915050919050565b611ba283836112d8565b611baf600084848461195c565b611bee576040517f08c379a0000000000000000000000000000000000000000000000000000000008152600401611be590612e86565b60405180910390fd5b505050565b6000808273ffffffffffffffffffffffffffffffffffffffff163b119050919050565b60606000821415611c5e576040518060400160405280600181526020017f30000000000000000000000000000000000000000000000000000000000000008152509050611d72565b600082905060005b60008214611c90578080611c7990612fad565b915050600a82611c899190613025565b9150611c66565b60008167ffffffffffffffff811115611cac57611cab61212c565b5b6040519080825280601f01601f191660200182016040528015611cde5781602001600182028036833780820191505090505b5090505b60008514611d6b57600182611cf79190612bb4565b9150600a85611d069190613056565b6030611d129190612be8565b60f81b818381518110611d2857611d27613087565b5b60200101907effffffffffffffffffffffffffffffffffffffffffffffffffffffffffffff1916908160001a905350600a85611d649190613025565b9450611ce2565b8093505050505b919050565b828054611d8390612552565b90600052602060002090601f016020900481019282611da55760008555611dec565b82601f10611dbe57805160ff1916838001178555611dec565b82800160010185558215611dec579182015b82811115611deb578251825591602001919060010190611dd0565b5b509050611df99190611dfd565b5090565b5b80821115611e16576000816000905550600101611dfe565b5090565b6000604051905090565b600080fd5b600080fd5b60007fffffffff0000000000000000000000000000000000000000000000000000000082169050919050565b611e6381611e2e565b8114611e6e57600080fd5b50565b600081359050611e8081611e5a565b92915050565b600060208284031215611e9c57611e9b611e24565b5b6000611eaa84828501611e71565b91505092915050565b60008115159050919050565b611ec881611eb3565b82525050565b6000602082019050611ee36000830184611ebf565b92915050565b600081519050919050565b600082825260208201905092915050565b60005b83811015611f23578082015181840152602081019050611f08565b83811115611f32576000848401525b50505050565b6000601f19601f8301169050919050565b6000611f5482611ee9565b611f5e8185611ef4565b9350611f6e818560208601611f05565b611f7781611f38565b840191505092915050565b60006020820190508181036000830152611f9c8184611f49565b905092915050565b6000819050919050565b611fb781611fa4565b8114611fc257600080fd5b50565b600081359050611fd481611fae565b92915050565b600060208284031215611ff057611fef611e24565b5b6000611ffe84828501611fc5565b91505092915050565b600073ffffffffffffffffffffffffffffffffffffffff82169050919050565b600061203282612007565b9050919050565b61204281612027565b82525050565b600060208201905061205d6000830184612039565b92915050565b61206c81612027565b811461207757600080fd5b50565b60008135905061208981612063565b92915050565b600080604083850312156120a6576120a5611e24565b5b60006120b48582860161207a565b92505060206120c585828601611fc5565b9150509250929050565b6000806000606084860312156120e8576120e7611e24565b5b60006120f68682870161207a565b93505060206121078682870161207a565b925050604061211886828701611fc5565b9150509250925092565b600080fd5b600080fd5b7f4e487b7100000000000000000000000000000000000000000000000000000000600052604160045260246000fd5b61216482611f38565b810181811067ffffffffffffffff821117156121835761218261212c565b5b80604052505050565b6000612196611e1a565b90506121a2828261215b565b919050565b600067ffffffffffffffff8211156121c2576121c161212c565b5b6121cb82611f38565b9050602081019050919050565b82818337600083830152505050565b60006121fa6121f5846121a7565b61218c565b90508281526020810184848401111561221657612215612127565b5b6122218482856121d8565b509392505050565b600082601f83011261223e5761223d612122565b5b813561224e8482602086016121e7565b91505092915050565b6000806040838503121561226e5761226d611e24565b5b600061227c8582860161207a565b925050602083013567ffffffffffffffff81111561229d5761229c611e29565b5b6122a985828601612229565b9150509250929050565b6122bc81611fa4565b82525050565b60006020820190506122d760008301846122b3565b92915050565b6000602082840312156122f3576122f2611e24565b5b60006123018482850161207a565b91505092915050565b6000602082840312156123205761231f611e24565b5b600082013567ffffffffffffffff81111561233e5761233d611e29565b5b61234a84828501612229565b91505092915050565b61235c81611eb3565b811461236757600080fd5b50565b60008135905061237981612353565b92915050565b6000806040838503121561239657612395611e24565b5b60006123a48582860161207a565b92505060206123b58582860161236a565b9150509250929050565b600067ffffffffffffffff8211156123da576123d961212c565b5b6123e382611f38565b9050602081019050919050565b60006124036123fe846123bf565b61218c565b90508281526020810184848401111561241f5761241e612127565b5b61242a8482856121d8565b509392505050565b600082601f83011261244757612446612122565b5b81356124578482602086016123f0565b91505092915050565b6000806000806080858703121561247a57612479611e24565b5b60006124888782880161207a565b94505060206124998782880161207a565b93505060406124aa87828801611fc5565b925050606085013567ffffffffffffffff8111156124cb576124ca611e29565b5b6124d787828801612432565b91505092959194509250565b600080604083850312156124fa576124f9611e24565b5b60006125088582860161207a565b92505060206125198582860161207a565b9150509250929050565b7f4e487b7100000000000000000000000000000000000000000000000000000000600052602260045260246000fd5b6000600282049050600182168061256a57607f821691505b6020821081141561257e5761257d612523565b5b50919050565b7f4552433732313a20617070726f76616c20746f2063757272656e74206f776e6560008201527f7200000000000000000000000000000000000000000000000000000000000000602082015250565b60006125e0602183611ef4565b91506125eb82612584565b604082019050919050565b6000602082019050818103600083015261260f816125d3565b9050919050565b7f4552433732313a20617070726f76652063616c6c6572206973206e6f7420746f60008201527f6b656e206f776e6572206e6f7220617070726f76656420666f7220616c6c0000602082015250565b6000612672603e83611ef4565b915061267d82612616565b604082019050919050565b600060208201905081810360008301526126a181612665565b9050919050565b7f4552433732313a2063616c6c6572206973206e6f7420746f6b656e206f776e6560008201527f72206e6f7220617070726f766564000000000000000000000000000000000000602082015250565b6000612704602e83611ef4565b915061270f826126a8565b604082019050919050565b60006020820190508181036000830152612733816126f7565b9050919050565b600081905092915050565b600061275082611ee9565b61275a818561273a565b935061276a818560208601611f05565b80840191505092915050565b60006127828284612745565b915081905092915050565b7f55524920616c7265616479206f776e6564000000000000000000000000000000600082015250565b60006127c3601183611ef4565b91506127ce8261278d565b602082019050919050565b600060208201905081810360008301526127f2816127b6565b9050919050565b7f5061796d656e74204661696c6564000000000000000000000000000000000000600082015250565b600061282f600e83611ef4565b915061283a826127f9565b602082019050919050565b6000602082019050818103600083015261285e81612822565b9050919050565b7f4552433732313a20696e76616c696420746f6b656e2049440000000000000000600082015250565b600061289b601883611ef4565b91506128a682612865565b602082019050919050565b600060208201905081810360008301526128ca8161288e565b9050919050565b7f4552433732313a2061646472657373207a65726f206973206e6f74206120766160008201527f6c6964206f776e65720000000000000000000000000000000000000000000000602082015250565b600061292d602983611ef4565b9150612938826128d1565b604082019050919050565b6000602082019050818103600083015261295c81612920565b9050919050565b7f4f776e61626c653a206e6577206f776e657220697320746865207a65726f206160008201527f6464726573730000000000000000000000000000000000000000000000000000602082015250565b60006129bf602683611ef4565b91506129ca82612963565b604082019050919050565b600060208201905081810360008301526129ee816129b2565b9050919050565b7f4f776e61626c653a2063616c6c6572206973206e6f7420746865206f776e6572600082015250565b6000612a2b602083611ef4565b9150612a36826129f5565b602082019050919050565b60006020820190508181036000830152612a5a81612a1e565b9050919050565b7f4552433732313a207472616e736665722066726f6d20696e636f72726563742060008201527f6f776e6572000000000000000000000000000000000000000000000000000000602082015250565b6000612abd602583611ef4565b9150612ac882612a61565b604082019050919050565b60006020820190508181036000830152612aec81612ab0565b9050919050565b7f4552433732313a207472616e7366657220746f20746865207a65726f2061646460008201527f7265737300000000000000000000000000000000000000000000000000000000602082015250565b6000612b4f602483611ef4565b9150612b5a82612af3565b604082019050919050565b60006020820190508181036000830152612b7e81612b42565b9050919050565b7f4e487b7100000000000000000000000000000000000000000000000000000000600052601160045260246000fd5b6000612bbf82611fa4565b9150612bca83611fa4565b925082821015612bdd57612bdc612b85565b5b828203905092915050565b6000612bf382611fa4565b9150612bfe83611fa4565b9250827fffffffffffffffffffffffffffffffffffffffffffffffffffffffffffffffff03821115612c3357612c32612b85565b5b828201905092915050565b7f4552433732313a206d696e7420746f20746865207a65726f2061646472657373600082015250565b6000612c74602083611ef4565b9150612c7f82612c3e565b602082019050919050565b60006020820190508181036000830152612ca381612c67565b9050919050565b7f4552433732313a20746f6b656e20616c7265616479206d696e74656400000000600082015250565b6000612ce0601c83611ef4565b9150612ceb82612caa565b602082019050919050565b60006020820190508181036000830152612d0f81612cd3565b9050919050565b7f45524337323155524953746f726167653a2055524920736574206f66206e6f6e60008201527f6578697374656e7420746f6b656e000000000000000000000000000000000000602082015250565b6000612d72602e83611ef4565b9150612d7d82612d16565b604082019050919050565b60006020820190508181036000830152612da181612d65565b9050919050565b7f4552433732313a20617070726f766520746f2063616c6c657200000000000000600082015250565b6000612dde601983611ef4565b9150612de982612da8565b602082019050919050565b60006020820190508181036000830152612e0d81612dd1565b9050919050565b7f4552433732313a207472616e7366657220746f206e6f6e20455243373231526560008201527f63656976657220696d706c656d656e7465720000000000000000000000000000602082015250565b6000612e70603283611ef4565b9150612e7b82612e14565b604082019050919050565b60006020820190508181036000830152612e9f81612e63565b9050919050565b6000612eb28285612745565b9150612ebe8284612745565b91508190509392505050565b600081519050919050565b600082825260208201905092915050565b6000612ef182612eca565b612efb8185612ed5565b9350612f0b818560208601611f05565b612f1481611f38565b840191505092915050565b6000608082019050612f346000830187612039565b612f416020830186612039565b612f4e60408301856122b3565b8181036060830152612f608184612ee6565b905095945050505050565b600081519050612f7a81611e5a565b92915050565b600060208284031215612f9657612f95611e24565b5b6000612fa484828501612f6b565b91505092915050565b6000612fb882611fa4565b91507fffffffffffffffffffffffffffffffffffffffffffffffffffffffffffffffff821415612feb57612fea612b85565b5b600182019050919050565b7f4e487b7100000000000000000000000000000000000000000000000000000000600052601260045260246000fd5b600061303082611fa4565b915061303b83611fa4565b92508261304b5761304a612ff6565b5b828204905092915050565b600061306182611fa4565b915061306c83611fa4565b92508261307c5761307b612ff6565b5b828206905092915050565b7f4e487b7100000000000000000000000000000000000000000000000000000000600052603260045260246000fdfea26469706673582212204b6aeedb342ba5597fc21b56c0b41b27bb5e84bc04d7e9bb6c18aba7d4bf5d6164736f6c63430008090033",
  "linkReferences": {},
  "deployedLinkReferences": {}
}